:100000006F003064130000001300000013000000B4
:100010001300000013000000130000001300000094
:100020001300000013000000130000001300000084
:08003000130000007300100032
:1000380000000000000000006E07000072070000CA
:10004800000000009C0D00000000000000000000FF
:100058009E0D0000A00D0000000000000000000040
:10006800A20D000000000000A40D00000000000028
:10007800A60D0000A80D0000AA0D0000AC0D0000A0
:10008800AE0D0000B00D0000B20D0000B40D000070
:10009800B60D0000B80D0000BA0D0000BC0D000040
:1000A800BE0D0000C00D0000C20D0000C40D000010
:1000B800C60D0000C80D0000CA0D0000CC0D0000E0
:1000C800CE0D0000D00D0000D20D0000D40D0000B0
:1000D800D60D0000D80D0000DA0D0000DC0D000080
:1000E800DE0D0000E00D0000E20D0000E40D000050
:1000F800E60D0000E80D0000EA0D0000EC0D000020
:10010800EE0D0000F00D0000F20D0000F40D0000EF
:10011800F60D0000F80D000000000000FA0D0000C8
:10012800FC0D0000FE0D0000000E0000020E000095
:10013800040E0000060E0000080E00000A0E000063
:100148000C0E00000E0E0000100E0000120E000033
:10015800140E0000160E0000180E00001A0E000003
:100168001C0E00000000000000000000000000005D
:100178000000000000000000000000001E0E00004B
:10018800000000000000000000000000200E000039
:10019800220E0000240E0000260E0000280E00008B
:1001A8002A0E00002C0E00002E0E0000300E00005B
:1001B800320E0000340E0000360E0000380E00002B
:1001C8003A0E00003C0E00003E0E0000400E0000FB
:1001D8000000000000000000000000000000000017
:1001E8000000000000000000000000000000000007
:0801F8000000000000000000FF
:10020000511126C022C206C4828282441244A240F6
:10021000310182802A86014593F6150091C23295FC
:1002200085810606F5F9828000000000634E050214
:1002300063C305042E86AA857D5515C2854663785D
:10024000B6006356C00006068606E36CB6FE01459E
:1002500063E4C500918D558D85820582F5FA828013
:100260008682C93F2E8582823305A04063D7050070
:10027000B305B040C1B7B305B0408682653F3305D2
:10028000A0408282868263C70500634905005D370E
:100290002E858282B305B040E35B05FE3305A040A6
:1002A000513F3305B040828200003D432A8763738B
:1002B000C3029377F700BDEFADE5937606FF3D8A65
:1002C000BA960CC34CC30CC74CC74107E36BD7FEAF
:1002D00011E28280B306C3408A0697020000969618
:1002E0006780A6002307B700A306B7002306B70060
:1002F000A305B7002305B700A304B7002304B70084
:10030000A303B7002303B700A302B7002302B7007B
:10031000A301B7002301B700A300B7002300B70073
:10032000828093F5F50F93968500D58D9396050100
:10033000D58D61B793962700970200009696868226
:10034000E78086FA9680C1171D8F3E96E374C3F846
:10035000A5B7EFF2FFEA1301C1FD2AC22EC0214565
:10036000854502C402C602C802CA02CC02CE02D02F
:10037000EF00900F854537054000EF00D010B7140F
:10038000014013040040F1460D472C00138504C0C2
:10039000608436C83AC6092B8567F1460D479387B6
:1003A00007802C00138504C036C83AC67C84ED292A
:1003B00012430246E087B707FFBF376400403ECCD8
:1003C0004C089167130504801ACAF0862310F102C5
:1003D0007D23130504808545EF00A06B854513053B
:1003E0000480EF00C06F1301410205B5EFF25FE139
:1003F000AE84630B050EB707002003C42700B76760
:100400000040138707803A85B7050200EF0080712E
:10041000B7670040138707807DF585453A85EF0073
:10042000C068B7070300850737670040BE8513051E
:100430000780EF00C06DB7070300376700408507EE
:1004400065D5B707002083C507000146130507805F
:10045000860593F5E50FEF00606AB70707009387FD
:10046000270837670040BE8513050780EF00206A24
:10047000B707070037670040938727087DD1A2851B
:100480001305078037040700EF00006713044408D2
:10049000B767004013850780A285EF004067B76704
:1004A00000407DD5A6851385078037040700EF003F
:1004B000A0641304440837650040A2851305058035
:1004C000EF00E0646DD93704070013044408B764F3
:1004D0000040A28513850480EF0060636DD98545D7
:1004E00013850480C52315B303C4018109BFEFF24E
:1004F0003FD18964014493844402B38784008C23F0
:1005000001450504E535A147E319F4FEFDB9EFF215
:100510003FCF3764004093040480B705020026856E
:10052000112565FD13050480854537040300B52BAF
:100530000504B7640040A28513850480C92B75D9D2
:10054000B707002083C50700014613850480860590
:1005500093F5E50F37040700552313042408B76407
:100560000040A285138504805D2375D913844181E1
:1005700093840480B707002083C517002685AD2B20
:10058000B707070093874708BE8526854923B70725
:100590000700938747086DD90C202685B12BB70734
:1005A000070093874708BE8526859523B707070070
:1005B000938747086DD90904938741C1E31CF4FA76
:1005C0003704070013044408B7640040A28513856C
:1005D0000480352B75D9854513850480E52135B117
:1005E000EFF21FC29305100201450935814501450F
:1005F000F53B9305F0070145D53B930520020145E6
:10060000F53381450145DD338D450145C53301375E
:10061000EDBEEFF2FFBE9387418113870740239021
:1006200007008907E39DE7FE653FC5B6EFF25FBDB2
:1006300085661384418193860680A29693874181C3
:100640001307F00F9AA3133717003307E040890709
:100650001377F70FE398D7FE6137E1641385046AD7
:100660009122453F1385046A352A930704401307F6
:10067000F00F1AA00904E39E87FE9D3761651305FC
:10068000056A0D2259B6EFF2BFB7ED20716513056B
:100690000520812AB707002083A5470037250000E1
:1006A00013054501EF009002B707002083C507003E
:1006B00061651305056A71391D3DA13F1305803E33
:1006C000D520AD37FDBFB71702409843B706FFF0FE
:1006D0001367170098C3D843758FD8C39843B706DC
:1006E000F7FEFD16758F98C39843B706FCFFFD16FD
:1006F000758F98C3D843B70681FFFD16758FD8C391
:1007000037079F0098C7B746024003A706801367C4
:10071000070123A0E680D843B706C1FFFD16D8C362
:10072000D843D8C3D84313670740D8C3D843758F7D
:10073000D8C3D843B7063C00558FD8C39843B706F3
:100740000001558F98C3984393166700E3DD06FEBA
:10075000D843B7160240719BD8C3D843136727000C
:10076000D8C32147DC42B18BE39EE7FE8280730051
:10077000203001A0EFF2DFA8B707002003A5470053
:10078000B7157A009385052075341375F50F238B03
:10079000A1C093175500898F8A073E950E05239AAD
:1007A000A1C0A5B4EFF2DFA537F400E05C40AA8554
:1007B000F99B5CC003D541C1B13C08C881475CC806
:1007C0001C4093E707011CC01C4093E717021CC0A4
:1007D000B7F700E0D843058B75DF9843799B98C342
:1007E0002DB4EFF2FFA12A84116511118545110581
:1007F000A529930700207C80371501408D473EC214
:100800008A85E147130505803EC4792822C637440E
:100810000140B70708006C00130504803ECA02C8F7
:10082000231C01004121854513050480912371019A
:10083000E9BAEFF2FF9C7111AE840144635DC4021A
:10084000B7470140138707803A859305000432C0FB
:100850003D2BB747014013870780024675D5338784
:10086000840083050700138507800504C205C18144
:10087000192B0246E1B7328511016FF01F99370736
:100880000020130787001C439386C1C13E95636B0C
:10089000D500B78600209386068063E5A60008C3CE
:1008A0003E858280FD57EDBF9C45611122C226C066
:1008B00013F7070113F3F70001C7D8413363E300CF
:1008C00092211377F60F29C78323050001471304EC
:1008D0008002930480048546B395E600B376B600A3
:1008E0006392D50293122700BD46B396560093C675
:1008F000F6FFB3F37600B3125300B3E372006397CD
:1009000087064CC90507A146E317D7FC23207500CD
:100910001307F00F6378C70483234500A14613042F
:100920008002930480040547B312D7003377560042
:100930006394E202139726000117BD45B395E500C5
:1009400093C5F5FFB3F375003317E300B363770086
:1009500063928702232A550085064147E395E6FC0A
:10096000232275001244824421018280E39C97F87F
:100970000CC949BFE39297FE23285500F1BFEFF25F
:100980003F885E2111112A84C207C18393F707FCB7
:10099000C207C1832800AE843EC0752AC246B7454F
:1009A0000F0093850524368536C2EFF0BF88824755
:1009B000131605014182D18F5EA01E202A87884030
:1009C000C207C183F99BC207C1831EA0E16732C081
:1009D0009387076A93151500924663E9A704368545
:1009E000EFF05F85420541811147AA870246637394
:1009F000E500914705064206C2074182C18312B055
:100A00005EAC1E20DA20B62493E717001EA01E203D
:100A1000558FC207C18393F757BFD98F1EA09A2461
:100A2000DE24D98F1EA471016FF02FFEF220B16772
:100A3000FD173AC06312F604AA953685EFF08FFFD2
:100A40004205418193174501024799E3136515005B
:100A5000A167C98F131527002A9713154700198D11
:100A60009305803E0A053EC0EFF04FFC05054205A8
:100A700041810AB0824769B7B387A5008E07B38565
:100A8000A7003685EFF00FFB4205418191675D8D30
:100A900055BF1E2189C593E717001EA18280C2079A
:100AA000C183F99BC207C183CDBF1E2189C593E7CE
:100AB00007101EA18280C207C18393F7F7EFC20718
:100AC000C183C5BF1E2189C593E707201EA182806F
:100AD000C207C18393F7F7DFC207C183C5BF1E21D9
:100AE00089C593E707401EA18280C207C18393F79F
:100AF000F7BFC207C183C5BF0EA9828093F7E50F78
:100B000019C293E71500C207C1831EA982805E291E
:100B10000A2D42055D8D6D8D220521810D8D1335C8
:100B200015008280611102C002C293D7C5012AC29A
:100B30003EC08247A205A18199CB9247D1073EC210
:100B40009247884321016D8D3335A0008280924702
:100B5000C181E107EDB7EFF2AFEA371702405C431E
:100B60009146AA84B18B6385D700A1466385D706D9
:100B7000B7177A00938707209CC0371702405C4361
:100B8000B7060020938606019183BD8BB697882314
:100B90009C4033D5A700C8C05C43A1839D8BB6970A
:100BA0009C23B357F5009CC45C43AD839D8BB697E3
:100BB0009C233355F500C8C45C43B98313F7370051
:100BC000B70700209387C700BA978C23EFF08FE612
:100BD00088C86FF08FE348435843C1674981F98F54
:100BE00037F7FF1F0327C7703D89090593161701C3
:100BF00063C80600454701446312E502494539A828
:100C000009476309E5023D476308E5024147630878
:100C1000E502454701446313E500414585E7B747D1
:100C2000024083A70780C18B8DC7B7157A009385D3
:100C3000052025A00144D9B705443545C5B7014471
:100C40003D45E9BFB7170240DC431397E700E35E79
:100C500007FCB7153D0093850590EFF0AFDB88C02A
:100C600009DC9C40858309BF99C5371702401C4F9A
:100C70005D8D08CF8280B7170240984F1345F5FF6E
:100C8000798D88CF828099C5371702405C4F5D8D82
:100C900048CF8280B7170240D84F1345F5FF798DB2
:100CA000C8CF8280EFF2CFD51629F577FD17F58FE3
:100CB000F621DA252111D58F1EA95625FD779387B8
:100CC000379FF58FD6212A842EC0D58F9625D58FB4
:100CD000B625D58F5EA55E29C207C18393F7F7CFEE
:100CE0005D8F5AA94800853DB7470140938707802B
:100CF00082456312F406C2475A24139517003E95A5
:100D000042070E0541873E958C41635807048605CE
:100D1000EFF04FD2930540062AC0EFF0AFD18247E3
:100D200093144500930540063E85EFF06FD35E2493
:100D3000C207C18763D507020E0593054006130558
:100D40002503EFF02FCF1D89C98CC204C18006A4F2
:100D500061016FF08FCBB24745B78A0555BF1205C9
:100D60009305400613052503EFF0CFCC3D89E9BF7D
:100D700091C55E250967D98F5EA582805A25F977CE
:100D8000FD17F98FD5BF93F5F51F4EA182800A217B
:100D90006D8D3335A000828001A001A001A001A0CB
:100DA00001A001A001A001A001A001A001A001A03B
:100DB00001A001A001A001A001A001A001A001A02B
:100DC00001A001A001A001A001A001A001A001A01B
:100DD00001A001A001A001A001A001A001A001A00B
:100DE00001A001A001A001A001A001A001A001A0FB
:100DF00001A001A001A001A001A001A001A001A0EB
:100E000001A001A001A001A001A001A001A001A0DA
:100E100001A001A001A001A001A001A001A001A0CA
:100E200001A001A001A001A001A001A001A001A0BA
:100E300001A001A001A001A001A001A001A001A0AA
:100E400001A0970100209381E1A3177100201301F5
:100E5000611B171500001305652797F5FF1F938584
:100E6000651A1386818063FAC5008322050023A0DA
:100E7000550011059105E3EAC5FE13858180938530
:100E8000C1C16377B500232005001105E36DB5FEF0
:100E9000FD42739002BCAD4273904280B762000085
:100EA0009382820873A0023097F2FFFF93820219A7
:100EB00093E2320073905230EFF0FF8097F2FFFF21
:100EC0009382A27C73901234730020301301C1FD11
:100ED0003ED02EC832CA36CC3ACE97F7FF1F938742
:100EE000671A22C4804326C206C6AA8409C41C4CC1
:100EF00099E32285C9280C4414082686228536C029
:100F0000AD26B24022449244130141028280511125
:100F100022C206C42A844EA572A5232005002322DE
:100F20000500232405002322050623280500232A83
:100F30000500232C0500214681451305C505EFF06A
:100F4000CFB6971700009387079E5CD097170000D5
:100F5000938727A01CD497170000938707A45CD41D
:100F600097170000938767A600D01CD8A2401244B0
:100F700031018280971500009385E5D989AA411136
:100F80001386F5FF22C41314160032940A04329417
:100F90000E042EC09305440726C206C6412AAA8421
:100FA00009CD8247232005003105232CF5FE88C496
:100FB000130684068145EFF04FAFB24022442685E8
:100FC0009244410182801C4DBDE3511106C422C2EE
:100FD00097070000938747FA1CD597F7FF1F938761
:100FE000A70A9C432324050423260504232805047B
:100FF0006314F50085471CCD2A841D2848C022852E
:10100000052808C422852D2048C448400146914542
:10101000FD3D08440546A545DD3D48440946C94512
:10102000FD3585471CCCA24012443101828082806C
:10103000411197F7FF1F9387270522C4804326C2DB
:1010400006C61C4CAA8499E32285B53F9307840405
:101050008047D8437D1763560700984331CF9C43A0
:10106000C5BF8316C400B1E6C177850723220406F5
:101070002320040023220400232404005CC423282A
:101080000400232A0400232C040021468145130573
:10109000C405EFF08FA1232A0402232C0402232489
:1010A0000404232604042285B240224492444101D0
:1010B00082801304840679BF914526853EC0C135E0
:1010C000824788C349FDB1479CC00144E9BF111163
:1010D00022CA06CC26C8AA862E8613048504814718
:1010E00019E4E2405244C2443E85710182800444C6
:1010F00058407D17635407000040DDB7CA2485457A
:1011000063F3A5020395E400FD55630EB500368533
:10111000A6853EC63AC436C232C00296B2472247BE
:1011200092460246C98F93848406E1B7411126C2D4
:1011300093843500F19806C622C4A104B14763F731
:10114000F404B14463E6B4042AC0EF00F0551387F9
:10115000818014438247368421E41387C180184379
:1011600001EB3E8581453EC0412F23A6A1808247E9
:101170003E85A6853EC049277D5782476316E50612
:10118000314798C33E85EF00505229A0E3DC04FAB2
:10119000B1471CC10145B2402244924441018280C2
:1011A0001840058F634F07022D466376E60018C08E
:1011B0003A9404C031A058406393860223A4E1808E
:1011C0003E85EF00904E1305B4001307440061996B
:1011D000B307E540E9D33E94098F18C06DBFD8C26C
:1011E000C5B7A28640408DBF130435007198E30255
:1011F00085FCB305A4403E853EC0FD2D7D5782474A
:10120000E319E5FAB5BF1C46FD171CC663DA0700F3
:10121000184E63C5E700A9476394F5006F00007B93
:101220001C422E851387170018C28CA382803111AF
:1012300022C626C406C8AA872E873284B304D600E5
:1012400063149400014529A80C203A863E853AC2D1
:101250003EC0553FFD56050482471247E312D5FEB6
:10126000C2403244A24451018280130181F722C15D
:10127000A6DE9307F10106C32AC032C22E8493F47E
:1012800087FF11C5184D01E736C6353BB246171723
:1012900000001307E7DB6310E40E8247C0435A24C3
:1012A000218B630C070E18486DCB1307000298BC06
:1012B0001307000323AA0400B8AC36CA124713066A
:1012C0005002142399C26398C60E92473303F74025
:1012D0006301030202459A863E86A2853AC81AC671
:1012E000B937FD566306D520D448324342479A9613
:1012F000D4C81423638E061E130317007D5723A042
:10130000040023A60400D8C023A40400A38104047D
:1013100023AC04048345030015461715000013058C
:1013200025D71AC2EF00D03612439440130713009A
:1013300049E513F6060109C613060002A381C40499
:1013400013F6860009C61306B002A381C4048345C0
:1013500003001306A002638FC506D4441A87814593
:101360002545102313031700130606FD6377C50AEE
:10137000B5C9D4C485A817170000130767CF631534
:10138000E4008247804721BF17170000130747CAB0
:10139000E317E4F08247C04719B70245A28536C675
:1013A000392FB246E30305F07D559A400A44F654BE
:1013B000130181088280050729B71716000013065C
:1013C00026CD3306C54005453315C500C98E94C0EA
:1013D0003A8389B752469305460010422ECA6347A6
:1013E0000602D0C410239306E0026311D606103320
:1013F0009306A002631ED602D24609071386460052
:10140000944232CA63C40602D4C089A03306C040E5
:1014100093E62600D0C494C0F1B713972600369700
:101420000607B306C70085451A8725BFFD56E9BFE5
:10143000050723A204008145814625451023130397
:101440001700130606FD6379C506DDFD0C230D4666
:1014500017150000130545C43AC2EF007023124768
:1014600011CD97160000938626C3158D93060004B0
:10147000B396A60088400507558D88C00C239307B6
:101480001700194617150000130545C13EC28CAC64
:10149000EF0010202DC517F7FFFF1307A7B605EBC8
:1014A0009440524793F606108DC211073ACAD848A5
:1014B000A2473E97D8C819B5139726003697060756
:1014C000B306C70085451A8795BF2107C5B70245F2
:1014D0005808970600009386C6D52286A6859700F1
:1014E0000000E70000002AC4A2477D57E391E7FC13
:1014F0005A2413770704E31907EAC8487DB5024563
:101500005808970600009386C6D22286A685052A2B
:10151000D9BF011126CA3283B6849045944922CCA2
:1015200006CE2A84AE8763D3C600B2862320D300BA
:1015300003C6370401C685062320D300944393F6DF
:10154000060291C68326030089062320D30083A2C6
:1015500007009383970193F262006383020690432E
:1015600083C6370413760602B336D00041EA1386E9
:101570003704A68522851AC43EC23AC00297FD569A
:101580006308D5069247224311459443032603007E
:10159000CC47998A014302476397A6003383C5402D
:1015A0006353030001439447904B6354D600918EDC
:1015B00036938142E9076312530601451DA885024F
:1015C000D44703260300918EE3DBD2F885461E86BE
:1015D000A68522851AC83EC616C41EC23AC0029706
:1015E000FD5602479243A242B2474243E319D5FC5B
:1015F0007D55F2406244D24405618280B385D700B4
:1016000013050003A381A50483C5570413861600A0
:101610003E968906A301B60499BF85463E86A685F7
:10162000228516C61AC43EC23AC00297FD56E3018F
:10163000D5FCB2422243924785020247ADBF130157
:1016400041FD22D206D426D032C2902D36C42AC003
:10165000930690062E8493823504630DD60263E2CE
:10166000C60693068005630FD61863EDC6006307B0
:10167000062293063004630DD60A93042404230142
:10168000C404C1A0930630066304D60A930640063C
:10169000E315D6FE1440084313F6060893054500EB
:1016A0005DC214410CC363D806001307D002B30611
:1016B000D040A301E404171600001306A69E294794
:1016C0005DA893060007630BD61663E5C602930672
:1016D000E0066302D61A9306F006E310D6FA0C4031
:1016E000144313F30508138546006306030608C375
:1016F0009442BDA093065007E303D6FE93068007ED
:101700006302D61493063007E319D6F61443138602
:10171000460010C38442D04181452685EF004077C2
:1017200019C1058D48C0584018C8A30104045DA81C
:101730001443930424041386460010C398422301E3
:10174000E4040547D5B713F6060414410CC321DEA3
:10175000C206C18689BF93F5050408C3D1D9962274
:101760001307F0066301E6101716000013068693B0
:101770002947A30104044C400CC463C5050008407C
:101780006D9908C099E296849DC99684BA8536857C
:1017900016CC32CA3AC836C6EFE09FAC5246424732
:1017A000B24632950C21FD1436858CA0BA85EFE047
:1017B0007FA8B24642475246E24263FCE60AA1468F
:1017C000631ED7001840058B11CB5440184863475F
:1017D000D70013070003A38FE4FEFD14B3829240E9
:1017E000232854002247924602457008A2851533EB
:1017F0007D576319E50A7D55A25012548254130196
:10180000C1028280A382C5041716000013068689D0
:101810000C40084313F3050814411105630D03023E
:1018200008C313F7150001C793E505020CC0414733
:10183000A9F20C4093F5F5FD0CC025BF944193E649
:10184000060294C193068007A302D4041716000071
:101850001306868675BF13F3050408C3E30303FC70
:10186000C206C1827DBF171600001306A68321475A
:1018700009B7AA8621BF90411443CC4913730608C7
:10188000138546006306030008C398420CC339A0C1
:1018900008C313760604984275DA0EA323280400C1
:1018A000968489B7144892450245A24726868297B6
:1018B0007D57E302E5F41840098B1DEB724748445D
:1018C000E35CE5F23A850DBF92450245A2478546A5
:1018D0001A863AC81AC68297FD56E30ED5F04247DB
:1018E0003243050754447246918EE34FD7FCF9B753
:1018F000014713039401FDB7511122C22A842E859A
:1019000023AC01C006C4EFE09FF7FD576317F50055
:10191000938781C19C4391C31CC0A24012443101F2
:101920008280511122C22E848395E50006C42D25A4
:10193000634905007C48AA977CC8A2401244310143
:1019400082805E247D777D17F98F5EA4FDB7DE254A
:10195000311122C626C406C893F70710AA842E8424
:101960003283B68291CB8395E50036C232C0894678
:1019700001461921924202435E247D777D17F98F3B
:101980005EA48315E4003244C2402685A2449686B4
:101990001A865101F5A8511122C22E848395E500C3
:1019A00006C4D92EFD575A24631AF500FD77FD179A
:1019B000F98F5EA4A2401244310182808567D98FDD
:1019C0005EA468C8C5BF8395E500E5AA311122C6AB
:1019D00026C406C8AA87AE84328419C5184D09E703
:1019E0002AC0EFF04FDE8247170700001307476653
:1019F0006318E406C043184C18C45A24218B49C309
:101A000018483DCF1848084093F6F40F93F4F40FAC
:101A1000198D5848634AE5003E85A28536C23EC00E
:101A2000CD2C824792463DE1184405057D1718C428
:101A300018401306170010C014A358486308A700E5
:101A40005A24058B01CB29476396E400A2853E8585
:101A5000C9240DEDC24032442685A2445101828042
:101A6000170700001307C7606314E400804761B7DD
:101A7000170700001307C75BE31FE4F6C047A5BFC5
:101A80003E85A2853EC0252882472DDDFD54D9B76D
:101A9000511122C22A842E85B285368623AC01C01C
:101AA00006C4EFE01FD9FD576317F500938781C186
:101AB0009C4391C31CC0A240124431018280411159
:101AC00097E7FF1F9387075C26C2844322C406C69C
:101AD000AA862E8481C89C4C91E72AC02685EFF007
:101AE0008FCE824697070000938787566319F402CA
:101AF000C0400317C40093170701C18313F6870082
:101B00002DEA13F6070105EEA5479CC213670704EB
:101B10005AA47D55B24022449244410182809707E5
:101B200000009387E7546314F4008044D9B7970703
:101B300000009387E74FE31EF4FAC0445DBF918B2A
:101B40008DC74C5899C9930744046386F5003685C0
:101B500036C0A92E8246232A04025E2423220400D2
:101B600093F7B7FD5EA41C481CC05E2493E7870072
:101B70005EA41C4899EB5E241307002093F7072806
:101B80006385E700A2853685B52C5E2413F7170020
:101B90001DC35C4823240400B307F0401CCC1C4840
:101BA0000145ADFB8317C40013F7070825D793E75A
:101BB00007045EA4B9BF898B014791E3584818C454
:101BC000F9BF511122C22A842E8523AC01C006C45C
:101BD0001921FD576317F500938781C19C4391C379
:101BE0001CC0A240124431018280D625311122C688
:101BF00006C826C413F78600AA872E8471EBD84145
:101C0000634BE000B8416348E0000145C240324404
:101C1000A2445101828058546DDB844313963601EF
:101C200023A00700635C060670485A24118B19C76D
:101C30005840198E585819C33840198E58540C50B2
:101C400081463E853EC002977D5756248247631DDC
:101C5000E500904375476368C706370740200507CE
:101C60003357C700058B25C318482322040018C02A
:101C700013973601635807007D576314E5009843B6
:101C800011E368C84C5884C3C9D113074404638462
:101C9000E5003E85212C232A040285BF0C50014615
:101CA0003E8585463EC002977D572A868247E31EC1
:101CB000E5F698433DDBF5466305D700D946631248
:101CC000D70484C399B793E6060456A47D553DBF57
:101CD000984905DF84418D8A98C1998C014691E22B
:101CE000D04910C4E35390F2032384020C503A8687
:101CF0003E85A6863AC23EC002938247124763479A
:101D0000A0005E2493E707045EA4C9B72A97898CD4
:101D1000D1BF9C49A5C3411122C406C62A8419C556
:101D20001C4D89E72EC0EFF00FAA824597070000EF
:101D300093870732639BF5004C408397C50095C796
:101D400022852244B24041014DB597070000938798
:101D500027326394F5000C44CDB7970700009387B2
:101D6000272DE39CF5FC4C44C9BFB24022440145F9
:101D70004101828001458280511122C22A842E8530
:101D8000B285368623AC01C006C4852CFD57631787
:101D9000F500938781C19C4391C31CC0A2401244AB
:101DA00031018280AE878395E5005971A6D286D62F
:101DB000A2D4B28463DB0500DE2723A0060093F7DC
:101DC000070885EB930700403DA01304F1006198DC
:101DD000228636C23EC07D2282479246E34E05FCF3
:101DE0005840BD67F98F7977BA9793B717009CC2AF
:101DF000D1BF93070004B65026549CC001459654A9
:101E000065618280DA25211122C806CA26C6098B9F
:101E10002E8401CF930774041CC01CC885475CC87E
:101E2000D2404244B2446101828034005000AA840E
:101E3000953F92452AC02685EFF04FAF19E98317E9
:101E4000C40013F7072069FFF19B93E727005EA406
:101E5000D1B717F7FFFF1307271298D45A2408C0E9
:101E600008C8136707085AA4124758C8224719CB55
:101E70008315E4002685252A11C55E24F19B93E78E
:101E800017005EA45E240247B364F70046A449BF6E
:101E900093F5F50F2A966314C500014582801C2135
:101EA000E38EB7FE0505C5BF82808280CDC583A7BE
:101EB000C5FF511122C206C426C01384C5FF63D3D7
:101EC00007003E94AA84CD3797E7FF1F9387071C2E
:101ED0009C4389EF2322040097E7FF1F23A8871A5A
:101EE0001244A240268582443101C1B7637EF400CA
:101EF00014403307D4006396E7009843DC433697D9
:101F000018C05CC0D1BFBA87D84319C3E37DE4FED3
:101F100094433386D700631F86001040B29694C363
:101F20003386D700E31EC7FA10435843B29694C3D2
:101F3000D8C37DB76375C400B1479CC055B7104086
:101F4000B306C4006316D70014435843B29614C0B6
:101F500058C0C0C371B78280511122C22A842E8515
:101F6000B285368623AC01C006C47128FD576317BD
:101F7000F500938781C19C4391C31CC0A2401244C9
:101F800031018280511122C22A842E85B28523AC70
:101F900001C006C4B920FD576317F500938781C1BE
:101FA0009C4391C31CC0A240124431018280511154
:101FB00022C22A842E8523AC01C006C40D28FD57F9
:101FC0006317F500938781C19C4391C31CC0A24055
:101FD0001244310182809307800523ACF1C07D5506
:101FE00082809307800523ACF1C07D5582809307E2
:101FF000800523ACF1C0014582809307800523ACA6
:10200000F1C07D5582809307800523ACF1C07D55DA
:102010008280000053797374656D436C6B3A25645C
:102020000D0A0000AE8D142000DA02AF000000009F
:1020300000000000000000000000000000000000A0
:102040000000000000000000000000000000000090
:102050000000000000000000000000000000000080
:102060000000000000000000000000000000000070
:102070000000000000000000000000000000000060
:10208000000000000000000000000000232D302BA5
:1020900020000000686C4C006566674546470000FC
:1020A000303132333435363738394142434445468E
:1020B0000000000030313233343536373839616250
:0820C000636465660000000086
:1020C8003CC04000004495089C0400200204060817
:1020D80000000000010203040102030406070809C6
:1020E800000000004C2000006C2000002C200000A4
:1020F80000000000000000000000000000000000D8
:1021080000000000000000000000000000000000C7
:1021180000000000000000000000000000000000B7
:1021280000000000000000000000000000000000A7
:102138000000000000000000000000000000000097
:0821480020000020200000200F
:00000001FF
