:100000006F005045130000001300000013000000B3
:100010001300000013000000130000001300000094
:100020001300000013000000130000001300000084
:08003000130000007300100032
:100038000000000000000000AA0B0000AC0B00004C
:1000480000000000AE0B00000000000000000000EF
:10005800B00B0000B20B0000000000000000000020
:10006800B40B000000000000B60B00000000000008
:10007800B80B0000BA0B0000BC0B0000BE0B000060
:10008800C00B0000C20B0000C40B0000C60B000030
:10009800C80B0000CA0B0000CC0B0000CE0B000000
:1000A800D00B0000D20B0000D40B0000D60B0000D0
:1000B800D80B0000DA0B0000DC0B0000DE0B0000A0
:1000C800E00B0000E20B0000E40B0000E60B000070
:1000D800E80B0000EA0B0000EC0B0000EE0B000040
:1000E800F00B0000F20B0000F40B0000F60B000010
:1000F800F80B0000FA0B0000FC0B0000FE0B0000E0
:10010800000C0000020C0000040C0000060C0000AB
:10011800080C00000A0C0000000000000C0C000095
:100128000E0C0000100C0000120C0000140C000053
:10013800160C0000180C00001A0C00001C0C000023
:100148001E0C0000200C0000220C0000240C0000F3
:10015800260C0000280C00002A0C00002C0C0000C3
:100168002E0C00000000000000000000000000004D
:10017800000000000000000000000000300C00003B
:10018800000000000000000000000000320C000029
:10019800340C0000360C0000380C00003A0C00004B
:1001A8003C0C00003E0C0000400C0000420C00001B
:1001B800440C0000460C0000480C00004A0C0000EB
:1001C8004C0C00004E0C0000500C0000520C0000BB
:1001D8000000000000000000000000000000000017
:1001E8000000000000000000000000000000000007
:0801F8000000000000000000FF
:10020000511126C022C206C4828282441244A240F6
:10021000310182802A86014593F6150091C23295FC
:1002200085810606F5F9828000000000634E050214
:1002300063C305042E86AA857D5515C2854663785D
:10024000B6006356C00006068606E36CB6FE01459E
:1002500063E4C500918D558D85820582F5FA828013
:100260008682C93F2E8582823305A04063D7050070
:10027000B305B040C1B7B305B0408682653F3305D2
:10028000A0408282868263C70500634905005D370E
:100290002E858282B305B040E35B05FE3305A040A6
:1002A000513F3305B040828200003D432A8763738B
:1002B000C3029377F700BDEFADE5937606FF3D8A65
:1002C000BA960CC34CC30CC74CC74107E36BD7FEAF
:1002D00011E28280B306C3408A0697020000969618
:1002E0006780A6002307B700A306B7002306B70060
:1002F000A305B7002305B700A304B7002304B70084
:10030000A303B7002303B700A302B7002302B7007B
:10031000A301B7002301B700A300B7002300B70073
:10032000828093F5F50F93968500D58D9396050100
:10033000D58D61B793962700970200009696868226
:10034000E78086FA9680C1171D8F3E96E374C3F846
:10035000A5B7B71702409843B706FFF01367170019
:1003600098C3D843758FD8C39843B706F7FEFD16D8
:10037000758F98C39843B706FCFFFD16758F98C319
:10038000D843B70681FFFD16758FD8C337079F0086
:1003900098C737070020832607003777DC0213074A
:1003A00007C06396E606B746024003A706801367B8
:1003B000070123A0E680D843B706C1FFFD16D8C3C6
:1003C000D843D8C3D84313670740D8C3D843758FE1
:1003D000D8C3D843B7061000558FD8C39843B70683
:1003E0000001558F98C3984393166700E3DD06FE1E
:1003F000D843B7160240719BD8C3D8431367270070
:10040000D8C32147DC42B18BE39EE7FE82803747A9
:100410009508130707406397E606B746024003A70F
:1004200006801367070123A0E680D843B706C1FF03
:10043000FD16D8C3D843D8C3D84313670740D8C3E1
:10044000D843758FD8C3D843B7063C00558FD8C35F
:100450009843B7060001558F98C3B71702409843D9
:1004600093166700E3DD06FED843B7160240719B82
:10047000D8C3D84313672700D8C32147DC42B18BC8
:10048000E39EE7FE8280EFF2BFD7B707002003A507
:100490000700B7157A0093850520693B1375F50FA2
:1004A0002389A18093175500898F8A073E950E05F1
:1004B0002398A18099BBEFF2BFD49DCD03D70181D2
:1004C00037F400E05C40AA853A85F99B5CC099331B
:1004D00008C881475CC81C4093E707011CC01C404A
:1004E00093E717021CC0B7F700E0D843058B75DF10
:1004F0009843799B98C311BB03C72181D1B7EFF211
:100500003FD085454D3F11B3EFF29FCF37170240E3
:100510001C4F374401409315250093E747001CCF3B
:10052000B717014083A6478037A593D6711193F67C
:10053000F6F023A2D78083A6478013050540130455
:10054000048093E6060B23A2D7801C4F9166D58FBB
:100550001CCF5A24FD779387379FF98F5EA45E24C2
:1005600093E787005EA4F931930540062AC0D9318C
:10057000824793144500930540063E85D531120508
:10058000930540061305250375313D89458D4205C8
:1005900041810AA45E240967D98F5EA41101B5B117
:1005A000B747014083D707807D8D3335A000828017
:1005B000EFF21FC5611101446345C400328521017A
:1005C000A9B11305000432C22EC0D93F824512469C
:1005D0006DD9B387850003870700B747014005043D
:1005E0001377F71F2392E780C1BF37070020130757
:1005F00047001C43938681813E95636BD500B78687
:1006000000209386068063E5A60008C33E858280AD
:10061000FD57EDBF371602401C4E7D771305F70FCF
:1006200093E747001CCEB717014083A50780E98DEB
:1006300023A0B78083A5078045757D1593E5053018
:1006400023A0B78083A5078193E5450023A8B78041
:1006500083A50780E98D23A0B78083A507800D655A
:10066000C98D23A0B78083A507813705F1FF7D15CC
:1006700093E5850023A8B78083A50780E98D23A093
:10068000B78083A5078037050300C98D23A0B780F5
:1006900083A5078193E5050123A8B78083A607807A
:1006A000B70510FFFD15ED8E23A0D78083A6078028
:1006B000B705B000CD8E23A0D78083A60780B705ED
:1006C00000F1FD15ED8E23A0D78083A60780B70526
:1006D0000004CD8E23A0D78083A60780B70500B085
:1006E0009206918223A0D78083A60780CD8E23A077
:1006F000D7801C4E8566D58F1CCEB737014092231C
:100700009306379F1307F77FF18E93E6763096A313
:10071000D62F758FDAAF1D479AAB9A23136707045C
:100720009AA38280B73701409E277D8D3335A00084
:100730008280EFF2FFACB71701409387078098479C
:1007400071111183058B630BE5000DC5984B136781
:10075000070198CB29452EC05D338245C205C18172
:10076000B7370140CEA71304900C0945653F01C976
:10077000110161BCD84B13670701D8CBE1BF7D14D1
:100780001374F40F7DF001A0EFF29FA7371401401E
:100790008327448129451304048093E787005CC8BC
:1007A000B93B1C48294593E787001CC8893B5C4836
:1007B0008545014593E747005CC8A53F13056009DF
:1007C0003D3BC5450145B5371305F00F0D3B93057E
:1007D00010020145B93F9305A0030145993F954596
:1007E0000545813F9305000E0145A1378945054523
:1007F0008937F1450545353F9D4505451D3FC945AF
:100800000545053F930570030545253793052003EE
:1008100005450537930590020545213F9305D00214
:100820000545013F93059002054521379305500288
:10083000054501379305B0020545E53D9305900355
:100840000545C53D81450545ED3585450545D5350C
:100850008D450545F93DC1450545E13D9305100E22
:100860000145C13D8D450545E935F5450545D13580
:100870009D4505457D3D99450545653D9305E0024E
:100880000545453D9305C002054565359305900234
:10089000054545359305D0020545613D9305E002C8
:1008A0000545413D9305E00205456135930570031B
:1008B000054541359305F0030545A53D81450545B1
:1008C0008D3D81450545B535894505459D35C14574
:1008D00005458535930590020145A13D1305400668
:1008E00039391C4893E747001CC805B2EFF25F9105
:1008F00061112E84AA849305A002014536C032C23C
:100900000D3D814505453535A68505451D35814596
:1009100005450535A2850545293D9305B0020145EC
:10092000093D81450545313512460545B2851135EC
:1009300081450545FD3B82460545B685DD3B2101E8
:100940006FF0BF8CEFF2DF8B71119374F50F1354BE
:1009500085009305C0020145E93B8D679387072F0A
:10096000A68505453EC0F133A2850545D9338247AA
:10097000FD17C207C183EDF711016FF01F89EFF278
:100980003F8837140140832744813683930600FA59
:1009900093E74700232AF4809307A006918F998E4E
:1009A000AA841385A50193F6F60F93F5F70F1A861F
:1009B0001375F50F253F26857137832704811304AE
:1009C000048093E747001CC86FF03F84EFF25F8319
:1009D0000147814601468145014555376FF0FF8249
:1009E000371702401C4FC576FD1693E787001CCFD2
:1009F000B717014003A707C0138607C0758F23A050
:100A0000E7C003A707C08D66558F23A0E7C003A7E3
:100A100007C0B706F1FFFD16758F23A0E7C003A737
:100A200007C0B7060300558F23A0E7C003A707C080
:100A3000B70610FFFD16758F23A0E7C003A707C0F8
:100A4000B7063000558F23A0E7C083A707C193E7FF
:100A500007011CCA8280EFF2AFFAB717014003A763
:100A6000C7C01347870023A6E7C003A7C7C0134723
:100A7000070123A6E7C003A7C7C01347070223A6A1
:100A8000E7C0B53C6FF06FF8EFF28FF781371305D1
:100A9000401FD1371305401F7D3F41642947A946B8
:100AA000154695451305F4FFD93D1305401F6537DD
:100AB0001305401F4D375147D1462946A945130517
:100AC0000480753D1305401F79371305401F6137BA
:100AD0007947F9463D46BD457D4555351305401FCF
:100AE0009D3F1305401F853F130780029306800238
:100AF0005146D1451305007E59351305401FA13FCE
:100B00001305401F893F1307200393062003654602
:100B1000E545130504FEA5351305401F2D3F1305BC
:100B2000401F153F1307C0039306C0037946F945DC
:100B30001305F07FA9351305401F313F1305401FF2
:100B4000193F1307600493066004130630029305EF
:100B500030021305F48125351305401FED3D1305C3
:100B6000401FD53D6FF06FEAEFF28FE9EFF0BF91D4
:100B7000853D716513050520EFF01F99B70700202B
:100B800083A50700372500001305C5EF892A3725FF
:100B900000001305C5F0992CEFF0DFA71305400600
:100BA000EFF0FF95D536CD35FDBF01A001A001A026
:100BB00001A001A001A001A001A001A001A001A02D
:100BC00001A001A001A001A001A001A001A001A01D
:100BD00001A001A001A001A001A001A001A001A00D
:100BE00001A001A001A001A001A001A001A001A0FD
:100BF00001A001A001A001A001A001A001A001A0ED
:100C000001A001A001A001A001A001A001A001A0DC
:100C100001A001A001A001A001A001A001A001A0CC
:100C200001A001A001A001A001A001A001A001A0BC
:100C300001A001A001A001A001A001A001A001A0AC
:100C400001A001A001A001A001A001A001A001A09C
:100C500001A001A097010020938141C117710020DC
:100C60001301413A171500001305C53597F5FF1F0D
:100C7000938545391386818063FAC5008322050078
:100C800023A0550011059105E3EAC5FE1385818077
:100C9000938581816377B500232005001105E36DFD
:100CA000B5FEFD42739002BCAD4273904280B762C4
:100CB00000009382820873A0023097F2FFFF9382B4
:100CC000E23793E2320073905230EFF08FE89702F0
:100CD00000009382A2E97390123473002030130154
:100CE000C1FD3ED02EC832CA36CC3ACE97F7FF1F90
:100CF0009387C73722C4804326C206C6AA8409C484
:100D00001C4C99E32285F5290C441408268622857B
:100D100036C0EF003013B240224492441301410226
:100D20008280411126C206C622C42EC0AA8401C5F3
:100D3000184D11E3F921984C804419E32685D121FF
:100D400017170000130747206312E402C0405A241B
:100D5000218B19C3184821EFA2852685852221C938
:100D60007D55B24022449244410182801717000011
:100D70001307871F6314E4008044D1BF17170000D6
:100D80001307871AE315E4FCC044D1B7824718C49F
:100D900085073EC063580700144C634BD7022947B0
:100DA0006388E50218409306170014C00CA382471D
:100DB00018448C237D17F9F918C463520702228660
:100DC000A94526851D28FD57E30CF5F8294551BF97
:100DD000228626851D207D57E31BE5FC51B71C406C
:100DE0001387170018C0294798A3CDB797F7FF1F9F
:100DF0009387C727AA8588432DB7311122C626C4F9
:100E000006C8AA87AE84328411C5184D01E72AC0EE
:100E1000CD2E824717170000130707136318E40647
:100E2000C043184C18C45A24218B49C318483DCFDD
:100E30001848084093F6F40F93F4F40F198D5848AE
:100E4000634AE5003E85A28536C23EC0692C8247D2
:100E500092463DE1184405057D1718C41840130655
:100E6000170010C014A358486308A7005A24058B24
:100E700001CB29476396E400A2853E85AD240DEDA4
:100E8000C24032442685A2445101828017170000D7
:100E90001307870D6314E400804761B7171700003C
:100EA00013078708E31FE4F6C047A5BF3E85A28568
:100EB0003EC0292082472DDDFD54D9B7411197F757
:100EC000FF1F9387A71A26C2844322C406C6AA8698
:100ED0002E8499C49C4C89E72AC026851D2682460B
:100EE00097170000938747066319F402C040031761
:100EF000C40093170701C18313F687002DEA13F688
:100F0000070105EEA5479CC2136707045AA47D5547
:100F1000B240224492444101828097170000938797
:100F2000A7046314F4008044D9B79717000093878F
:100F3000A7FFE31EF4FAC0445DBF918B8DC74C58E8
:100F400099C9930744046386F500368536C021238A
:100F50008246232A04025E242322040093F7B7FD6D
:100F60005EA41C481CC05E2493E787005EA41C4856
:100F700099EB5E241307002093F707286385E700A9
:100F8000A285368599215E2413F717001DC35C489E
:100F900023240400B307F0401CCC1C480145ADFBE2
:100FA0008317C40013F7070825D793E707045EA447
:100FB000B9BF898B014791E3584818C4F9BFD625BA
:100FC000311122C606C826C413F78600AA872E84CC
:100FD00071EBD841634BE000B8416348E000014544
:100FE000C2403244A2445101828058546DDB844394
:100FF0001396360123A00700635C060670485A2446
:10100000118B19C75840198E585819C33840198E7A
:1010100058540C5081463E853EC002977D57562459
:101020008247631DE500904375476368C70637072D
:10103000402005073357C700058B25C318482322D6
:10104000040018C013973601635807007D576314D6
:10105000E500984311E368C84C5884C3C9D113070D
:1010600044046384E5003E85FD26232A040285BFEF
:101070000C5001463E8585463EC002977D572A8624
:101080008247E31EE5F698433DDBF5466305D7004E
:10109000D9466312D70484C399B793E6060456A4CD
:1010A0007D553DBF984905DF84418D8A98C1998C53
:1010B000014691E2D04910C4E35390F20323840225
:1010C0000C503A863E85A6863AC23EC002938247BD
:1010D00012476347A0005E2493E707045EA4C9B7E4
:1010E0002A97898CD1BF9C49B9CF411122C406C629
:1010F0002A8411C51C4D81E72EC0212282459717F5
:101100000000938767E4639BF5004C408397C5001C
:1011100095C722852244B240410155B5971700007A
:10112000938787E46394F5000C44CDB797170000CC
:10113000938787DFE39CF5FC4C44C9BFB24022444F
:1011400001454101828001458280511122C206C4BD
:101150002A844EA572A523200500232205002324FE
:1011600005002322050623280500232A0500232C39
:101170000500214681451305C505EFF00F9397172C
:1011800000009387C7B75CD0971700009387E7B933
:101190001CD4971700009387C7BD5CD49717000035
:1011A000938727C000D01CD8A2401244310182800E
:1011B00097050000938565F389AA41111386F5FF11
:1011C00022C41314160032940A0432940E042EC062
:1011D0009305440726C206C63D26AA8409CD824748
:1011E000232005003105232CF5FE88C41306840650
:1011F0008145EFF08F8BB240224426859244410115
:1012000082801C4DBDE3511106C422C29707000025
:10121000938747FA1CD597F7FF1F938767E59C4391
:101220002324050423260504232805046314F5005C
:1012300085471CCD2A841D2848C02285052808C45E
:1012400022852D2048C4484001469145FD3D084473
:101250000546A545DD3D48440946C945FD35854758
:101260001CCCA2401244310182808280411197F748
:10127000FF1F9387E7DF22C4804326C206C61C4CAB
:10128000AA8499E32285B53F930784048047D84315
:101290007D1763560700984331CF9C43C5BF831623
:1012A000C400B1E6C1778507232204062320040089
:1012B00023220400232404005CC423280400232ADE
:1012C0000400232C0400214681451305C405EFE0EA
:1012D000DFFD232A0402232C0402232404042326F2
:1012E00004042285B24022449244410182801304C6
:1012F000840679BF914526853EC0C135824788C3A3
:1013000049FDB1479CC00144E9BF111122CA06CC76
:1013100026C8AA862E8613048504814719E4E24074
:101320005244C2443E8571018280044458407D1776
:10133000635407000040DDB7CA24854563F3A50266
:101340000395E400FD55630EB5003685A6853EC6BF
:101350003AC436C232C00296B2472247924602468B
:10136000C98F93848406E1B7AE878395E5005971F0
:10137000A6D286D6A2D4B28463DB0500DE2723A0E2
:10138000060093F707088DEB9307004005A81304A8
:10139000F1006198228636C23EC0EF0010268247D7
:1013A0009246E34D05FC5840BD67F98F7977BA97AF
:1013B00093B717009CC2C9BF93070004B6502654C8
:1013C0009CC00145965465618280DA25211122C8AE
:1013D00006CA26C6098B2E8401CF930774041CC04D
:1013E0001CC885475CC8D2404244B2446101828037
:1013F00034005000AA848D3F92452AC026852122C0
:1014000019E98317C40013F7072071FFF19B93E7D5
:1014100027005EA4D9B7170700001307A7D998D4EF
:101420005A2408C008C8136707085AA4124758C8A6
:10143000224701CF8315E4002685EF00B01E11C5B9
:101440005E24F19B93E717005EA45E240247B36419
:10145000F70046A449BFDDC583A7C5FF511122C2CD
:1014600006C426C01384C5FF63D307003E94AA8434
:10147000EF00102297F7FF1F9387C7BF9C4391EFA0
:101480002322040097F7FF1F23A687BE1244A24021
:101490002685824431016F00D01F637EF400144022
:1014A0003307D4006396E7009843DC43369718C0AF
:1014B0005CC0C9BFBA87D84319C3E37DE4FE944337
:1014C0003386D700631F86001040B29694C33386DC
:1014D000D700E31DC7FA10435843B29694C3D8C34C
:1014E00075B76375C400B1479CC04DB71040B306D3
:1014F000C4006316D70014435843B29614C058C0B2
:10150000C0C369B78280411126C293843500F19827
:1015100006C622C4A104B14763F7F404B14463E6EC
:10152000B4042AC0EF00D016138781801443824789
:10153000368421E41387C180184301EB3E85814541
:101540003EC0792723A6A18082473E85A6853EC05E
:1015500041277D5782476316E506314798C33E858C
:10156000EF00301329A0E3DC04FAB1471CC10145A8
:10157000B24022449244410182801840058F634F5B
:1015800007022D466376E60018C03A9404C031A0E5
:1015900058406393860223A4E1803E85EF00700FDC
:1015A0001305B400130744006199B307E540E9D37C
:1015B0003E94098F18C06DBFD8C2C5B7A2864040FF
:1015C0008DBF130435007198E30285FCB305A44078
:1015D0003E853EC0F52D7D578247E319E5FAB5BF3C
:1015E0001C46FD171CC663DA0700184E63C5E700EA
:1015F000A9476394F5006FF05F801C422E85138726
:10160000170018C28CA38280311122C626C406C8D6
:10161000AA872E873284B304D60063149400014550
:1016200029A80C203A863E853AC23EC0553FFD5659
:10163000050482471247E312D5FEC2403244A24459
:1016400051018280130181F722C1A6DE9307F101C7
:1016500006C32AC032C22E8493F487FF19C5184DE1
:1016600009E736C6EFF0FFB9B246171700001307B7
:10167000A78D6310E40E8247C0435A24218B630C6C
:10168000070E18486DCB1307000298BC1307000320
:1016900023AA0400B8AC36CA12471306500214231A
:1016A00099C26399C60E92473303F7406301030260
:1016B00002459A863E86A2853AC81AC6B137FD56BB
:1016C0006305D520D448324342479A96D4C81423A0
:1016D000638D061E130317007D5723A0040023A665
:1016E0000400D8C023A40400A381040423AC040490
:1016F000834503001546171500001305E5881AC237
:10170000EF008077124394401307130051E513F65E
:10171000060109C613060002A381C40413F686005D
:1017200009C61306B002A381C4048345030013064F
:10173000A0026380C508D4441A878145254510233B
:1017400013031700130606FD6378C50ABDC9D4C488
:101750008DA817170000130727816315E40082473F
:10176000804721BF170700001307077CE317E4F049
:101770008247C04719B70245A28536C6EFF00FF47D
:10178000B246E30205F07D559A400A44F65413012F
:1017900081088280050721B7170600001306C67E60
:1017A0003306C54005453315C500C98E94C03A833C
:1017B00081B752469305460010422ECA634706027F
:1017C000D0C410239306E0026311D60610339306AB
:1017D000A002631ED602D246090713864600944231
:1017E00032CA63C40602D4C089A03306C04093E65F
:1017F0002600D0C494C0F1B7139726003697060789
:10180000B306C70085451A871DBFFD56E9BF05070A
:1018100023A20400814581462545102313031700A8
:10182000130606FD6377C506DDFD0C230D4617057F
:1018300000001305E5753AC28125124711CD9706C0
:1018400000009386E674158D93060004B396A600F7
:1018500088400507558D88C00C239307170019464B
:1018600017050000130505733EC28CAC31252DC54C
:1018700017E7FFFF1307077905EB9440524793F6EC
:1018800006108DC211073ACAD848A2473E97D8C859
:1018900021B51397260036970607B306C70085457E
:1018A0001A87A5BF2107C5B702455808970600004B
:1018B0009386C6D52286A68597000000E700000023
:1018C0002AC4A2477D57E391E7FC5A241377070403
:1018D000E31B07EAC8484DBD0245580897060000BB
:1018E0009386C6D22286A685052AD9BF011126CAAB
:1018F0003283B6849045944922CC06CE2A84AE87A2
:1019000063D3C600B2862320D30003C6370401C6C2
:1019100085062320D300944393F6060291C68326BE
:10192000030089062320D30083A207009383970135
:1019300093F2620063830206904383C637041376F2
:101940000602B336D00041EA13863704A685228505
:101950001AC43EC23AC00297FD566308D5069247A4
:1019600022431145944303260300CC47998A01433F
:1019700002476397A6003383C540635303000143C6
:101980009447904B6354D600918E36938142E90779
:101990006312530601451DA88502D44703260300A0
:1019A000918EE3DBD2F885461E86A68522851AC86D
:1019B0003EC616C41EC23AC00297FD560247924365
:1019C000A242B2474243E319D5FC7D55F24062443E
:1019D000D24405618280B385D70013050003A3813B
:1019E000A50483C55704138616003E968906A301F5
:1019F000B60499BF85463E86A685228516C61AC4BA
:101A00003EC23AC00297FD56E301D5FCB2422243E2
:101A1000924785020247ADBF130141FD22D206D491
:101A200026D032C2902D36C42AC0930690062E844A
:101A300093823504630DD60263E2C60693068005E1
:101A4000630ED61863EDC6006306062293063004C3
:101A5000630CD60A930424042301C4047DA89306CE
:101A600030066303D60A93064006E315D6FE1440FB
:101A7000084313F606089305450055C214410CC3EC
:101A800063D806001307D002B306D040A301E404D4
:101A90001706000013068650294755A8930600072D
:101AA000630AD61663E5C6029306E0066301D61AFA
:101AB0009306F006E310D6FA0C40144313F305081E
:101AC000138546006305030608C39442B5A0930638
:101AD0005007E303D6FE930680076301D6149306EE
:101AE0003007E319D6F614431386460010C3844228
:101AF000D04181452685492619C1058D48C05840E9
:101B000018C8A30104045DA8144393042404138695
:101B1000460010C398422301E4040547D5B713F6E5
:101B2000060414410CC329DEC206C18691BF93F599
:101B3000050408C3D9D996221307F0066301E610FD
:101B400017060000130686452947A30104044C40EC
:101B50000CC463C5050008406D9908C099E29684DD
:101B60009DC99684BA85368516CC32CA3AC836C61F
:101B7000EFE00FEF52464247B24632950C21FD147A
:101B800036858CA0BA85EFE0EFEAB246424752466E
:101B9000E24263FCE60AA146631ED7001840058BAB
:101BA00011CB544018486347D70013070003A38F95
:101BB000E4FEFD14B382924023285400224792464B
:101BC00002457008A2851D337D576319E50A7D55CE
:101BD000A250125482541301C1028280A382C50410
:101BE000170600001306863B0C40084313F3050854
:101BF00014411105630D030208C313F7150001C753
:101C000093E505020CC04147A9F20C4093F5F5FDA0
:101C10000CC025BF944193E6060294C19306800749
:101C2000A302D404170600001306863875BF13F309
:101C3000050408C3E30303FCC206C1827DBF170687
:101C400000001306A635214709B7AA8621BF904197
:101C50001443CC491373060813854600630603003A
:101C600008C398420CC339A008C3137606049842EF
:101C700075DA0EA323280400968489B71448924588
:101C80000245A247268682977D57E302E5F4184075
:101C9000098B1DEB72474844E35CE5F23A850DBFC2
:101CA00092450245A24785461A863AC81AC68297C7
:101CB000FD56E30ED5F042473243050754447246C1
:101CC000918EE34FD7FCF9B7014713039401FDB799
:101CD000511122C22A842E8523AA018006C4EFE076
:101CE000DF90FD576317F500938741819C4391C3B3
:101CF0001CC0A240124431018280511122C22E84A4
:101D00008395E50006C47922634905007C48AA97BB
:101D10007CC8A2401244310182805E247D777D1709
:101D2000F98F5EA4FDB7DE25311122C626C406C890
:101D300093F70710AA842E843283B68291CB8395C1
:101D4000E50036C232C0894601460922924202436A
:101D50005E247D777D17F98F5EA48315E4003244FD
:101D6000C2402685A24496861A86510125A85111A3
:101D700022C22E848395E50006C4C928FD575A2443
:101D8000631AF500FD77FD17F98F5EA4A240124497
:101D9000310182808567D98F5EA468C8C5BF8395ED
:101DA000E50005A8511122C22A842E85B285368607
:101DB00023AA018006C4EFE0AFFFFD576317F500CB
:101DC000938741819C4391C31CC0A24012443101BE
:101DD0008280511122C22A842E8523AA018006C442
:101DE000C520FD576317F500938741819C4391C33C
:101DF0001CC0A240124431018280511122C22A84A7
:101E00002E85B28523AA018006C4C920FD57631719
:101E1000F500938741819C4391C31CC0A2401244AA
:101E200031018280511122C22A842E8523AA018089
:101E300006C45D20FD576317F500938741819C43DD
:101E400091C31CC0A240124431018280511122C2B0
:101E50002A842E85B285368623AA018006C459209D
:101E6000FD576317F500938741819C4391C31CC0C4
:101E7000A24012443101828093F5F50F2A96631433
:101E8000C500014582801C21E38EB7FE0505C5BF54
:101E900082808280511122C22A842E85B2853686A4
:101EA00023AA018006C4A920FD576317F500938774
:101EB00041819C4391C31CC0A240124431018280E5
:101EC0009307800523AAF1807D55828093078005C2
:101ED00023AAF1807D5582809307800523AAF18093
:101EE000014582809307800523AAF1807D55828079
:101EF0009307800523AAF1807D55828053797374FE
:101F0000656D436C6B3A25640D0A000053504920FF
:101F100053543737333520302E3936696E63680DA8
:101F200000000000000000000000000000000000B1
:101F300000000000000000000000000000000000A1
:101F40000000000000000000000000000000000091
:101F50000000000000000000000000000000000081
:101F60000000000000000000000000000000000071
:101F70000000000000000000000000000000000061
:101F800000000000232D302B20000000686C4C0066
:101F900065666745464700003031323334353637A1
:101FA0003839414243444546000000003031323365
:101FB0003435363738396162636465660000000085
:101FC000004495088000002000000000441F00002D
:101FD000641F0000241F000000000000000000003B
:101FE00000000000000000000000000000000000F1
:101FF00000000000000000000000000000000000E1
:1020000000000000000000000000000000000000D0
:1020100000000000000000000000000000000000C0
:102020000000000000000000080000200800002060
:00000001FF
