:020000041000EA
:10000000732D40F163030D0001A081400141814146
:1000100001428142014381430144814401458145BC
:10002000014681460147814701488148014981498C
:10003000014A814A014B814B014C814C014D814D5C
:10004000014E814E014F814F970100709381817B5A
:1000500017010170130101FB97020170938282FA6C
:1000600073905230176500001305C5219705017084
:10007000938545F91706017013068615637CB50054
:1000800063FAC5008322050023A0550011059105E0
:10009000E3EAC5FE176500001305C5069705007065
:1000A000938545F61386019863FAC50083220500FF
:1000B00023A0550011059105E3EAC5FE938201983E
:1000C0001383819E63D6620023A002009102DDBFEC
:1000D000176500001305051B97050010938585F231
:1000E00017060010130606F263FAC5008322050006
:1000F00023A0550011059105E3EAC5FE9702001003
:10010000938242F0170300101303C3EF63D662001B
:1001100023A002009102DDBF056A130A0A80330B97
:100120004141138A819E9382019023A04201330BA7
:100130004B419382819023A0620173600430EF40B1
:0801400030581920AA8201A029
:10014800011106CE22CC0010D124A5269767000005
:10015800938747C69843DC433A85BE8519229305A1
:10016800400617650000130565C1EF40307B232664
:1001780004FEA1A097670000938747C49843DC4317
:10018800370607403A85BE85EF00702D8327C4FEE9
:100198008507BE8517650000130585BFEF401078F9
:1001A8009387C1979C439C473E85EF40D02CA12460
:1001B8008327C4FE85072326F4FE0327C4FE93077E
:1001C8003006E3D9E7FA176500001305A5BCEF5020
:1001D8000006976700009387E7BE9843DC433A859B
:1001E800BE8541209305400617650000130545BBF1
:1001F800EF40D072232404FE99A0976700009387EC
:10020800E7BB9843DC43370607403A85BE85EF00D5
:100218001025832784FE8507BE8517650000130512
:1002280025B7EF40B06F9387C1979C439C473E85A5
:10023800EF407024832784FE85072324F4FE0327D8
:1002480084FE93073006E3DAE7FA17650000130522
:1002580065B4EF40D07D81473E85F2406244056138
:100268008280397106DE22DC80002324A4FC232648
:10027800B4FC97670000938767B59043D443032580
:1002880084FC8325C4FCEF30902D2A87AE87232079
:10029800E4FE2322F4FE976700009387A7B39043F8
:1002A800D443032504FE832544FEEF305015AA8766
:1002B8006341F00297670000938747B29043D443A5
:1002C800032504FE832544FEEF30701EAA8763D4FD
:1002D8000700814721AA976700009387A7B090433A
:1002E800D443032504FE832544FEEF30C0362A8715
:1002F800AE873A85BE85452DAA87231FF4FC89471A
:100308002326F4FE39A80357E4FD8327C4FE335798
:10031800F7408547630DF7008327C4FE850723262A
:10032800F4FE0327C4FEA147E3DFE7FC11A00100A8
:100338000357E4FD8327C4FE3357F740854763041A
:10034800F700814765A00357E4FD8327C4FE3357B0
:10035800F7408327C4FEB317F700231FF4FC835725
:10036800E4FD3E85EF40405E2A87AE873A86BE862A
:10037800032504FE832544FEEF30E02D2A87AE874F
:100388003A85BE8597670000938747A39043D44377
:10039800EF30B0652A87AE873A85BE85EF40A05416
:1003A800AA872324F4FE032784FE85676361F70286
:1003B8008357E4FD8607231FF4FC832784FE858387
:1003C8002324F4FE8327C4FE85072326F4FE83270F
:1003D800C4FEF917232CF4FC832784FEC207C183CB
:1003E800BE85032584FDEF10800085473E85F250C9
:1003F800625421618280411106C622C40008EF10B0
:1004080080060100B240224441018280597186D69B
:10041800A2D4801885472326F4FCB7177A0093875F
:1004280007202328F4FC8947232AF4FC8547232C3A
:10043800F4FC9947232EF4FC91472320F4FE232251
:1004480004FE930700102324F4FE9307C4FC3E85A2
:10045800EF1000032326A4FE0327C4FE8547630587
:10046800F7000545EF40C06381450D45EF10C049D1
:100478002326A4FE0327C4FE85476305F700054528
:10048800EF400062930704F93E85EF003046894744
:100498002326F4FA930704F93E85EF00B0220146BB
:1004A80085450545EF00F0000100B650265465610A
:1004B8008280597186D6A2D480189307C4FA3E85E3
:1004C800EF20D00CF167938707202328F4FA9307CD
:1004D800C4FABE8537850040EF20605D8547232C30
:1004E800F4F88547232EF4F885472320F4FA2324CB
:1004F80004FA232204FA930784F93E868545378552
:100508000840EF00F052232C04F8930784F93E8644
:10051800894537850840EF00B0518545378500404B
:10052800EF20D0100100B650265465618280011179
:1005380022CE00102326A4FE01A00100724405610A
:100548008280011122CE00102326A4FE0327C4FEB8
:1005580085476304F700DD5711A081473E85724443
:1005680005618280011106CE22CC00102326A4FE4C
:100578002324B4FE2322C4FE0327C4FE8547630454
:10058800F700DD5719A8032644FE832584FE378526
:100598000040EF20F010832744FE3E85F24062447D
:1005A80005618280011106CE22CC00102326A4FE0C
:1005B8002324B4FE0327C4FE85476304F700DD57F0
:1005C80009A8130680058145032584FEEF40B01372
:1005D80081473E85F240624405618280011106CE62
:1005E80022CC00102326A4FE0325C4FE893701006F
:1005F800F240624405618280797122D60018232E68
:10060800A4FC8327C4FD2326F4FE938701909C4312
:100618000327C4FD6378F700938701909C43232642
:10062800F4FE2DA0938701909843938781909C4373
:10063800BA970327C4FD63FBE700938701909843AB
:10064800938781909C43BA972326F4FE8327C4FEA0
:100658003E85325445618280011106CE22CC0010BD
:100668002326A4FE0325C4FE953F797106D622D41D
:100678000018232EA4FC938701989C4381EB014525
:10068800A53FAA873E879387019898C393870198C7
:100698009C432326F4FE8327C4FD0327C4FEBA9790
:1006A8002324F4FE832784FE3E85B937AA872322B4
:1006B800F4FE032744FE832784FE631AF70093871A
:1006C8000198032744FE98C38327C4FE11A0FD5751
:1006D8003E85B250225445618280011106CE22CC5B
:1006E80000102326A4FE2324B4FE2322C4FE0326DE
:1006F80044FE832584FE0325C4FEAD35AA873E85C6
:10070800F240624405618280011106CE22CC0010BD
:100718002326A4FE0325C4FE2D35AA873E85F24074
:10072800624405618280011106CE22CC0010232686
:10073800A4FE2324B4FE832584FE0325C4FE9D3530
:10074800AA873E85F240624405618280011106CE87
:1007580022CC00102326A4FE2324B4FE2322C4FEA8
:10076800EF40A0332A87930780051CC3FD573E85B9
:10077800F240624405618280011106CE22CC00104D
:100788002326A4FEEF4060312A87930780051CC307
:10079800FD573E85F240624405618280011106CE14
:1007A80022CC00102326A4FE2324B4FE2322C4FE58
:1007B800EF40A02E2A87930780051CC3FD573E856E
:1007C800F240624405618280011122CE0010232686
:1007D800A4FE0327C4FEB70707406314F700814748
:1007E80015A80327C4FEB78707406314F700854799
:1007F80015A00327C4FEB7870D406314F700894787
:1008080011A80327C4FEB7070E406314F7008D47ED
:1008180011A081473E85724405618280797106D6B0
:1008280022D40018232EA4FC0325C4FD713F2326DF
:10083800A4FE89450325C4FDEF20801DAA87BDCBF2
:1008480089450325C4FDEF20C01F1387819B83279B
:10085800C4FE8A07BA979C432324F4FE1387819C1D
:100868008327C4FE8A07BA979C432322F4FE832772
:1008780084FE91C7832784FE032544FE829713874D
:10088800819D8327C4FE8A07BA979C4385E7014662
:1008980089450325C4FDEF20001D1387819B83270D
:1008A800C4FE8A07BA9723A0070081450325C4FD23
:1008B800EF2040100100B25022544561828041115E
:1008C80006C622C4000837050740893F0100B24028
:1008D800224441018280411106C622C4000837859E
:1008E80007402D3F0100B24022444101828041115E
:1008F80006C622C4000837850D400D370100B240F6
:10090800224441018280411106C622C400083705ED
:100918000E4029370100B24022444101828079719A
:1009280006D622D40018232CA4FC232EB4FC9387CB
:1009380081989C433E85EF4000082A87AE873A8617
:10094800BE86032584FD8325C4FDEF3040412A87F8
:10095800AE872324E4FE2326F4FE975700009387EE
:10096800E7499043D443032584FE8325C4FEEF3032
:100978000029AA876341F0029757000093878748A8
:100988009043D443032584FE8325C4FEEF302032F0
:10099800AA876344F000814711A085473E85B2507D
:1009A800225445618280011106CE22CC00102324F6
:1009B800A4FE2326B4FE975700009387274590434B
:1009C800D443032584FE8325C4FEEF20C0582A871C
:1009D800AE873A85BE85EF301071AA87C207C183FA
:1009E8003E85F240624405618280197186DEA2DC90
:1009F80000012324A4F82326B4F82322C4F89387FB
:100A080081989C433E85EF30107B2A87AE873A86D3
:100A1800BE86032584F88325C4F8EF3040342A873E
:100A2800AE872324E4FE2326F4FE032584F88325D9
:100A3800C4F8F535AA8799E3814785A2975700003E
:100A48009387473D9043D443032584FE8325C4FE02
:100A5800EF2070402A87AE873A85BE85A937AA87D6
:100A68002313F4FE835764FE3E85EF30F06D2A872A
:100A7800AE873A86BE86032584FE8325C4FEEF2012
:100A8800903D2A87AE873A85BE85EF30D065AA8724
:100A98002320F4FE232204FA232404FA232604FA4A
:100AA800232804FA232A04FA232C04FA232E04FA0E
:100AB800232004FC232204FC232404FC232604FC16
:100AC800232804FC232A04FC835764FEFD17C2076D
:100AD800C1832316F4FA832704FE2328F4FA032596
:100AE80044F8EF10F054930744FABE85032544F800
:100AF800EF10304005468945032544F8EF10B076DD
:100B0800975700009387872E9043D4439847DC4734
:100B1800232AC4F8232CD4F8232EE4F82320F4FA4B
:100B2800032544F85531232EA4FC8327C4FD8A07E6
:100B3800130704FFBA9783A747FA232CF4FCB707D7
:100B4800200C23A00700832784FD13871700B7070D
:100B5800200C910798C3832784FD13972700B707B4
:100B6800000C9107BA97054798C3B727000C98431C
:100B7800832784FD85078546B397F600BE86B72789
:100B8800000C558F98C397F00070E780605E85452C
:100B9800032544F8EF10106285473E85F6506654E9
:100BA80009618280397106DE22DC8000232CA4FCD6
:100BB800232EB4FC232AC4FC2328D4FC2326E4FCDB
:100BC800032584FD8325C4FD993BAA8799E38147C2
:100BD80081A80325C4FCCD3E2326A4FE1387819B50
:100BE8008327C4FE8A07BA97032744FD98C313874F
:100BF800819C8327C4FE8A07BA97032704FD98C3FC
:100C08001387819D8327C4FE8A07BA9723A007000C
:100C18000326C4FC032584FD8325C4FDF9338547D9
:100C28003E85F250625421618280011122CE00106B
:100C38002326A4FE9387419823A00700010072444D
:100C480005618280411122C60008010093874198FE
:100C58009C43EDFF010001003244410182800111F3
:100C680006CE22CC00102324A4FE2326B4FE232281
:100C7800C4FE032584FE8325C4FE5531AA8799E363
:100C880081471DA093874198054798C3032744FED1
:100C9800814617060000130686F9032584FE83257E
:100CA800C4FE0937453785473E85F24062440561F1
:100CB8008280397106DE22DC80002326A4FC2324EE
:100CC800B4FC2322C4FC8327C4FC81EB896723245A
:100CD800F4FE91672322F4FE25A00327C4FC854770
:100CE800631AF700930700022324F4FE8567232282
:100CF800F4FE39A085472324F4FE91472322F4FE0D
:100D0800F921832744FC91CBB70706409847B707DA
:100D180006401367270098C701A8B70706409847F9
:100D2800B7070640759B98C7232004FE832784FCD9
:100D380089EFB70706409447832784FE13C7F7FF58
:100D4800B7070640758F98C721A20327C4FC8947B7
:100D58006310F70CA30F04FC75A0B70706409C4767
:100D6800232CF4FC832784FD9D9B232CF4FC8347D0
:100D7800F4FD8E07032784FDD98F232CF4FC032769
:100D880084FD832784FED98F232CF4FCB707064003
:100D9800032784FD98C7232604FE29A8B707064021
:100DA8009847832744FEF98F89EF8327C4FE850778
:100DB8002326F4FE0327C4FE9307703EE3F0E7FE04
:100DC80011A001000327C4FE9307703E63EFE706F6
:100DD800032544FE792E2320A4FE032704FE85471D
:100DE8006307F706B70706409447832784FE13C7AF
:100DF800F7FFB7070640758F98C78347F4FD850747
:100E0800A30FF4FC0347F4FD8D47E3F8E7F489A04A
:100E1800B70706409447B7070640032784FE558F57
:100E280098C7032544FEB1262320A4FE832704FE89
:100E380085E3B70706409447832784FE13C7F7FF67
:100E4800B7070640758F98C721A0010011A00100BF
:100E58007526832704FE3E85F25062542161828004
:100E6800797122D60018232EA4FC8327C4FD89EBB0
:100E7800B707064098479167F98F2324F4FE25A009
:100E88000327C4FD8547631AF700B707064098474C
:100E98008567F98F2324F4FE39A0B70706409C47DD
:100EA800918B2324F4FE832784FE89C78547232654
:100EB800F4FE19A0232604FE8327C4FE3E8532547F
:100EC80045618280797106D622D40018232EA4FCAD
:100ED80081450565EF00F03F8327C4FDD84F89475A
:100EE800631AF7008145B707004013852700EF0014
:100EF800503E31A88327C4FDD84F8D476319F700AA
:100F08008145B707004013851700EF00903CC124C6
:100F1800B7070640DC432326F4FE8327C4FE93F775
:100F280007F82326F4FE8327C4FD9C4399C783272B
:100F3800C4FE93E707042326F4FE8327C4FDDC439D
:100F480099C78327C4FE93E707022326F4FE832765
:100F5800C4FD9C4799C78327C4FE93E787012326CE
:100F6800F4FE8327C4FDDC4799CF8327C4FE93E7AB
:100F780047002326F4FE8327C4FDDC470327C4FE6D
:100F8800D98F2326F4FEB70706400327C4FED8C32B
:100F98008327C4FDDC4F0D47638CE7000D47636B67
:100FA800F7020547638EE70009476387E7001DA03E
:100FB8008D472326F4FE15A089472326F4FE31A881
:100FC80085472326F4FE8327C4FD9853938701970A
:100FD80098C321A0232604FE01008327C4FD9C4B4F
:100FE80099C78327C4FE93E747002326F4FE832787
:100FF800C4FDDC4B89CB0327C4FE85679387078034
:10100800D98F2326F4FE8327C4FD9C4F81CB032769
:10101800C4FEB7070002D98F2326F4FE8327C4FD38
:1010280083C7C7028E073E878327C4FED98F23262E
:10103800F4FE8327C4FD9C5B81EB0327C4FE916704
:10104800D98F2326F4FEB9A08327C4FD9C5B0D47E6
:10105800638AE7020D47636EF70205476386E70078
:101068000947638AE70035A00327C4FE8D67D98F37
:101078002326F4FE05A00327C4FE8967D98F2326FB
:10108800F4FE09A80327C4FE8567D98F2326F4FE3A
:1010980011A00100B70706400327C4FED8C783275D
:1010A800C4FDD453B7070640370710007D17758F66
:1010B80098CF8327C4FD9457B70706403707100019
:1010C8007D17758FD8CBB70706400327C4FD585B3B
:1010D80098CBB70706400327C4FD185FD8CF152A59
:1010E800312A0100B250225445618280011122CE7A
:1010F80000102326A4FE8327C4FE054798C3832730
:10110800C4FE23A207008327C4FE23A60700832763
:10111800C4FE054798CB8327C4FE23AA070083276C
:10112800C4FE23AC07008327C4FE23AE0700832731
:10113800C4FE216798D38327C4FE2167D8D38327A9
:10114800C4FE054798D78327C4FE23860702832752
:10115800C4FE23A807028327C4FE23AA0702832705
:10116800C4FE0567130707E198DF010072440561B3
:101178008280797122D60018232EA4FC232404FE31
:1011880029A8B707064098478327C4FDF98F89EF38
:10119800832784FE85072324F4FE032784FE930710
:1011A800703EE3F0E7FE11A00100032784FE9307D9
:1011B800703E63F5E700232604FE21A08547232619
:1011C800F4FE8327C4FE3E85325445618280411176
:1011D80022C60008B707064037B75585130717AA70
:1011E80098C311A00100B70706409C5393F7070462
:1011F800F5FB01000100324441018280411122C601
:101208000008B707064023A0070001003244410147
:101218008280411122C600080100B70706409C538E
:1012280093F70704FDFB010001003244410182806D
:10123800797106D622D40018232EA4FCAE87232A5F
:10124800C4FC231DF4FC0327C4FDB707084063163C
:10125800F700C1672326F4FE1DA80327C4FDB7873E
:1012680008406317F700B70702002326F4FE05A01D
:101278000327C4FDB70709406317F700B707040041
:101288002326F4FE29A0B70700402326F4FE814553
:101298000325C4FEEF00F00385472315F4FE8D47B0
:1012A8002322F4FE232004FE05AA0357A4FD835736
:1012B800A4FEF98FC207C183638107108327C4FD89
:1012C800DC430357A4FE1347F7FF7D8F8327C4FD34
:1012D800D8C38327C4FDD843832744FD9443832779
:1012E80004FEB397F6005D8F8327C4FDD8C3832718
:1012F800C4FDDC470357A4FE1347F7FF7D8F832700
:10130800C4FDD8C78327C4FDD847832744FD944725
:10131800832704FEB397F6005D8F8327C4FDD8C7E3
:101328008327C4FD9C4B0357A4FE1347F7FF7D8F0B
:101338008327C4FD98CB8327C4FD984B832744FD9E
:10134800D447832704FEB397F6005D8F8327C4FD37
:1013580098CB8327C4FD984F832744FE93C7F7FF94
:101368007D8F8327C4FD98CF8327C4FD984F83279B
:1013780044FD944B832704FE8607B397F6005D8FE0
:101388008327C4FD98CF8327C4FD9847832744FE4D
:1013980093C7F7FF7D8F8327C4FD98C78327C4FDB4
:1013A8009847832744FDD443832704FE8607B397D1
:1013B800F6005D8F8327C4FD98C78357A4FE860770
:1013C8002315F4FE832744FE8A072322F4FE83278D
:1013D80004FE85072320F4FE032704FEBD47E3D659
:1013E800E7EC01000100B2502254456182800111EE
:1013F80006CE22CC00102326A4FEAE872315F4FEC9
:10140800814513050040F125B70705401567130707
:10141800575598C311A00100B7070540DC47858BD5
:10142800FDFBB70705400327C4FED8C311A0010080
:10143800B7070540DC47898BFDFBB7070540035715
:10144800A4FE98C7B70705402D671307A7AA98C336
:10145800B707054035671307C7CC98C30100F240AA
:10146800624405618280411122C60008B707054021
:101478002D671307A7AA98C301003244410182804F
:10148800797106D622D426D20018232EA4FC232450
:1014980004FE8327C4FDD8439387C19898C3832744
:1014A800C4FD9C4389EBB70702409847B707024041
:1014B800799B98C7A5A88327C4FD98438547631AD5
:1014C800F700B70702409847B7070240759B98C7CF
:1014D80009A8B70702409847B707024013672700D3
:1014E80098C7B70702409847B70702401367170025
:1014F80098C7232604FE19A8B70702409C43918B7E
:1015080091EF8327C4FE85072326F4FE0327C4FE34
:10151800E1679387F769E3F1E7FE11A0010003276C
:10152800C4FEE1679387F76963E9E7348327C4FD5D
:101538009C4799C78327C4FD98478547631AF702D4
:101548000145EFF0FF912A878547631AF732832711
:10155800C4FD9C4791E7B7177A009387072029A015
:10156800B7173D0093870790138701991CC305A8F7
:10157800B70702409C43918B638507308327C4FDDE
:10158800984789476316F7008327C4FDDC4329A0E1
:101598008327C4FDDC438583138701991CC3B707E0
:1015A8000240D847B7070240719BD8C7B707024027
:1015B800D4478327C4FD9847B7070240558FD8C73B
:1015C800B7070240DC4713F7470091476313F70456
:1015D800B7070240DC43A18B95E7B7070240DC4719
:1015E8008D8B2322F4FE832744FE91C7032744FEF4
:1015F80085476319F700B707064098478967F98F49
:1016080063830728B7070240D847B70702406D9B96
:10161800D8C7B7070240D843B70702406D9BD8C365
:101628008327C4FDDC4763800710B7070240D8430F
:10163800B70702405D9BD8C38327C4FDD8478547B9
:10164800631FF70037070240B70702405843D8C363
:101658008327C4FDD8439387419998C339A8B7070E
:101668000240D843B707024013678700D8C393875F
:10167800019998439387419998C38327C4FD9C4B4C
:1016880013871700938741999C433307F702B7875D
:1016980093039387077063EAE71EB7070240D843AE
:1016A800B70702401377F78FD8C3B7070240D44370
:1016B8008327C4FD9C4B13978700B7070240558FBB
:1016C800D8C3B7070240D843B7070240136747009B
:1016D800D8C3232604FE19A8B70702409C43898B68
:1016E80091EF8327C4FE85072326F4FE0327C4FE53
:1016F800E1679387F769E3F1E7FE11A0010003278B
:10170800C4FEE1679387F76963E3E7188327C4FD9D
:101718009C4B13871700938741999C433307F70223
:101728009387419998C38327C4FDD84B9147631F7A
:10173800F700B70702409C43898B638C0714938793
:10174800419998439387819998C339A093870199C0
:1017580098439387819998C3B7070240D847B7073A
:1017680002406D9BD8C7B7070240D4478327C4FD02
:10177800D84BB7070240558FD8C7B7070240D8479C
:10178800B70702401377F7F0D8C78327C4FD9C4FEB
:101798003E85EF00D063AA8793964700B7070240BB
:1017A800D847B7070240558FD8C793878199844394
:1017B8008327C4FD9C4F3E85EF00306AAA8733D744
:1017C800F4029387819998C38327C4FDDC4F81EB8A
:1017D8000145EFF0EFE82A878547631EF70AB70748
:1017E8000240D847B70702401377F7CFD8C7B707E3
:1017F8000240D4478327C4FDD84FB7070240558F0E
:10180800D8C79387819998439387419798C383272B
:10181800C4FDDC4F130700306388E704130700306A
:101828006369F70413070020638BE702130700209E
:101838006361F70491C713070010638BE70015A8CD
:101848009387819737177A001307072098C315A045
:101858009387819998439387819798C319A8938709
:101868008197216798C331A093878197216798C38F
:10187800010085472324F4FE05A0010031A80100DA
:1018880021A8010011A8010001A8010031A0010050
:1018980021A0010011A00100832784FEB1EF0146B9
:1018A80085450145EFF0EFC0B7070240D847B707B5
:1018B8000240719BD8C737070240B7070240584714
:1018C800D8C7B7070240D847B70702406D9BD8C7AB
:1018D80037070240B70702405847D8C7B707024042
:1018E800D843B70702406D9BD8C3B7070240984753
:1018F800B7070240799B98C7832784FE3E85B2507C
:101908002254925445618280797122D60018232E80
:10191800A4FC232CB4FC85472322F4FE032784FD72
:101928008D47630CF706032784FD8D4763E8E708B6
:10193800032784FD89476301F704032784FD89474A
:1019480063EEE706832784FD99C7032784FD85474F
:10195800630BF700A5A0232604FE938701999C43F7
:101968002324F4FEA9A885472326F4FE9387C1996A
:101978009C432324F4FEA1A0B70702409C43898B13
:1019880081E7232204FE25A889472326F4FE9387AE
:1019980041999C432324F4FE1DA0B70702409C43B1
:1019A800918B81E7232204FE19A88D472326F4FE94
:1019B8009387C1989C432324F4FE11A001000327B8
:1019C80044FE8547631EF70E0327C4FD8D47630158
:1019D800F70C0327C4FD8D4763E6E70E0327C4FD14
:1019E8008947630EF7060327C4FD894763ECE70CB4
:1019F8008327C4FD99C70327C4FD85476309F702F8
:101A0800D1A0B7070240D84BB70702404D9BD8CBAF
:101A1800B7070240D44BB70702400327C4FE558FCF
:101A2800D8CB9387419A032784FE98C369A8B70740
:101A38000240D84BB70702404D9BD8CBB7070240AE
:101A4800D44B8327C4FE13972700B7070240558F4E
:101A5800D8CB9387019A032784FE98C3ADA0B70714
:101A68000240984BB70702401377F7CF98CBB707D8
:101A78000240944B8327C4FE13978700B7070240A0
:101A8800558F98CB9387819A032784FE98C325A8FE
:101A9800B7070240984BB70702404D9B98CBB70752
:101AA8000240944B8327C4FE13972700B7070240D0
:101AB800558F98CB93878198032784FE98C321A0DC
:101AC800010011A00100832744FE3E853254456180
:101AD8008280397106DE22DC26DA80002326A4FC07
:101AE8002324B4FC0327C4FC8547630EF7000327AF
:101AF800C4FCB70700026308F7000327C4FCB70754
:101B08000004631DF70E032584FCEF001024232E28
:101B1800A4FC0327C4FCB7070004630AF7040327DF
:101B2800C4FCB707000463E0E7060327C4FC854745
:101B38006309F7000327C4FCB7070002630DF70029
:101B480099A0232604FEB70700012322F4FE854747
:101B58002324F4FE15A8A1472326F4FEB7070002A4
:101B68002322F4FEB70700022324F4FE31A8C1475C
:101B78002326F4FEB70700042322F4FEB707000467
:101B88002324F4FE11A00100B7070240D45783278D
:101B9800C4FE1D47B317F70013C7F7FFB707024086
:101BA800758FD8D7B7070240D4578327C4FE0327B9
:101BB800C4FD3317F700B7070240558FD8D7B707CA
:101BC8000240D457B7070240032744FE558FD8D7A1
:101BD800B7070240D44FB7070240032784FE558F4A
:101BE800D8CF938781988443032584FCEF00F0269F
:101BF800AA87B3D7F4022320F4FE91A30327C4FCD9
:101C080089476303F7020327C4FC9147630EF70073
:101C18000327C4FC930700086308F7000327C4FCE4
:101C2800B70700206313F712032584FCEF00F011B7
:101C3800232EA4FC0327C4FCB70700206300F70881
:101C48000327C4FCB707002063E6E7080327C4FCA2
:101C5800930700086308F7040327C4FC93070008E8
:101C680063EAE7060327C4FC89476308F7000327EC
:101C7800C4FC9147630DF700B1A8232604FEB707FB
:101C880000012322F4FE89472324F4FEA9A0A147DA
:101C98002326F4FEB70700022322F4FE91472324EB
:101CA800F4FE15A8C1472326F4FEB7070004232233
:101CB800F4FE930700082324F4FE31A8ED472326F9
:101CC800F4FEB70700402322F4FEB70700202324C0
:101CD800F4FE11A00100B707024094578327C4FE01
:101CE8001D47B317F70013C7F7FFB7070240758FF3
:101CF80098D7B707024094578327C4FE0327C4FD2B
:101D08003317F700B7070240558F98D7B707024037
:101D18009457B7070240032744FE558F98D7B70753
:101D28000240D44FB7070240032784FE558FD8CF0F
:101D3800938781988443032584FCEF001012AA87B7
:101D4800B3D7F4022320F4FEDDAE0327C4FC916769
:101D58006303F7020327C4FCA167630EF700032798
:101D6800C4FCB70700086308F7000327C4FCB707DB
:101D780000106313F712032584FCEF00007D232E67
:101D8800A4FC0327C4FCB70700106300F708032767
:101D9800C4FCB707001063E6E7080327C4FCB707CD
:101DA80000086308F7040327C4FCB707000863EAC0
:101DB800E7060327C4FC91676308F7000327C4FC00
:101DC800A167630DF700B1A8232604FEB707001F1B
:101DD8002322F4FE91672324F4FEA9A0A147232619
:101DE800F4FEB707003E2322F4FEA1672324F4FE85
:101DF80015A8C1472326F4FEB707007C2322F4FE6A
:101E0800B70700082324F4FE31A8CD472326F4FEA3
:101E1800B70700F82322F4FEB70700102324F4FEC6
:101E280011A00100B7070240D4538327C4FE1D4701
:101E3800B317F70013C7F7FFB7070240758FD8D35A
:101E4800B7070240D4538327C4FE0327C4FD3317C2
:101E5800F700B7070240558FD8D3B7070240D453CD
:101E6800B7070240032744FE558FD8D3B70702406F
:101E7800D44FB7070240032784FE558FD8CF9387E6
:101E880081988443032584FCEF00207DAA87B3D77B
:101E9800F4022320F4FE65A40327C4FCB70700401E
:101EA80089076309F7000327C4FCB70700408507C3
:101EB8006315F70C032584FC192F232EA4FC032794
:101EC800C4FCB707004085076301F7020327C4FC79
:101ED800B707004089076311F70291472326F4FEEC
:101EE800930700202322F4FE09A8232604FE930763
:101EF80000102322F4FE11A00100B7070240944FFE
:101F08008327C4FE3D47B317F70013C7F7FFB7078A
:101F18000240758F98CFB7070240944F8327C4FEBD
:101F28000327C4FD3317F700B7070240558F98CF32
:101F3800B7070240944FB7070240032744FE558F66
:101F480098CFB7070240D44FB70702400567558FAF
:101F5800D8CF0327C4FCB707004089076319F700E7
:101F6800B7177A00938707202320F4FEC9AA93871E
:101F7800C1989C432320F4FED9A20327C4FC9307ED
:101F880000106307F7000327C4FC89676313F70E83
:101F9800032584FC2D2D232EA4FC0327C4FC9307C2
:101FA80000106308F7000327C4FC8967630EF70075
:101FB80035A0A1472326F4FE89672322F4FE930760
:101FC80000102324F4FE19A891472326F4FE856700
:101FD8002322F4FE89672324F4FE0100B707024098
:101FE800D44B8327C4FE3D47B317F70013C7F7FF49
:101FF800B7070240758FD8CBB7070240D44B832769
:10200800C4FE0327C4FD3317F700B7070240558FF6
:10201800D8CBB7070240D44BB7070240032744FE8A
:10202800558FD8CBB7070240D44FB70702400327D4
:1020380084FE558FD8CF0327C4FC93070010631E76
:10204800F7009387419A8443032584FC3925AA879E
:10205800B3D7F4022320F4FEDDA09387019A8443CA
:10206800032584FCDD2BAA87B3D7F4022320F4FED2
:10207800F9A00327C4FC930700206318F70603257B
:1020880084FCE121232EA4FCB7070240944BB70738
:10209800024071771307F73F758F98CBB707024057
:1020A800944B8327C4FD1397A700B7070240558FA9
:1020B80098CBB7070240944BB70702400967558F82
:1020C80098CBB7070240D84FB707024013670720DD
:1020D800D8CF9387819A8443032584FCBD2BAA8794
:1020E800B3D7F4022320F4FE99A80327C4FC93076E
:1020F80000026318F702B7070240984BB70702407F
:102108001367070298CBB7070240D84FB7070240BA
:1021180013670702D8CF938781979C432320F4FE47
:1021280039A8B7070240D44FB70702400327C4FCB9
:10213800558FD8CF938781979C432320F4FE83271C
:1021480004FE3E85F2506254D25421618280797136
:1021580022D60018232EA4FC0327C4FD8547630E4E
:10216800F7000327C4FDB70700026308F700032739
:10217800C4FDB7070004631CF7080327C4FDB707AD
:1021880000046305F7040327C4FDB707000463E8E8
:10219800E7040327C4FD85476309F7000327C4FD47
:1021A800B7070002630BF7001DA8B7070001232635
:1021B800F4FE85472324F4FE25A0B7070002232652
:1021C800F4FEB70700022324F4FE19A8B707000499
:1021D8002326F4FEB70700042324F4FE11A001000F
:1021E800B7070240D4578327C4FE13C7F7FFB707C2
:1021F8000240758FD8D7B7070240D44F832784FE93
:1022080013C7F7FFB7070240758FD8CF1DAE032756
:10221800C4FD89476303F7020327C4FD9147630E92
:10222800F7000327C4FD930700086308F700032796
:10223800C4FDB7070020631FF70A0327C4FDB707CB
:1022480000206308F7060327C4FDB707002063EBE7
:10225800E7060327C4FD930700086303F704032771
:10226800C4FD9307000863EFE7040327C4FD89470B
:102278006308F7000327C4FD9147630BF70099A093
:10228800B70700012326F4FE89472324F4FE25A876
:10229800B70700022326F4FE91472324F4FE25A065
:1022A800B70700042326F4FE930700082324F4FE4E
:1022B80019A8B70700402326F4FEB70700202324F7
:1022C800F4FE11A00100B707024094578327C4FE0B
:1022D80013C7F7FFB7070240758F98D7B7070240B3
:1022E800D44F832784FE13C7F7FFB7070240758FC3
:1022F800D8CF81AC0327C4FD91676303F702032796
:10230800C4FDA167630EF7000327C4FDB7070008E3
:102318006308F7000327C4FDB7070010631FF70A17
:102328000327C4FDB70700106308F7060327C4FD99
:10233800B707001063EBE7060327C4FDB7070008DB
:102348006303F7040327C4FDB707000863EFE70436
:102358000327C4FD91676308F7000327C4FDA1673D
:10236800630BF70099A0B707001F2326F4FE9167B7
:102378002324F4FE25A8B707003E2326F4FEA16710
:102388002324F4FE25A0B707007C2326F4FEB70714
:1023980000082324F4FE19A8B70700F82326F4FE42
:1023A800B70700102324F4FE11A00100B70702406C
:1023B800D4538327C4FE13C7F7FFB7070240758FAE
:1023C800D8D3B7070240D44F832784FE13C7F7FF3B
:1023D800B7070240758FD8CFADA20327C4FDB70752
:1023E800004089076309F7000327C4FDB7070040C9
:1023F80085076310F7060327C4FDB7070040850764
:10240800630EF7000327C4FDB70700408907631C64
:10241800F700930700202326F4FE39A09307001045
:102428002326F4FE11A00100B7070240944F83272A
:10243800C4FE13C7F7FFB7070240758F98CFB707D9
:102448000240D44FB70702407D777D17758FD8CFEC
:10245800CDA80327C4FD930700106307F7000327DF
:10246800C4FD89676314F7060327C4FD93070010AA
:102478006308F7000327C4FD8967630BF70005A00D
:1024880089672326F4FE930700102324F4FE01A88D
:1024980085672326F4FE89672324F4FE0100B70725
:1024A8000240D44B8327C4FE13C7F7FFB707024087
:1024B800758FD8CBB7070240D44F832784FE13C744
:1024C800F7FFB7070240758FD8CFA5A80327C4FD2B
:1024D800930700206314F702B7070240944BB7072D
:1024E800024079777D17758F98CBB7070240D84F90
:1024F800B70702401377F7DFD8CFA1A00327C4FDA1
:10250800930700026313F702B7070240984BB70717
:1025180002401377F7FD98CBB7070240D84FB707AB
:1025280002401377F7FDD8CF29A8B7070240D44F48
:102538008327C4FD13C7F7FFB7070240758FD8CFAD
:1025480009A00100325445618280797122D60018B1
:10255800232EA4FC0327C4FD9D4763E1E7068327D8
:10256800C4FD13972700974700009387278BBA97D6
:102578009843974700009387678ABA9782872326EC
:1025880004FE81A085472326F4FE25A88947232633
:10259800F4FE05A88D472326F4FE25A0914723269F
:1025A800F4FE05A095472326F4FE21A89947232683
:1025B800F4FE01A89D472326F4FE21A0232604FE4D
:1025C80001008327C4FE3E853254456182807971BB
:1025D80022D60018232EA4FC0327C4FDA14763E5D7
:1025E800E7068327C4FD13972700974700009387C2
:1025F800E784BA9798439747000093872784BA9748
:102608008287232604FEA1A0A1472326F4FE81A0E9
:10261800A5472326F4FE25A8A9472326F4FE05A8E6
:10262800AD472326F4FE25A0B1472326F4FE05A0D6
:10263800B5472326F4FE21A8B9472326F4FE01A8AE
:10264800BD472326F4FE21A0232604FE010083278C
:10265800C4FE3E85325445618280797122D60018C5
:10266800232EA4FC0327C4FDA14763EAE7068327BA
:10267800C4FD13972700973700009387677EBA97A2
:102688009843973700009387A77DBA978287854735
:102698002326F4FE89A889472326F4FEA9A091479A
:1026A8002326F4FE89A0A1472326F4FE2DA8C147BE
:1026B8002326F4FE0DA8930700022326F4FE25A086
:1026C800930700042326F4FE39A89307000823265D
:1026D800F4FE11A8930700102326F4FE29A08547CD
:1026E8002326F4FE01008327C4FE3E85325445614B
:1026F8008280797106D622D40018232EA4FC232CBC
:10270800B4FC0327C4FDB70707406316F7009167B9
:102718002326F4FE15A80327C4FDB78707406316D0
:10272800F700A1672326F4FE05A00327C4FDB78799
:102738000D406317F700B70700082326F4FE29A009
:10274800B70700102326F4FE832784FD9C43BE852B
:102758000325C4FEEFF0EFB7832784FDD843832712
:10276800C4FD98C3832784FD83D787003E878327CA
:10277800C4FDD8C3832784FDD8478327C4FD98C7E1
:1027880011A001008327C4FDDC47918BFDFB832743
:1027980084FD9C5313971700832784FD9C4F5D8FFE
:1027A800832784FDDC4F5D8F832784FDDC4B5D8FA1
:1027B800832784FD9C4BD98F2324F4FE8327C4FDF3
:1027C800032784FED8C7232404FE832784FD9C5B4B
:1027D80099C7832784FE93E717002324F4FE8327F1
:1027E80084FD9C5B99C7832784FE93E71700232405
:1027F800F4FE832784FD9857832784FDDC539207D2
:10280800D98F032784FED98F2324F4FE8327C4FDA0
:10281800032784FEB8CB11A001008327C4FDDC4741
:10282800918BFDFB01000100B2502254456182806A
:10283800797106D622D40018232EA4FC8327C4FD60
:1028480023A007008327C4FD23A207008327C4FD14
:1028580023A407008327C4FD23A607008327C4FDFC
:1028680023A807008327C4FD23AA07008327C4FDE4
:1028780023AC07008327C4FD23AE07008327C4FDCC
:1028880023A007028327C4FD23A207028327C4FDD0
:1028980023A407028327C4FD23A607028327C4FDB8
:1028A80023A807028327C4FD23AA07028327C4FDA0
:1028B80023AC07028327C4FD23AE07028327C4FD88
:1028C80023A007048327C4FD23A207048327C4FD8C
:1028D80023A407048327C4FD23A607048327C4FD74
:1028E80023A807048327C4FD23AA07048327C4FD5C
:1028F80023AC07048327C4FD23AE07048327C4FD44
:1029080023A007068327C4FD23A207068327C4FD47
:1029180023A407068327C4FD23A607068327C4FD2F
:1029280023A807068327C4FD23AA07068327C4FD17
:1029380023AC07068327C4FD23AE07068327C4FDFF
:1029480023A007088327C4FD23A207088327C4FD03
:1029580023A407088327C4FD23A607080327C4FD6B
:10296800B70707406316F70091672326F4FE15A8FA
:102978000327C4FDB78707406316F700A16723261E
:10298800F4FE05A00327C4FDB7870D406317F700C1
:10299800B70700082326F4FE29A0B707001023264E
:1029A800F4FE0325C4FEEFF08FFA0100B250225462
:1029B80045618280011122CE00102326A4FE232423
:1029C800B4FE11A001008327C4FEDC47918BFDFBF8
:1029D800832784FE91CB8327C4FEDC4713E71700C7
:1029E8008327C4FED8C719A88327C4FEDC4713F77A
:1029F800E7FF8327C4FED8C711A001008327C4FEC0
:102A0800DC47918BFDFB0100010072440561828067
:102A1800797122D60018232EA4FC232CB4FC23267B
:102A280004FE8327C4FDF84B832784FDF98F81C7F3
:102A380085472326F4FE8327C4FE3E85325445612C
:102A48008280011122CE00102326A4FE2324B4FE86
:102A5800832784FE13C7F7FF8327C4FEF8CB010042
:102A6800724405618280011122CE00102326A4FE43
:102A78002324B4FE2322C4FE8327C4FEB84F832731
:102A880084FE93C7F7FF7D8F8327C4FEB8CF8327C3
:102A980044FE91CB8327C4FEB84F832784FE5D8F05
:102AA8008327C4FEB8CF01007244056182805D713E
:102AB80086C6A2C48008232EA4FA232CB4FA0327BE
:102AC800C4FBB78700406316F70089472326F4FE46
:102AD80015A80327C4FBB70701406316F700914701
:102AE8002326F4FE05A00327C4FBB787034063171A
:102AF800F700930700082326F4FE29A0B707002053
:102B08002326F4FE832784FB9C43BE850325C4FE4D
:102B1800EFE03FFC2320A4FE832784FBDC4389836A
:102B2800032704FEB357F702232EF4FC8327C4FDC2
:102B38009983232CF4FC832784FD9A070327C4FD7B
:102B4800B307F740232AF4FC832704FE13972700D2
:102B5800832784FD93966700832744FDB697B35770
:102B6800F7022328F4FC832784FBDC43032704FDB6
:102B7800B307F74013977700832784FBDC43B357E9
:102B8800F7022326F4FC0327C4FC894763F5E70012
:102B9800232404FEEDA28327C4FB032784FDD8D396
:102BA8008327C4FB032744FD98D7232204FE8327E9
:102BB80084FB9C5399C7832744FE93E7170023227D
:102BC800F4FE832784FB9C4B13076008638CE702A1
:102BD80013076008636CF704130720086381E70490
:102BE800130720086364F70409476383E704194758
:102BF8006383E70025A8832744FE93E74700232241
:102C0800F4FE05A8832744FE93E747002322F4FE39
:102C1800832744FE93E707082322F4FE19A8832795
:102C280044FE93E707082322F4FE21A0010011A027
:102C38000100832784FBDC47032744FED98F232226
:102C4800F4FE832784FB9C47032744FED98F232265
:102C5800F4FE832784FBDC4B99C7832744FE93E764
:102C680007012322F4FE8327C4FB032744FED8D799
:102C7800232204FE832784FB9C4F99C7832744FEA5
:102C880093E707102322F4FE832784FBDC4F99C7C0
:102C9800832744FE93E707202322F4FE832784FB3F
:102CA800BC4305476386E7000947638AE70005A830
:102CB800832744FE93E727002322F4FE0DA08327F1
:102CC80044FE93E767002322F4FE032704FEB72798
:102CD8001C003357F7028327C4FB98D301008327CE
:102CE80084FBDC5399C7832744FE93E70708232214
:102CF800F4FE832784FB9C5799C7832744FE93E7F8
:102D080007402322F4FE832784FBDC5789CB032763
:102D180044FE856793870780D98F2322F4FE832793
:102D280084FB9C5B99C7032744FE8567D98F2322C0
:102D3800F4FE832784FBDC5B99C7032744FE89677D
:102D4800D98F2322F4FE832784FB9C5F99C703272E
:102D580044FE9167D98F2322F4FE832784FBDC5F2E
:102D680099C7032744FEA167D98F2322F4FE83273E
:102D7800C4FB032744FE98DB85472324F4FE8327FE
:102D880084FE3E85B640264461618280011122CED0
:102D980000102326A4FE8327C4FE23A00700832750
:102DA800C4FE096713070758D8C38327C4FE13074F
:102DB800000698C78327C4FE23A607008327C4FEFE
:102DC80023A807008327C4FE0547D8CB8327C4FE62
:102DD800054798CF8327C4FE0547D8CF8327C4FE6D
:102DE80023A007028327C4FE23A207028327C4FE69
:102DF80023A407028327C4FE23A607028327C4FE51
:102E080023A807028327C4FE23AA07028327C4FE38
:102E180023AC07028327C4FE23AE07028327C4FE20
:102E280023A007040100724405618280011122CEAB
:102E380000102326A4FE2324B4FE832784FE91CB0E
:102E48008327C4FE9C5B13E717008327C4FE98DB27
:102E580009A88327C4FE9C5B13F7E7FF8327C4FEFA
:102E680098DB0100724405618280011122CE0010B6
:102E78002326A4FEAE872315F4FE11A001008327A4
:102E8800C4FE9C4F93F70702F5FB8357A4FE13F784
:102E9800F71F8327C4FE98C301007244056182802E
:102EA800797106D622D40018232EA4FC232CB4FC56
:102EB800232AC4FC8327C4FDDC5793F70710C1C736
:102EC80089A8832784FD850783C707002317F4FE95
:102ED8008357E4FE86072317F4FE832784FD83C700
:102EE80007001397070141838357E4FEBA97231716
:102EF800F4FE8357E4FEBE850325C4FDBD37832752
:102F080084FD8907232CF4FC832744FDF917232A21
:102F1800F4FC032744FD8547E3E5E7FA05A8832782
:102F280084FD83C70700C207C183BE850325C4FD8E
:102F38002D3F832784FD8507232CF4FC832744FD3C
:102F4800FD17232AF4FC832744FDF1FB0100B2504E
:102F5800225445618280B7071000FD170111B3F8AC
:102F6800B70033F8D70013DE460193D74501135352
:102F7800D60122CC4AC88E081357D5010E0813D49F
:102F8800F50113F9F77F93D5F601137EFE7F06CE80
:102F980026CA4EC633680301B3661701931E35006F
:102FA80013133600B307C9416309B4146354F0120C
:102FB800630C0E18370680001307F07F3368C800CB
:102FC8006301E92A130780036348F7307D476343A9
:102FD800F740130700021D8FB314E8003356F300BF
:102FE8003313E300D18C333360003358F800B3E473
:102FF8006400B3860641B3849E40B3B99E00B3898A
:103008003641B707800033F7F9006309071CFD173D
:10301800B3F9F900638009224E85EF10B0209307B9
:1030280085FF130700021D8F33D7E4003398F9009A
:10303800B3690701B394F40063CD2721B38727410F
:1030480013871700FD4663C7E61693070002998F9A
:10305800B3D6E400B394F400B397F900D58FB33432
:103068009000DD8CB3D9E900014993F7740081CF52
:1030780093F6F40091476388F60093874400B3B44D
:103088009700A699BE84B7068000B3F6D900638B73
:103098000614930719001307F07F6388E7183707AA
:1030A80080FF7D1733F7E9009318D7018D80260735
:1030B800B3E89800318393F7F77FD2077E045D8FDA
:1030C800F240418F6244D2444249B2494685BA85AA
:1030D80005618280C1CBB3072E416318092433E709
:1030E800D601630D07381387F7FF630307481305F5
:1030F800F07F638DA73EBA8781A46356F018630DED
:103108000E08370680001307F07F3368C800630A8B
:10311800E914130780036348F70E7D47635BF730B4
:10312800938407FE1307000233569800638AE7006A
:1031380013070004B307F7403318F800336303019B
:10314800B3346000D18CE1A033676800630B0718C3
:103158001387F7FF630607361306F07F6383C710EC
:10316800BA878DB5130719001377E77F6310072017
:1031780033E7D601B3686800631C0930630D073C68
:1031880063930840131735000D839398D601B3E86D
:10319800E80013D736009DA033676800630307145F
:1031A8001387F7FF6309071E1306F07F6386C7328C
:1031B800BA8785B7851793060002B3D7F900630A63
:1031C800D700930600043387E640B399E900B3E4D7
:1031D8003401B3349000DD8C8149014993F77400C0
:1031E800E39807E88D809398D901B3E8140113D7C1
:1031F8003900CA879306F07F638DD706320731837B
:1032080093F7F77F5DBD33686800B3340001F69427
:10321800B3B9D401B699B7078000B3F7F900DDDF79
:1032280005099307F07F6318F9189307F07F0147A2
:10323800814861B52685EF10E07E930785017D47BB
:10324800E351F7DE930985FFB39934018144E3D74D
:1032580027DF370780FF7D173309F940B3F9E90005
:1032680029B50E059398D6010D81B3E8A80013D7A8
:10327800360033E7E80055DB01449307F07F370752
:10328800080081481DBDBDC7B3072E416305091855
:10329800B70580001307F07FCD8E6304EE26130771
:1032A8008003634BF7267D47634FF734130700020B
:1032B8001D8FB394E60033D6FE003397EE00D18C11
:1032C8003337E000B3D7F600D98C3E989A94B3B957
:1032D8006400C299728981B733686800B334000109
:1032E80019BB0E059398D6010D81B3E8A80013D732
:1032F800360009B79305190013F7E57F631D071416
:1033080033E7D601631309246300072C3367680089
:103318006316072C931835001397D60193D83800F5
:10332800B3E8E80013D73600D1BD3705800013078E
:10333800F07FC98E630CEE1A130780036340F70C05
:103348007D476340F71E130700021D8FB394E60004
:1033580033D6FE00B39EEE00D18CB33ED00133D7F6
:10336800F600B3E4D4013308E84069A8B3846E409A
:1033780033B79E00B3890641B389E9403707800017
:1033880033F7E90063140712B3E83401E39408C87B
:1033980001470144A5B5B3846E0033870601B3BE67
:1033A800D401B309D701B7078000B3F7F90005497D
:1033B800E38607E20949370780FF7D1793D7140092
:1033C800B3F9E9008588DD8C9397F901DD8C93D9F1
:1033D800190061B9938407FE130700023356980059
:1033E800638AE70013070004B307F7403318F800AF
:1033F80033630301B3346000D18CF5BEB3E4D60166
:10340800B3349000B3049340B3399300B3093841FF
:1034180072892E84FDB633E7D601630D071813872A
:10342800F7FF630607209305F07F638CB70CBA8714
:10343800BDB5130700021D8FB314E8003356F3001F
:103448003313E300D18C333360003358F800B3E40E
:103458006400C2966DBB9307F07FE388F5DCB38701
:103468006E00B3B9D70133870601BA999394F9016D
:103478008583DD8C93D919002E898DB30E06931898
:10348800D8010D82B3E8C800135738002E849DB3C5
:1034980031E3638C081A931636009318D8018D828D
:1034A800B3E8D800135738002E84E1B3B304D341EE
:1034B8003308D840B3379300B309F8402E8499BE37
:1034C800B3846E4033870641B3BE9E00B309D7412B
:1034D800054905BEE39208DA931735009398D6019B
:1034E8008D83B3E8F80013D7360061B3931736001D
:1034F8009318D8018D83B3E8F800135738002E8449
:103508008DBB9318360093D838009317D801B3E8C9
:10351800F80013573800B1BBB3E4D601B3349000B8
:1035280075B3938407FE1306000233D79600638AA7
:10353800C70013060004B307F640B396F600B3EECF
:10354800DE00B334D001D98C75BD45DF336868001F
:10355800E31408D251B7E38D08E2131736000D8340
:103568009318D801B3E8E8002E841357380079B1CE
:10357800B304D3413307D840B3379300B309F740B6
:103588002E840549BDBCB3846E4033B79E00B38911
:103598000641B389E9403707800033F7E9004DC396
:1035A800B304D3413307D840B3379300B309F74086
:1035B8002E8465BC131736000D839318D801B3E821
:1035C800E800135738003DB1131736000D839318E0
:1035D800D801B3E8E800135738000DB1B3846E0082
:1035E80033870601B3BED401B309D701B7078000FA
:1035F800B3F7F900E38407BEB70780FFFD17B3F9F7
:10360800F9000549E1BE138707FE1306000233D708
:10361800E600638AC70013060004B307F640B396B2
:10362800F600B3EEDE00B334D001D98C45B1B384D3
:103638006E0033870601B3B76400B309F700A5B37A
:10364800B3E83401E38608D451BE01449307F07F00
:10365800370708009DB4397193D7450122DC26DA73
:1036680056D25ECE9394C50006DE4AD84ED652D4C2
:103678005AD062CC93F7F77F2A84B28BB18093DA61
:10368800F501638F07121307F07F638CE716135B4E
:10369800D5018E04B3649B00370B800033EB6401C3
:1036A800131A3500938917C08144014C93D74601FA
:1036B8001394C60093F7F77F318013D9F601F1C749
:1036C8001307F07F6389E70A1317340013D4DB016B
:1036D800598C938717C037078000598C93953B0006
:1036E800B389F94001453D47B3C62A016363971A78
:1036F80017260000130606798A04B2949840329778
:10370800028756895A84D28562858547630EF516E5
:103718006309051289476307F53E8D476313F51260
:1037280081469307F07F370608000144F25022854E
:10373800D20762541399F601D18FB3E72701D25407
:103748004259B259225A925A025BF24B624CBE85D8
:10375800216182809307F07F01460144C1BF630C59
:10376800072E0546198E9307800363DFC73C814700
:103778000146014465BFB365740193891980CDED95
:1037880093E4240001440945B9BFB3657401C5C178
:10379800630E04302285EF10E028130755FFF54724
:1037A800930585FF998F3314B400B3D7FB005D8C64
:1037B800B395BB00B30735019389373F014525B75A
:1037C80033EBA40063000B0636C66380042C268501
:1037D800EF104025B246930755FF754B130A85FF36
:1037E800330BFB40B3944401335B6401336B9B00A0
:1037F800331A44019307D0C0B389A7408144014CD0
:1038080075B533EBA40063180B00014AA144930972
:10381800F07F094C61BD268B2A8AB1449309F07F59
:103828000D4C69B5014A91448149054C41B593E471
:1038380014000144054545BD93E43400DE850D457B
:103848005DB51387F93FCA86E35BE0F093F775002F
:103858006390072C8D81B7070001E18F99C7B707DF
:1038680000FFFD177D8C138709409307E07FE3C3B2
:10387800E7EE931794001316D4013364B60013D6F9
:10388800C7009377F77F5DB5CA8681470146014433
:1038980071BD63606427630C8B245287FD19DA8439
:1038A800014A9317840093D8070133D4140313D51E
:1038B80085015D8D13130501135303011356070189
:1038C80013988500B3F41403B3078302C204D18CA0
:1038D80063FBF400AA941306F4FF63E5A42663F3DC
:1038E800F4267914AA949D8CB3D714034207418314
:1038F800B3F414033306F302C204D98C63FBC40087
:10390800AA941387F7FF63EDA42263FBC422F91777
:10391800AA944204C1635D8C138EF3FFB375C4018E
:10392800135F0401935E0801337EC801B302CF031D
:103938003387C440B30FBE02B387BE0213D60F014C
:103948009697B297330FDF0363F357001E9FC16545
:10395800FD1513D60701ED8FC207B3F5BF007A96A0
:10396800AE976367C7166303C716B307FA40118F8C
:10397800333AFA00330A47411387F93F6304450D88
:10398800B3551A0313D60701337A1A03330FB30258
:10399800420A336A4601637BEA012A9A1386F5FFD5
:1039A800636BAA206379EA21F9152A9A330AEA4156
:1039B80033561A03C207C183337A1A033303C30287
:1039C800420AB3E7470163FB6700AA979308F6FF2B
:1039D80063E1A71E63FF671C7916AA97C205D18DFC
:1039E8009398050193DF050193D80801338FC80325
:1039F800B3876740B3881E0313560F01338ECF0376
:103A0800F2984696B38EFE036374C601C168C69EDB
:103A180041637D1393580601337666004206337F6F
:103A28006F00C69E7A9663F2D711AA979388F5FF1E
:103A380063EDA71A63ECD719638DD71BC68593E589
:103A4800150019B581458547634FE00CFD55E31A0C
:103A580007D0930910C005469387E9413317F4004E
:103A680033D5C500B397F500B337F000B365A700A9
:103A7800DD8D93F775003354C400638B071093F7FB
:103A8800F50011476390E71021A2EF00B079930782
:103A9800550171472A8BB24613050502E35FF7D239
:103AA80093048BFF331B9400014AA9B35E85EF0092
:103AB800707713075501F146AA8713050502E3D06D
:103AC800E6CEE11781453394FB00EDB1E37FFAE8D8
:103AD800429AB3350A01AA952E979305F4FF637BA2
:103AE800E5046361C70C630DE60A2E84BDBDE36679
:103AF800BADA93571A001317FB0193541B005D8F12
:103B08007E0A45B3CA869307F07F0146014439B956
:103B180093F7F5001146E38FC7D293B7C5FF910518
:103B280093C717008D813E943DB3E39AD7F1E30D17
:103B380006D0E5BDE31BE5FAE3750AFB2E8435B52F
:103B4800BA87C1BB328445B3FD47E3D7C7F0855771
:103B58003387E740930700023357E4006307F60012
:103B68009387E9433314F400C18DB335B000D98D80
:103B780013F47500014639C493F7F5001147014461
:103B8800638DE70293874500B3B5B7002E94BE85D1
:103B9800B7078000E18F95C385470146014479B690
:103BA800E375FAF4429AB3350A01AA9579142E9767
:103BB8006DBB468625B5B285D5BB9317940013D641
:103BC800C70076048D814D8C81478DB693181800F7
:103BD80033B808014295AA97F9154688E391D7E7C3
:103BE800E30406C793E5150085B1C685E38AD7FFC8
:103BF800B9B5E36DC8FCC685E31606FFB1B113D8A5
:103C08004501B7071000FD1793D846011378F87FD0
:103C18001303F07F33FEB7002A87AA8EFD81328F07
:103C2800F58F93F8F87F13D5F601630F6800638268
:103C38006802631F08023367EE00639808025D8E0E
:103C48000DE6014509EF8280B366EE00A9EA6391AB
:103C580008035D8E29E6630808006380A502054510
:103C6800FDD17D5582803367EE0065FB7DD982806A
:103C7800E39508FE5D8E75F2DDB763CD0801E34775
:103C880018FFE3EEC7FD630EFE006378FE00F1D96E
:103C98002E85828079F50545828001458280795597
:103CA8008280E36EDFFB0145E3E3EEFF828013D8F9
:103CB8004501B7071000FD1793D846011378F87F20
:103CC8001303F07F33FEB7002A87AA8EFD81328F57
:103CD800F58F93F8F87F13D5F601630F68006382B8
:103CE8006802631108043367EE00639208025D8E70
:103CF80019EE014505E38280B366EE0085E2639321
:103D080008035D8E01EE3367EE006313080009CBEC
:103D1800638FA5000545E5D17D55828009458280E0
:103D280065DD8280E39608FE5D8E7DF2E5B763D59A
:103D380008017DF105458280E34418FFE3ECC7FDE7
:103D48006309FE006375FE00E1D92E858280014576
:103D58008280E361DFFD0145E3E8EEFF828079714F
:103D680093D7450122D44AD052CC5AC85EC6139480
:103D7800C50006D626D24ECE56CA62C493F7F77F40
:103D88002A89B28B368A318013DBF501638F072CC1
:103D98001307F07F6386E730131734001354D501F7
:103DA800598C37078000598C93143500938A17C0B3
:103DB8008149014C93574A011319CA0093F7F77FB9
:103DC8001359C900135AFA01638507261307F07FB0
:103DD8006381E72E1317390013D9DB013369E90032
:103DE800938717C0370780003369E90093953B0034
:103DF800BE9A814833454B01BD472A8813871A006C
:103E080063EC3707172600001306C60B8A09B29918
:103E180083A60900B296828652884A84AE84468C6C
:103E28008947630EFC028D476301FC048547428580
:103E38006316FC1A01440147814452047E05598CDB
:103E4800498CB250A28522540259F249624AD24A98
:103E5800424BB24B224C2685925445618280428562
:103E68001304F07F01478144C9BF01451304F07F63
:103E7800370708008144D1B7416E9306FEFF93D7F8
:103E8800040113D60501F58CF58DB386B402B38809
:103E9800B70213D306013308960246984293338F2C
:103EA800C70263731301729FC16E9388FEFF337854
:103EB800130193520901B3F6160133791901420827
:103EC800B3882403369813530301B386270313DEFC
:103ED8000801B3849202B694F294B387570263F34D
:103EE800D400F697C1699386F9FF935F0401B3FE86
:103EF800D400758CC180338EF400B3838502B3F887
:103F0800D800C20EC69E7693B307860293D80301E3
:103F1800B385BF02AE97BE983306F60363F3B800C5
:103F28004E96C1649386F4FFB3F7D800B3F3D30079
:103F380093D80801C207B298B30589029E973389BE
:103F48002F0393D60501338482024A943694B38FA3
:103F5800F20363732401A69FC166FD163376D4006D
:103F68004206ED8E3696B305E301B3BED501B3061E
:103F7800C601BE95338FD601B3B7F50033061F01CE
:103F88003303F600B3B6C601B33EDF014180B33751
:103F9800F300B3E6D601B3381601A296B3E7F800EA
:103FA800BE9693949500FE9613547301A606B3E447
:103FB8000401558CB3349000DD81B7070001CD8C26
:103FC8002603E18FB3E464006387072093D71400C6
:103FD80085889316F401DD8CD58C05809307F73F0F
:103FE800635DF01093F6740081CE93F6F4001146E9
:103FF8006388C60093864400B3B496002694B684BA
:10400800B7060001E18E99C6B70700FFFD177D8C42
:10401800930707401307E07F634AF71A13D7340062
:104028009314D4012604D98C1357C40013F4F77FD2
:1040380029B5B3657901C9CD630B090E4A85EF002F
:10404800701E130755FFF547930585FF998F3319A0
:10405800B900B3D7FB0033E92701B395BB00B38799
:10406800AA40938AD7C0814871B3B364A400C9C079
:1040780079CC2285EF00101B130755FFF5479304F1
:1040880085FF998F33149400B357F9005D8CB314EE
:1040980099009307D0C0B38AA7408149014C19BB46
:1040A800B364A400A1E00144A149930AF07F094C3C
:1040B80011B3B3657901938AFA7F85E193E9290001
:1040C8000149894805BB89475A88E31EFCD441BB8E
:1040D80093E919000149854831BB93E93900DE8528
:1040E8008D4809BBAA84B149930AF07F0D4CD9B118
:1040F80001449149814A054C75B985469D8EBDE7B5
:104108001307E741B397E4003317E400B3D4D400AE
:10411800B337F000D98CDD8C13F77400B357D40093
:1041280051CF13F7F40091466314D70841A85E8570
:10413800EF00500F13075501F146AA871305050232
:10414800E3D3E6F0E11781453399FB0009BFEF009F
:10415800700D13075501F146AA8713050502E3DF21
:10416800E6F0E11781443314F90025B713068003FC
:10417800E342D6CC7D46E355D6F80556B307F6405C
:1041880013060002B357F4006387C6001307E7431A
:104198003317E400D98CB3349000DD8C93F77400A6
:1041A8000147A1C313F7F400914681476307D7027B
:1041B80013874400B3349700A697BA843707800062
:1041C8007D8F01CF05440147814485B91304F07FF1
:1041D800014781449DB1568711B5139797003183E4
:1041E800F6078D80DD8C014489B9370810007D18E9
:1041F8000111B377B80013D7450113D346013378BB
:10420800D8008E07135ED50122CC4AC84EC6137952
:10421800F77F0E081377F37F9359D60106CE26CA87
:104228001303F07F13D4F501931E3500B365FE0028
:10423800FD8233E80901131E3600B307E940630421
:10424800671693C616006302D41A635BF0126314F0
:1042580007163367C801630E07321387F7FF630237
:1042680007509306F07F6380D716BA871307800339
:10427800634CF7307D476345F740130700021D8FF5
:10428800B314E800B356FE00331EEE00D58C333E5F
:10429800C0013358F800B3E4C401B3850541B384C1
:1042A8009E40B3B99E00B389354137078000B3F704
:1042B800E900638D071E7D17B3F9E90063870924B8
:1042C8004E858D27930785FF930500029D8DB3D5F5
:1042D800B400B399F900B3E93501B394F40063C4A9
:1042E8002725B3872741938517007D47634CB71867
:1042F800930700028D8F33D7B400B394F400B397BB
:10430800F900D98FB3349000DD8CB3D9B9000149D5
:1043180093F7740081CF93F6F40091476388F60011
:1043280093874400B3B49700A699BE84B70680006B
:10433800B3F6D90063800618130719009307F07FB6
:104348000588630FF71A370880FF7D1833F80901CD
:104358009318D8018D802608B3E898001358C80030
:104368009377F77FD2077E04B3E70701F240C18F46
:104378006244D2444249B2494685BE85056182807D
:10438800DDCBB3072741631D092633E5D501630754
:10439800053A1385F7FF630005469308F07F638CA1
:1043A800173DAA87B5A4B368C801E38C08E863047D
:1043B800D418E357F0FCB70680001307F07F336882
:1043C800D800E315E9EA0E059398D5010D81B3E805
:1043D800A8008D81B3E5B8006383051201449307F3
:1043E800F07F370808008148B5BF6356F0142DCF19
:1043F800B70680001307F07F3368D800E305E9FCAF
:1044080013078003634BF70C7D47635AF72C93849B
:1044180007FE9306000233579800638AD700930675
:104428000004B387F6403318F800336E0E01B33436
:10443800C001D98C7DA0130719001377E77F631C8F
:10444800071833E7D501B368C80163130930630F50
:10445800073A639A083C131735009398D5010D83E2
:10446800B3E8E8008D819DA03367C8016303071294
:104478001387F7FF6308071C9306F07F638AD7301A
:10448800BA87BDBF851713070002B3D7F900638A3F
:10449800E50013070004B305B740B399B900B3E4C6
:1044A8003401B3349000DD8C8149014993F77400DD
:1044B800E39307E68D809398D901B3E8140193D567
:1044C8003900CA871307F07FE386E7F0B20513D8EF
:1044D800C50093F7F77F058871B53368C801B33411
:1044E8000001F694B3B9D401AE99B7078000B3F7C9
:1044F800F900CDDF05099307F07F6314F9160588E5
:104508009307F07F01488148B1BD2685212B930789
:1045180085017D47E35AF7DA930985FFB39934019A
:104528008144E3D027DD370880FF7D183309F9403F
:10453800B3F90901F1BBB5C7B307274163030918EC
:10454800370580009306F07FC98D630CD724930646
:10455800800363C3F626FD4663C6F634930600025D
:104568009D8EB394D50033D6FE00B396DE00D18C71
:10457800B336D000B3D7F500D58C3E98F294B3B9D2
:10458800C401C2993A8995B73368C801B3340001A8
:1045980039B30E059398D5010D81B3E8A8008D8134
:1045A80015B7130719009376E77F639C061433E762
:1045B800D501631C09226309072A3367C801631FF1
:1045C800072A931835001397D50193D83800B3E814
:1045D800E8008D81E5BDB384CE4133B79E00B38931
:1045E8000541B389E9403707800033F7E900631DC7
:1045F8000712B3E83401E39308CC81450144F9B5C7
:10460800B70880001305F07FB3E515016305A71609
:1046180013068003634AF6087D466344F61A1306B8
:1046280000021D8E33D5FE00B394C500B39ECE00A4
:10463800C98CB33ED001B3D7F500B3E4D401330835
:10464800F840BDA0B384CE01C295B3BED401B389EE
:10465800D501B7078000B3F7F9000549E38807E4F7
:104668000949B70580FFFD1593D71400B3F9B900C0
:104678008588DD8C9397F901DD8C93D9190049B9A8
:10468800938407FE9306000233579800638AD70085
:1046980093060004B387F6403318F800336E0E0112
:1046A800B334C001D98CE5BEB3E4D501B33490006E
:1046B800B3049E40B3399E00B30938413A89368421
:1046C800EDB6B3E6D501638706189386F7FF638FC7
:1046D800061E1305F07F6386A70CB6878DBD1307EA
:1046E80000021D8FB314E800B356FE00331EEE001F
:1046F800D58C333EC0013358F800B3E4C401C295E9
:10470800CDB39307F07FE30CF7DE769EB339DE0175
:10471800C295AE999394F901135E1E00B3E4C401E7
:1047280093D919003A8959B3B304DE41B305B840A7
:10473800333E9E00B389C541368449B60E069318A8
:10474800D8010D82B3E8C8009355380036849DBB64
:1047580015EF6392080201449307F07F37080800B9
:1047680011B1B384CE41B3850541B3BE9E00B38970
:10477800D54105491DBE931736009318D8018D837E
:10478800B3E8F800935538003684A9B1E39808C413
:10479800931735009398D5018D83B3E8F8008D8180
:1047A80015B99318360093D838009317D801B3E891
:1047B800F8009355380039B9B3E4D501B334900003
:1047C80075BB938407FE1305000233D69500638AF0
:1047D800A70013050004B307F540B395F500B3EE41
:1047E800BE00B334D001D18CE1B545DF3368C801D0
:1047F800E31608BE71BFB304DE41B305B840333ECB
:104808009E00B389C5413684054945B4E38708DE6F
:10481800131736009318D8010D83B3E8E8009355B1
:104828003800368465B1B384CE4133B79E00B3896E
:104838000541B389E9403707800033F7E90059CFCC
:10484800B304DE41B305B840333E9E00B389C54189
:1048580036847DBC131736009318D8010D83B3E84E
:10486800E80093553800B9B9131736009318D801E2
:104878000D83B3E8E8009355380089B9B384CE01B5
:10488800C295B3BED401B389D501B7078000B3F789
:10489800F900E38D07C0B70780FFFD17B3F9F900EA
:1048A800054929B1938607FE13060002B3D6D50041
:1048B800638AC70013060004B307F640B395F500F2
:1048C800B3EEBE00B334D001D58C4DB9B384CE015C
:1048D800C29533BEC401B389C501A5BBB3E8340191
:1048E800E38D08D0E1B693D74501370610001307CA
:1048F800F6FF93F7F77F1308E03F6D8FAA86FD81D7
:10490800635BF8001308F0413308B8401385F5FFDE
:1049180063C507018280014582800145E5FD1305D5
:1049280030431D8DFD45518F63CAA5009387D7BEBF
:104938003317F70033D5A600598D8280130530410F
:104948001D8D3355A7008280411106C622C426C298
:104958000DCD1357F541B344A700998CAA87268536
:1049680013D4F701C1209307E041898F294793F7B2
:10497800F77F634BA7022D47098F33D7E40055050E
:104988003207B394A400318329A001448147014729
:104998008144D2077E04D98FB240C18F2244268534
:1049A800BE8592444101828055153397A400320791
:1049B80031838144F9BF411122C406C62A841DC926
:1049C80095209307E041898F294793F7F77F634D37
:1049D800A7022D47098F55053357E4003314A40067
:1049E800B2402285320722443183D207D98FBE854F
:1049F80041018280B2402285814722440147D20783
:104A0800D98FBE854101828055153317A400014412
:104A1800B2402285320722443183D207D98FBE851E
:104A280041018280C1676372F5029307F00F130793
:104A3800000263E8A704971700009387A74C3E95E8
:104A4800034505003305A7408280B7070001637E50
:104A5800F500971700009387E74A41813E95034583
:104A6800050041473305A7408280971700009387C8
:104A7800674961813E950345050021473305A740F5
:104A88008280971700009387E74721813E95034569
:104A9800050061473305A740828003A5C19782803E
:104AA800411122C406C6930700002A8491C7814594
:104AB80097000000E7000000171500000325C563F4
:104AC8001C5591C382972285EFB01FB983D7C500C3
:104AD800011122CC26CA06CE4AC84EC613F7870053
:104AE800AA842E8475E3D8416347E000B841634443
:104AF800E000014575A858546DDF856603A90400D8
:104B0800F58F23A00400A5CF68488357C400918B74
:104B180099C75C401D8D5C5899C33C401D8D5C5401
:104B28000C502A86814626858297FD570357C40074
:104B3800631DF5009440F54763E3D708B7074020A5
:104B48008507B3D7D700858BBDCB1C48232204002B
:104B58001CC085677D8F19C7FD576314F5009C40FD
:104B680091E368C84C5823A02401C1D59307440495
:104B78006384F50026852529232A04029DBF0C504D
:104B88008546014626850297FD57E310F5F89C40B7
:104B9800ADDF75476385E70059476395E70023A0B4
:104BA800240181BF8357C40093E707042316F40048
:104BB800F2406244D2444249B24905618280136797
:104BC80007042316E400EDB783A90501E38309F27E
:104BD80003A905008D8B23A035013309394101470D
:104BE80091E3D84918C4E35620F11C540C50CA86E6
:104BF8004E8626858297634AA0008357C4007D5558
:104C080093E707042316F40065B7AA993309A94066
:104C1800D9BF9C49B9CF011122CC06CE2A8411C52F
:104C28001C4D81E72EC60D22B245971700009387C9
:104C3800673F639BF5004C408397C50095C7228565
:104C48006244F240056159B5971700009387873F82
:104C58006394F5000C44CDB7971700009387873A03
:104C6800E39CF5FC4C44C9BFF24062440145056130
:104C7800828001458280AA8511E997050000938505
:104C880085F91715000003252547D1A203A5C1976B
:104C980049B7411122C406C62A842316B500231732
:104CA800C500232005002322050023240500232214
:104CB800050623280500232A0500232C0500214684
:104CC80081451305C5058124970700009387675917
:104CD8005CD0970700009387C75B1CD49707000038
:104CE800938707605CD4970700009387C762B24038
:104CF80000D01CD82244410182809705000093858A
:104D080085F1B1A2411126C2130680069384F5FFEE
:104D1800B384C4024AC02E8922C406C693854407B8
:104D280035262A8419C923200500232225013105A7
:104D380008C4138684068145F922B240228522449C
:104D480092440249410182801C4DBDE3411122C4B5
:104D580006C697070000938787FA1CD52324050405
:104D680023260504232805049717000083A7C738BE
:104D78002A846314F50085471CCD22851D2848C068
:104D88002285052808C422852D2048C448400146AC
:104D98009145013708440546A545E53D484409467F
:104DA800C945C53D8547B2401CCC2244410182809B
:104DB8008280411126C29714000083A4E4339C4CDE
:104DC8004AC006C622C42A8999E32685B53F93843A
:104DD80084048044DC40FD1763D607009C40B1CFB3
:104DE8008440C5BF0317C40031E7C1778507232274
:104DF80004062320040023220400232404005CC4A6
:104E080023280400232A0400232C0400214681457A
:104E18001305C405CD28232A0402232C04022324C5
:104E2800040423260404B240228522449244024901
:104E3800410182801304840679BF91454A85D9359A
:104E480088C02A8451FDB1472320F900E9BF797150
:104E580022D44AD04ECE52CC5AC85EC606D626D2E6
:104E680056CA2A892E8A130485048149054BFD5B9D
:104E78000444832A4400FD1A63D00A0200406DF8F6
:104E8800B250225492540259624AD24A424BB24B0F
:104E98004E85F2494561828083D7C400637BFB005D
:104EA8008397E40063877701A6854A85029AB3E968
:104EB800A90093848406C1B7411122C426C21304F1
:104EC800000093040000818C4AC006C68984014909
:104ED800631199021304000093040000818C8984F3
:104EE8000149631D9900B24022449244024941019C
:104EF80082801C40050911048297D9BF1C4005090E
:104F080011048297F9BF3D432A876373C3029377DD
:104F1800F700BDEFADE5937606FF3D8ABA960CC360
:104F28004CC30CC74CC74107E36BD7FE11E2828024
:104F3800B306C3408A069702000096966780A600CB
:104F48002307B700A306B7002306B700A305B700D9
:104F58002305B700A304B7002304B700A303B700D1
:104F68002303B700A302B7002302B700A301B700C9
:104F78002301B700A300B7002300B700828093F590
:104F8800F50F93968500D58D93960501D58D61B75C
:104F9800939627009702000096968682E78086FA05
:104FA8009680C1171D8F3E96E374C3F8A5B7D1CD7F
:104FB80083A7C5FF011122CC06CE1384C5FF63D396
:104FC80007003E942AC6692D1387C19A1C433245AF
:104FD80081EB2322040000C36244F240056151A51D
:104FE800637DF4001040B306C4006396D700944371
:104FF800DC43B29614C05CC0F9BF3E87DC4399C35A
:10500800E37DF4FE14433306D700631F8600104087
:10501800B29614C33306D700E390C7FC9043DC4331
:10502800B29614C35CC34DBF6375C400B1471CC1BD
:1050380065B71040B306C4006396D7009443DC43B9
:10504800B29614C05CC040C341BF8280011126CA19
:1050580093843500F1984AC806CE22CC4EC6A104E6
:10506800B1472A8963F0F404B14463EFB4024A8576
:10507800C52B9386C19A98423A8431E01384019BE8
:105088001C4089E781454A857D2208C0A6854A8556
:105098005D22FD5963183507B1472320F9004A8579
:1050A800C92331A0E3D304FCB1472320F90001450B
:1050B800F2406244D2444249B249056182801C40B0
:1050C800858F63CE07022D466376F6001CC03E949A
:1050D80004C029A05C40631287029CC24A85512300
:1050E8001305B4009307440061993307F540E301C1
:1050F800F5FC3A94898F1CC065BF5CC3C5B722878D
:105108004040A5BF130435007198E30385FCB3053F
:10511800A4404A850D22E31D35FBBDBF5D7122D435
:1051280006D62A842EDA32DC36DEBAC0BEC2C2C443
:10513800C6C603A5C19711C51C4D81E72AC62931EA
:1051480032450C455418228636CE5123B25022548B
:1051580061618280011126CA4AC806CE22CC4EC699
:1051680052C4AA842E8901C51C4D91E3F13E9C4C82
:10517800804499E32685C93E97170000938787EAFC
:10518800631CF402C0408357C400A18BB1C71C48FC
:10519800A1C7FD59294A1C4483450900FD17B1E9F7
:1051A8001CC463DE07062286A9452685B522FD575D
:1051B8006308F502294535A097170000938787E80B
:1051C8006314F4008044C1B797170000938787E3FE
:1051D800E31BF4FAC04445BFA28526853D2455D972
:1051E8007D55F2406244D2444249B249224A05619F
:1051F80082801CC4050963D70700184C63CBE700FD
:10520800638945011C401387170018C02380B70025
:1052180059B7228626850922E31F35F7D1B71C40E6
:105228001387170018C029472380E70061B7AA85AC
:1052380003A5C19705B7411122C42A842E8523AA44
:10524800019A06C6EFB06FC2FD576316F50083A733
:10525800419B91C31CC0B24022444101828041114C
:1052680022C42E848395E50006C6E52D6349050012
:105278007C48AA977CC8B240224441018280835767
:10528800C4007D777D17F98F2316F400EDB783D717
:10529800C500011122CC26CA4AC84EC606CE93F7CD
:1052A8000710AA842E843289B68991C78395E500B0
:1052B8008946014661248357C4007D777D17F98F9D
:1052C8008315E4002316F4006244F240CE864A8631
:1052D800B24942492685D244056111A2411122C42E
:1052E8002E848395E50006C6912CFD570357C4000C
:1052F800631BF500FD77FD17F98F2316F400B24004
:105308002244410182808567D98F2316F40068C83A
:10531800FDB78395E500FDAA011122CC26CA4AC82B
:1053280006CE4EC6AA842E89328409C51C4D99E33F
:10533800EFF09FA1971700009387C7CE631BF40671
:10534800C0401C4C1CC48357C400A18BD9C31C4843
:10535800C9C31C4808409379F90F1379F90F1D8DBB
:105368005C486347F500A2852685EFF09F8A35E5FE
:105378001C440505FD171CC41C401387170018C0E2
:10538800238037015C486389A7008357C400858B55
:1053980089CBA9476317F900A2852685EFF07F8797
:1053A8000DEDF2406244D244B2494A854249056152
:1053B8008280971700009387E7C86314F40080443D
:1053C80049B7971700009387E7C3E31CF4F6C04476
:1053D8008DBFA285268515282DDD7D59D9B74111A8
:1053E80022C42A842E85B285368623AA019A06C647
:1053F800EFB0AFAEFD576316F50083A7419B91C38D
:105408001CC0B240224441018280411122C426C2FC
:105418004AC006C683A4C1972A892E8491C49C4C8D
:1054280081E72685EFF05F9297170000938787BF83
:105438006317F402C0408317C4001397070193F65B
:1054480087004183B5EA9376070195EA254723202B
:10545800E90093E707042316F4007D5579A8971708
:105468000000938727BE6314F4008044E9B79717B8
:105478000000938727B9E310F4FCC0446DBF118B7B
:1054880015C74C5891C9930744046385F5004A85AC
:10549800EFF0FFB1232A04028357C400232204003B
:1054A80093F7B7FD2316F4001C481CC08357C400AB
:1054B80093E787002316F4001C4881EF8357C40044
:1054C8001307002093F707286385E700A2854A851C
:1054D800CD288317C4001397070193F6170041835B
:1054E8009DC2544823240400B306D04014CC144869
:1054F800014581E61377070829FFB2402244924408
:1055080002494101828093762700014691E2504882
:1055180010C4F1BF411122C42A842E8523AA019AFE
:1055280006C6EFB06F9EFD576316F50083A7419B33
:1055380091C31CC0B240224441018280411122C45F
:105548002A842E85B285368623AA019A06C6EFB02C
:10555800EFA4FD576316F50083A7419B91C31CC0B8
:10556800B2402244410182805971CAD02E89839564
:10557800E500A2D4A6D286D63284B68463DC0500C0
:105588008317C90023A0040093F707088DE3930746
:10559800004005A03000E52EE34405FE3247BD6714
:1055A800F98F7977BA9793B717009CC0CDB793074F
:1055B8000004B6501CC0265496540659014565612E
:1055C800828083D7C500011122CC06CE26CA4AC8DC
:1055D800898B2E8489CF930774041CC01CC8854707
:1055E8005CC8F2406244D24442490561828074003A
:1055F80030002A89953FA245AA844A85EFF01FA565
:1056080001ED8317C40013F7072061FFF19B93E7AF
:1056180027002316F400C1B797F7FFFF9387276E7B
:105628002324F9028357C40008C008C893E7070871
:105638002316F400A2475CC8B24789CF8315E4005B
:105648004A859D2E01C98357C400F19B93E7170033
:105658002316F4000355C400C98C2316940051B7CF
:10566800828082801C46FD171CC663D90700184E2D
:1056780063C5E700A9476393F50079B91C422E85F5
:105688001387170018C22380B7008280011122CC2B
:1056980026CA4AC84EC652C406CE2A89AE89328462
:1056A800B304D6007D5A63149400014509A88345C4
:1056B80004004E864A857D370504E31645FFF2400F
:1056C8006244D2444249B249224A05618280357116
:1056D80022CD26CB4AC94EC706CF52C556C35AC19A
:1056E800DEDEE2DCE6DAAA89AE843289368409C5D0
:1056F8001C4D99E3EFF04FE59717000093878792C9
:10570800639BF40C83A4490083D7C400A18BF5C71D
:105718009C48E5C793070002A304F102930700031E
:1057280002D22305F10222C6930B5002971A0000F9
:10573800938A4A93054C294B4A848347040099C3AA
:10574800639F770DB30C2441630D2401E6864A86D6
:10575800A6854E85253FFD576303F51E9257E697AC
:105768003ED283470400638C071CFD5713091400BD
:1057780002C802CE3ECA02CCA309010482D48345E2
:10578800090015465685A92CC2471304190051E98A
:1057980013F7070109C713070002A309E10413F768
:1057A800870009C71307B002A309E104834609006B
:1057B8001307A002638FE606F2474A84814625460E
:1057C8000347040093051400130707FD6378E60AEE
:1057D800ADCA3ECEBDA0971700009387A7866395F4
:1057E800F40083A489000DB7971700009387878179
:1057F800E39CF4F083A4C90001BFA6854E8531312E
:1058080011D97D55FA406A44DA444A49BA492A4AC4
:105818009A4A0A4BF65B665CD65C0D618280050489
:1058280029BF330555413315AC00C98F3EC82289BD
:10583800B9B7324793064700184336C6634907028B
:105848003ACE034704009307E002631FF7040347B7
:1058580014009307A002631BF702B24709041387D9
:1058680047009C433AC663C107023ECA35A83307BE
:10587800E04093E727003ACE3EC8E1B7B387670315
:105888002E848546BA972DBFFD57C5B7050402CAB1
:1058980081468147254603470400930514001307F2
:1058A80007FD6374E606F1F2834504000D4617050B
:1058B80000001305A57B2D2211CD970700009387C3
:1058C800E77A1D8D93070004B397A70042450504A6
:1058D8005D8D2AC883450400194617050000130585
:1058E8002579130914002304B102DD282DC193077B
:1058F800000095E74247B2471377071009CF910791
:105908003EC69257D2973ED205BDB38767032E8411
:105918008546BA9749B79D07E19BA107D5B7780097
:10592800970600009386C6D626860C084E859700F3
:105938000000E7000000FD572A8AE314F5FC83D72E
:10594800C40093F70704E39E07EA125565BD780083
:10595800970600009386C6D326860C084E856522D6
:10596800D9BF411122C42A842E85B285368623AA3E
:10597800019A06C6EFA09FDDFD576316F50083A7C1
:10598800419B91C31CC0B240224441018280411115
:1059980022C42A842E85B28523AA019A06C6EFA0BE
:1059A8009FD8FD576316F50083A7419B91C31CC080
:1059B800B240224441018280411122C42A842E85AA
:1059C80023AA019A06C6EFA03FDBFD576316F50030
:1059D80083A7419B91C31CC0B240224441018280ED
:1059E80093F5F50F2A966314C50001458280834715
:1059F8000500E38DB7FE0505FDB7797152CC9C49CA
:105A08003A8A984522D426D24ECE56CA06D64AD0CD
:105A18005AC85EC6AA892E84B284B68A63D3E700C0
:105A2800BA879CC00347340419C385079CC01C402F
:105A380093F7070281C79C4089079CC0032904008B
:105A480013796900631A0900130B9401FD5B5C4428
:105A58009840998F634CF90483473404B336F000B7
:105A68001C4093F70702A5EB13063404D6854E8530
:105A7800029AFD576303F5041C4011469840998B20
:105A8800544481446397C700B384E64063D3040059
:105A980081441C4418486354F700998FBE94014907
:105AA80069047D5B63982405014509A885465A86E3
:105AB800D6854E85029A631E75017D55B2502254D3
:105AC80092540259F249624AD24A424BB24B45615A
