:100000006F10602A130000001300000013000000AE
:100010001300000013000000130000001300000094
:100020001300000013000000130000001300000084
:08003000130000007300100032
:100038000000000000000000A60A0000AA0A000054
:100048000000000000120000000000000000000096
:10005800021200000412000000000000000000006E
:100068000612000000000000081200000000000056
:100078000A1200000C1200000E120000AC0A000068
:1000880012120000141200001612000018120000CC
:100098001A1200001C1200001E120000201200009C
:1000A800221200002412000026120000281200006C
:1000B8002A1200002C1200002E120000301200003C
:1000C800321200003412000036120000381200000C
:1000D8003A1200003C1200003E12000040120000DC
:1000E80042120000441200004612000048120000AC
:1000F8004A1200004C1200004E120000501200007C
:10010800521200005412000056120000581200004B
:100118005A1200005C120000000000005E1200008D
:1001280060120000621200006412000066120000F3
:10013800681200006A1200006C1200006E120000C3
:100148007012000072120000741200007612000093
:10015800781200007A1200007C1200007E12000063
:1001680080120000000000000000000000000000F5
:1001780000000000000000000000000082120000E3
:1001880000000000000000000000000084120000D1
:1001980086120000881200008A1200008C120000EB
:1001A8008E120000901200009212000094120000BB
:1001B80096120000981200009A1200009C1200008B
:1001C8009E120000A0120000A2120000A41200005B
:1001D8000000000000000000000000000000000017
:1001E8000000000000000000000000000000000007
:0801F8000000000000000000FF
:10020000511126C022C206C4828282441244A240F6
:10021000310182802A86014593F6150091C23295FC
:1002200085810606F5F9828000000000634E050214
:1002300063C305042E86AA857D5515C2854663785D
:10024000B6006356C00006068606E36CB6FE01459E
:1002500063E4C500918D558D85820582F5FA828013
:100260008682C93F2E8582823305A04063D7050070
:10027000B305B040C1B7B305B0408682653F3305D2
:10028000A0408282868263C70500634905005D370E
:100290002E858282B305B040E35B05FE3305A040A6
:1002A000513F3305B040828200003D432A8763738B
:1002B000C3029377F700BDEFADE5937606FF3D8A65
:1002C000BA960CC34CC30CC74CC74107E36BD7FEAF
:1002D00011E28280B306C3408A0697020000969618
:1002E0006780A6002307B700A306B7002306B70060
:1002F000A305B7002305B700A304B7002304B70084
:10030000A303B7002303B700A302B7002302B7007B
:10031000A301B7002301B700A300B7002300B70073
:10032000828093F5F50F93968500D58D9396050100
:10033000D58D61B793962700970200009696868226
:10034000E78086FA9680C1171D8F3E96E374C3F846
:10035000A5B7371702401C4FC576FD1693E78700F7
:100360001CCFB717014003A707C0758F23A0E7C0B4
:1003700003A707C08D66558F23A0E7C003A707C05A
:10038000B706F1FFFD16758F23A0E7C003A707C0CE
:10039000B7060300558F23A0E7C003A707C1B70620
:1003A00010FFFD161367070123A8E7C003A707C0C6
:1003B000758F23A0E7C003A707C0B7063000558F8D
:1003C00023A0E7C08280EFF2BFE3B717014003A785
:1003D000C7C01347870023A6E7C003A7C7C01347BA
:1003E000070123A6E7C003A7C7C01347070223A638
:1003F000E7C0EF00807111BD137735000DE7EFF214
:100400003FE0930540062A84A13D93170501C1836F
:10041000054589EB930500192285993542054181EF
:1004200013351500DDB3014582801303E5844203D3
:10043000135303019302100863EB620EEFF25FDCCB
:1004400011113EC6BA8432C42AC001449307207BEE
:100450000246631BF606FD1513F7F50F3AC2096352
:10046000556781471303C35B13070718124693921E
:10047000070193D2020163E1C20813974400B24717
:10048000B3049740139536008A04BE94158DA24795
:100490001605AA96D56592061385F7FF938505186C
:1004A000B6948D3B8545AA9437050018EF00D00E11
:1004B0000545EF009048A2942685EF009037EF00A5
:1004C000F03E0145710191B33E8536CA2EC83EC249
:1004D0002537B786E2013737E1011383065092478B
:1004E00013070738C245D24611C51A948507C207BB
:1004F000C183B9BF3A94DDBF3305F3000821BA8543
:1005000036CC3EC816CA39332A940245F535D5672C
:100510001387071889671383C75B8543C247E24681
:1005200009C5D242639372003A94850781B70545A5
:1005300082801303E58442031353030193021008DE
:1005400063EB620EEFF2DFCB11113EC6BA8432C408
:100550002AC001449307207B0246631BF606FD1563
:1005600013F7F50F3AC20963556781471303C35B5D
:100570001307071812469392070193D2020163E111
:10058000C20813974400B247B3049740139536004E
:100590008A04BE94158DA2471605AA96D5659206C3
:1005A0001385F7FF93850518B694AD318545AA9458
:1005B00037050018EF00407E0545EF001038A29483
:1005C0002685EF00302CEF00702E0145710135B902
:1005D0003E8536CA2EC83EC20535B786E20137379A
:1005E000E10113830650924713070738C245D246EC
:1005F00011C51A948507C207C183B9BF3A94DDBFFC
:100600003305F3000821BA8536CC3EC816CA193125
:100610002A940245D533D567138707188967138352
:10062000C75B8543C247E24609C5D2426393720065
:100630003A94850781B705458280EFF27FBC61114E
:100640002EC093054006B2842AC21939124713748A
:10065000F50F930540063A85F13E1375F50F4D47AA
:100660006376A7009307440613F4F70F135524008D
:100670009D452295F536824709671307875C3E97AB
:100680000346F7FF93773400B294269542054181E3
:1006900081EB0247894763E5E7007D15420541810B
:1006A0009D457D3E1375F50F210185B6EFF25FB5CF
:1006B0006111EF00B014D56593850518AA849D3E9D
:1006C0009387A1819A23630FA7048AA32A8493079F
:1006D000207B1307C016637587023E853EC0293B09
:1006E00082471307C0169306D016850751C56307C6
:1006F000D400130424E9C207C183F1BFC207C18338
:10070000138701815EA3ED4501479387018193061D
:10071000170063E6850693F6F60F0504F4A3137439
:10072000F40FE0B3D565938505182685153E8564DD
:10073000938504E12AC0FD3C82471384018113752F
:10074000F50F08A0938504E13E85193E9305C0038B
:10075000AA84CD341375F50F08B09305C003268520
:1007600001361375F50F28A04A206C207030F13542
:1007700008A40145210151BC130434E9ADBFCA23CB
:1007800036C23AC095390966938701810247ED4523
:1007900092461306C65B0543F14211C9631967000F
:1007A000E30B54F60D141397060141838DB732976E
:1007B0001823E362E4F6198CFDB7EFF27FA4611110
:1007C000854537050018C92B0545EF00101705456D
:1007D0009121014413051004F92B9307A00F01ED9B
:1007E0006315F400054521010DB40504514513744A
:1007F000F40F212EC5B70545E307F4FE13050010DD
:10080000352905459121EF00700AEF00300B854531
:100810000945EF00607A85450545EF00E079EF0076
:10082000F008B7770040938707C0DE2329641304DC
:10083000341A6309F402EF00C07921657D15EF00D9
:10084000D001EF00B0069D459307B0035147B9466C
:1008500051461305707ED13EEF00C078A285114548
:10086000EF00F00B02C0CD475C800A8585473EC291
:10087000EF00700E253D0145BDB7EFF27F98611185
:100880000945EF00F00C5922B924E13471651305D4
:1008900005206D2CB707002083A507013725000030
:1008A00013050555EF00D028EF006070AA853725A5
:1008B000000013050556EF00B0273725000013058B
:1008C0000557EF00D037D53D81470147C546514612
:1008D0009D451305707EB139138401811305A00F66
:1008E000DD341305A00FC5341305A00FE93C130533
:1008F000A00FD13C372500001305C557EF00303459
:100900004E207020743018241C200830034324002B
:100910002AC0372500001AC21305055AEF005021DE
:1009200075BFB71702409843B706FFF06111136710
:10093000170098C3D84337060200758FD8C3984371
:10094000B706F7FEFD16758F98C39843B706FCFFF0
:10095000FD16758F98C3D843B70681FFFD16758FB6
:10096000D8C337079F0098C702C002C29843C16628
:10097000558F98C3B716024005679C42F18F3EC25F
:10098000824785073EC0924781E78247E397E7FEAB
:10099000B71702409C431397E70063570706854744
:1009A0003EC212478547631FF704B7170240D8437A
:1009B000B706C1FFFD16D8C3D843D8C3D8431367C1
:1009C0000740D8C3D843758FD8C3D843B70629008A
:1009D000558FD8C39843B7060001558F98C39843E5
:1009E00093166700E3DD06FED843B7160240719BFD
:1009F000D8C3D84313672700D8C32147DC42B18B43
:100A0000E39EE7FE2101828002C261BFEFF24FFF49
:100A1000371702405C43370400209146B18B130422
:100A200004016385D700A1466389D702B7177A000E
:100A3000938707201CC0B7170240DC43918313F74C
:100A4000F700B707002093870700BA9798231C4048
:100A5000B3D7E7001CC06FF04FFB48435C434167CE
:100A600049813D89F98F090545476313E5004945EB
:100A700081EFB747024083A70780C18B89CFB715A5
:100A80007A009385052021A8B7170240DC4313970D
:100A9000E700E35607FEB7153D0093850590EFF09C
:100AA0006FF708C049BF7300203001A005459925A4
:100AB00011C1ED3E09453D2D11C937250000130533
:100AC000455DEF00D0170945B125CD36154599256F
:100AD000F12B73002030EFF2AFF2B707002003A52F
:100AE0000701B7157A0093850520EFF0AFF4137571
:100AF000F50F238FA18093175500898F8A073E95A4
:100B00000E05239EA1806FF04FF0EFF26FEF37F4E8
:100B100000E05C40AA85F99B5CC003D5C181EFF081
:100B20006FEF08C881475CC81C4093E707011CC0F1
:100B30001C4093E717021CC0B7F700E0D843058BB1
:100B400075DF9843799B98C36FF02FECEFF24FEB72
:100B50002A8411651111854511050524930700208C
:100B60007C80371501408D473EC28A85E1471305D9
:100B700005803EC4952622C637440140B7070800C9
:100B80006C00130504803ECA02C8231C0100992C86
:100B9000854513050480292E71016FF00FE7EFF2F0
:100BA0002FE67111AE840144635DC402B747014072
:100BB000138707803A859305000432C0092EB74792
:100BC000014013870780024675D53387840083056B
:100BD0000700138507800504C205C181ED24024684
:100BE000E1B7328511016FF04FE23707002013079C
:100BF00047011C43938681823E95636BD500B7867F
:100C000000209386068063E5A60008C33E858280A7
:100C1000FD57EDBFB717024023800702238007026C
:100C200005476306E50011476306E50082802380DF
:100C3000A702828015472380E7028280371702408F
:100C40001C535D8D08D3828001C9371702401C53A5
:100C5000A166D58F1CD38280B71602409C52617763
:100C60007D17F98F9CD28280EFF28FD9371702401F
:100C70005C439146AA84B18B6385D700A146638506
:100C8000D706B7177A00938707209CC03717024012
:100C90005C43B70600209386C6019183BD8BB6974F
:100CA00088239C4033D5A700C8C05C43A1839D8B9B
:100CB000B6979C23B357F5009CC45C43AD839D8BD2
:100CC000B6979C233355F500C8C45C43B98313F72A
:100CD0003700B707002093878701BA978C23EFF07E
:100CE0006FD588C86FF06FD248435843C1674981B8
:100CF000F98F37F7FF1F0327C7703D890905931642
:100D0000170163C80600454701446312E5024945DF
:100D100039A809476309E5023D476308E5024147F1
:100D20006308E502454701446313E500414585E753
:100D3000B747024083A70780C18B8DC7B7157A00DC
:100D40009385052025A00144D9B705443545C5B78D
:100D500001443D45E9BFB7170240DC431397E70064
:100D6000E35E07FCB7153D0093850590EFF08FCA51
:100D700088C009DC9C40858309BF99C537170240AC
:100D80001C4F5D8D08CF8280B7170240984F1345E6
:100D9000F5FF798D88CF828099C5371702405C4F67
:100DA0005D8D48CF8280B7170240D84F1345F5FFBD
:100DB000798DC8CF82809357550005476399E70026
:100DC000B71702409C4333D5A700058982800947A5
:100DD0006396E700B71702409C53F5B7B717024078
:100DE000DC53D5B7EFF2CFC11629F577FD17F58F94
:100DF000F621DA252111D58F1EA95625FD77938777
:100E0000379FF58FD6212A842EC0D58F9625D58F72
:100E1000B625D58F5EA55E29C207C18393F7F7CFAC
:100E20005D8F5AA948008935B747014093870780ED
:100E300082456312F406C2475A24139517003E9563
:100E400042070E0541873E958C416358070486058D
:100E5000EFF04FBE930540062AC0EFF0AFBD8247CA
:100E600093144500930540063E85EFF06FBF5E2466
:100E7000C207C18763D507020E0593054006130517
:100E80002503EFF02FBB1D89C98CC204C18006A4C5
:100E900061016FF08FB7B24745B78A0555BF12059C
:100EA0009305400613052503EFF0CFB83D89E9BF50
:100EB00091C55E250967D98F5EA582805A25F9778D
:100EC000FD17F98FD5BF93F5F51F4EA182800A213A
:100ED0006D8D3335A00082809C45611122C226C0F1
:100EE00013F7070113F3F70001C7D8413363E30099
:100EF00092211377F60F29C78323050001471304B6
:100F00008002930480048546B395E600B376B6006C
:100F10006392D50293122700BD46B396560093C63E
:100F2000F6FFB3F37600B3125300B3E37200639796
:100F300087064CC90507A146E317D7FC2320750097
:100F40001307F00F6378C70483234500A1461304F9
:100F50008002930480040547B312D700337756000C
:100F60006394E202139726000117BD45B395E5008F
:100F700093C5F5FFB3F375003317E300B363770050
:100F800063928702232A550085064147E395E6FCD4
:100F9000232275001244824421018280E39C97F849
:100FA0000CC949BFE39297FE23285500F1BFB7F75C
:100FB000FF1F03A547708280B737004003D7078023
:100FC00089C5598D2390A78082801345F5FF798DBF
:100FD000D5BFB737004003D7478013670701239277
:100FE000E78082803737004083574780C207C1833C
:100FF000BD9BC207C1832312F7808280B7360040B1
:1010000083D7868103D5C68103D78681C20713168D
:1010100005014207C183418341829386068063862E
:10102000E700CA2E4207598D828013950701518D22
:101030008280EFF2EF9C71112AC0613F0245B73701
:101040000040135705014205239CE7804181239E00
:10105000A780493F11016FF04F9BEFF26F9A71111A
:101060002AC0853F0245B7370040135705013D8B25
:1010700042052394E78041812396A780A53711017B
:101080006FF0AF98EFF2CF9771112AC099370245F0
:10109000B73700401357050142052390E78241818D
:1010A0002392A782813711016FF02F9637370040C6
:1010B0008357478093F70702E5DF82803737004088
:1010C00083574780C207C183DD9BC207C1832312B8
:1010D000F7803737004083574780A18BEDDF828050
:1010E000B737004003D747801345F5FF798D23922A
:1010F000A780828037370040835747800357078097
:10110000C207698FC18309C77D8D3335A0008280F6
:1011100001458280EFF2CF8EE1376FF00F8F7111B2
:10112000B777004002C0938707C03EC082473E9514
:101130002AC082478CC311018280377700401C434C
:1011400009C593E707101CC3828093F7F7EFE5BF4B
:1011500023A0A1828280938701829443182181E693
:101160003C21920721A894430546639FC6023C2177
:10117000103192076314D60093E707F8B7E600E052
:1011800093F7F70FBA962380F6408546935757009A
:101190003397E6005441A5C2938707048A07B7E650
:1011A00000E0B69798C382808C4389466391D5024C
:1011B00014313C216365D6008A06B6975DB79386E5
:1011C000E6038A06B69793F7F70F920775B7904331
:1011D0008D46631CD60014313C216364D60086061C
:1011E000E9BF9386C6078606F1BF94439147E39E05
:1011F000F6F81C31BDB7938707064DB701A001A0D3
:1012000001A001A001A001A001A001A001A001A0D6
:1012100001A001A001A001A001A001A001A001A0C6
:1012200001A001A001A001A001A001A001A001A0B6
:1012300001A001A001A001A001A001A001A001A0A6
:1012400001A001A001A001A001A001A001A001A096
:1012500001A001A001A001A001A001A001A001A086
:1012600001A001A001A001A001A001A001A001A076
:1012700001A001A001A001A001A001A001A001A066
:1012800001A001A001A001A001A001A001A001A056
:1012900001A001A001A001A001A001A001A001A046
:1012A00001A001A001A097F1FF1F9381A15E17711A
:1012B0000020130121D5171500001305A53D97F552
:1012C000FF1F938525D41386818063FAC50083228E
:1012D000050023A0550011059105E3EAC5FE13851D
:1012E0008180938581826377B500232005001105F5
:1012F000E36DB5FEFD42739002BCAD427390428037
:10130000B76200009382820873A0023097F2FFFF59
:101310009382C2D293E2320073905230EFF06FE0CA
:1013200097F2FFFF9382A25573901234730020301E
:101330001301C1FD3ED02EC832CA36CC3ACE97F743
:10134000FF1F938727D522C4804326C206C6AA84DE
:1013500009C41C4C99E32285F5290C4414082686FF
:10136000228536C0EF003013B2402244924413016C
:1013700041028280411126C206C622C42EC0AA8420
:1013800001C5184D11E3F921984C804419E32685D5
:10139000D12117170000130727286312E402C04069
:1013A0005A24218B19C3184821EFA285268585224E
:1013B00021C97D55B24022449244410182801717D1
:1013C0000000130767276314E4008044D1BF171798
:1013D000000013076722E315E4FCC044D1B782473D
:1013E00018C485073EC063580700144C634BD702EE
:1013F00029476388E50218409306170014C00CA320
:10140000824718448C237D17F9F918C463520702E8
:101410002286A94526851D28FD57E30CF5F82945A8
:1014200051BF228626851D207D57E31BE5FC51B761
:101430001C401387170018C0294798A3CDB797F70A
:10144000FF1F938727C5AA8588432DB7311122C670
:1014500026C406C8AA87AE84328411C5184D01E798
:101460002AC0CD2E8247171700001307E71A63180A
:10147000E406C043184C18C45A24218B49C31848A9
:101480003DCF1848084093F6F40F93F4F40F198DEC
:101490005848634AE5003E85A28536C23EC0692CA5
:1014A000824792463DE1184405057D1718C418404F
:1014B0001306170010C014A358486308A7005A2445
:1014C000058B01CB29476396E400A2853E85AD24B8
:1014D0000DEDC24032442685A24451018280171787
:1014E0000000130767156314E400804761B71717FE
:1014F000000013076710E31FE4F6C047A5BF3E8551
:10150000A2853EC0292082472DDDFD54D9B7411167
:1015100097F7FF1F938707B826C2844322C406C6E5
:10152000AA862E8499C49C4C89E72AC026851D264C
:101530008246971700009387270E6319F402C04074
:101540000317C40093170701C18313F687002DEA20
:1015500013F6070105EEA5479CC2136707045AA4BA
:101560007D55B24022449244410182809717000089
:101570009387870C6314F4008044D9B79717000051
:1015800093878707E31EF4FAC0445DBF918B8DC734
:101590004C5899C9930744046386F500368536C0D4
:1015A00021238246232A04025E242322040093F787
:1015B000B7FD5EA41C481CC05E2493E787005EA4B0
:1015C0001C4899EB5E241307002093F707286385D6
:1015D000E700A285368599215E2413F717001DC305
:1015E0005C4823240400B307F0401CCC1C48014590
:1015F000ADFB8317C40013F7070825D793E707044B
:101600005EA4B9BF898B014791E3584818C4F9BF5C
:10161000D625311122C606C826C413F78600AA872C
:101620002E8471EBD841634BE000B8416348E00081
:101630000145C2403244A2445101828058546DDBBE
:1016400084431396360123A00700635C06067048A6
:101650005A24118B19C75840198E585819C338404D
:10166000198E58540C5081463E853EC002977D57D6
:1016700056248247631DE500904375476368C7069B
:101680003707402005073357C700058B25C3184887
:101690002322040018C013973601635807007D57B2
:1016A0006314E500984311E368C84C5884C3C9D15A
:1016B000130744046384E5003E85FD26232A0402C3
:1016C00085BF0C5001463E8585463EC002977D573A
:1016D0002A868247E31EE5F698433DDBF54663051F
:1016E000D700D9466312D70484C399B793E606049A
:1016F00056A47D553DBF984905DF84418D8A98C128
:10170000998C014691E2D04910C4E35390F203232F
:1017100084020C503A863E85A6863AC23EC00293A9
:10172000824712476347A0005E2493E707045EA444
:10173000C9B72A97898CD1BF9C49B9CF411122C41E
:1017400006C62A8411C51C4D81E72EC02122824580
:1017500097170000938747EC639BF5004C408397F5
:10176000C50095C722852244B240410155B597175F
:101770000000938767EC6394F5000C44CDB797178E
:101780000000938767E7E39CF5FC4C44C9BFB24077
:10179000224401454101828001458280511122C2CB
:1017A00006C42A844EA572A5232005002322050025
:1017B000232405002322050623280500232A0500EB
:1017C000232C0500214681451305C505EFE0FFAD3B
:1017D000971700009387C7B75CD0971700009387CF
:1017E000E7B91CD4971700009387C7BD5CD497173F
:1017F0000000938727C000D01CD8A24012443101BA
:10180000828097050000938565F389AA41111386AC
:10181000F5FF22C41314160032940A0432940E0405
:101820002EC09305440726C206C63D26AA8409CDCC
:101830008247232005003105232CF5FE88C41306BA
:1018400084068145EFE07FA6B2402244268592447B
:10185000410182801C4DBDE3511106C422C297078D
:101860000000938747FA1CD597F7FF1F9387C7821D
:101870009C4323240504232605042328050463141C
:10188000F50085471CCD2A841D2848C022850528DF
:1018900008C422852D2048C4484001469145FD3D9D
:1018A00008440546A545DD3D48440946C945FD3582
:1018B00085471CCCA24012443101828082804111B4
:1018C00097E7FF1F9387477D22C4804326C206C641
:1018D0001C4CAA8499E32285B53F93078404804772
:1018E000D8437D1763560700984331CF9C43C5BF4B
:1018F0008316C400B1E6C17785072322040623209E
:10190000040023220400232404005CC423280400D0
:10191000232A0400232C0400214681451305C40515
:10192000EFE0BF98232A0402232C0402232404049A
:10193000232604042285B24022449244410182803D
:101940001304840679BF914526853EC0C135824780
:1019500088C349FDB1479CC00144E9BF111122CAA7
:1019600006CC26C8AA862E8613048504814719E46E
:10197000E2405244C2443E85710182800444584092
:101980007D17635407000040DDB7CA24854563F323
:10199000A5020395E400FD55630EB5003685A685C6
:1019A0003EC63AC436C232C00296B2472247924679
:1019B0000246C98F93848406E1B7AE878395E5001C
:1019C0005971A6D286D6A2D4B28463DB0500DE2785
:1019D00023A0060093F707088DEB9307004005A8A6
:1019E0001304F1006198228636C23EC0EF00102633
:1019F00082479246E34D05FC5840BD67F98F7977E1
:101A0000BA9793B717009CC2C9BF93070004B6509A
:101A100026549CC00145965465618280DA252111C7
:101A200022C806CA26C6098B2E8401CF93077404E8
:101A30001CC01CC885475CC8D2404244B244610106
:101A4000828034005000AA848D3F92452AC02685AA
:101A5000212219E98317C40013F7072071FFF19BB6
:101A600093E727005EA4D9B7170700001307A7D98B
:101A700098D45A2408C008C8136707085AA4124704
:101A800058C8224701CF8315E4002685EF00B01E19
:101A900011C55E24F19B93E717005EA45E24024704
:101AA000B364F70046A449BFDDC583A7C5FF511144
:101AB00022C206C426C01384C5FF63D307003E9428
:101AC000AA84EF00102297E7FF1F9387275D9C43AE
:101AD00091EF2322040097E7FF1F23A1875C1244A4
:101AE000A2402685824431016F00D01F637EF4003E
:101AF00014403307D4006396E7009843DC433697DD
:101B000018C05CC0C9BFBA87D84319C3E37DE4FEDF
:101B100094433386D700631F86001040B29694C367
:101B20003386D700E31DC7FA10435843B29694C3D7
:101B3000D8C375B76375C400B1479CC04DB710409A
:101B4000B306C4006316D70014435843B29614C0BA
:101B500058C0C0C369B78280411126C29384350042
:101B6000F19806C622C4A104B14763F7F404B14456
:101B700063E6B4042AC0EF00D016138781801443B3
:101B80008247368421E41387C180184301EB3E85E8
:101B900081453EC0792723A6A18082473E85A68540
:101BA0003EC041277D5782476316E506314798C3FB
:101BB0003E85EF00301329A0E3DC04FAB1471CC1D5
:101BC0000145B24022449244410182801840058F71
:101BD000634F07022D466376E60018C03A9404C0AE
:101BE00031A058406393860223A4E1803E85EF0034
:101BF000700F1305B400130744006199B307E54063
:101C0000E9D33E94098F18C06DBFD8C2C5B7A2866C
:101C100040408DBF130435007198E30285FCB30585
:101C2000A4403E853EC0F52D7D578247E319E5FA75
:101C3000B5BF1C46FD171CC663DA0700184E63C506
:101C4000E700A9476394F5006FF05F801C422E8582
:101C50001387170018C28CA38280311122C626C4B4
:101C600006C8AA872E873284B304D6006314940072
:101C7000014529A80C203A863E853AC23EC0553F10
:101C8000FD56050482471247E312D5FEC240324496
:101C9000A24451018280130181F722C1A6DE93077D
:101CA000F10106C32AC032C22E8493F487FF19C5FE
:101CB000184D09E736C6EFF0FFB9B2461717000016
:101CC000130787956310E40E8247C0435A24218B83
:101CD000630C070E18486DCB1307000298BC13075E
:101CE000000323AA0400B8AC36CA124713065002F8
:101CF000142399C26399C60E92473303F7406301D8
:101D0000030202459A863E86A2853AC81AC6B137B2
:101D1000FD566305D520D448324342479A96D4C82D
:101D20001423638D061E130317007D5723A00400A0
:101D300023A60400D8C023A40400A381040423AC78
:101D40000404834503001546171500001305C590CC
:101D50001AC2EF008077124394401307130051E535
:101D600013F6060109C613060002A381C40413F684
:101D7000860009C61306B002A381C404834503008C
:101D80001306A0026380C508D4441A8781452545FF
:101D9000102313031700130606FD6378C50ABDC997
:101DA000D4C48DA817170000130707896315E40032
:101DB0008247804721BF171700001307E783E31707
:101DC000E4F08247C04719B70245A28536C6EFF056
:101DD0000FF4B246E30205F07D559A400A44F654EA
:101DE000130181088280050721B71716000013062A
:101DF000A6863306C54005453315C500C98E94C077
:101E00003A8381B752469305460010422ECA634773
:101E10000602D0C410239306E0026311D6061033E5
:101E20009306A002631ED602D24609071386460017
:101E3000944232CA63C40602D4C089A03306C040AB
:101E400093E62600D0C494C0F1B7139726003697C6
:101E50000607B306C70085451A871DBFFD56E9BFB3
:101E6000050723A20400814581462545102313035D
:101E70001700130606FD6377C506DDFD0C230D462E
:101E8000170500001305C57D3AC28125124711CD03
:101E9000970600009386C67C158D93060004B396C2
:101EA000A60088400507558D88C00C2393071700AE
:101EB0001946170500001305E57A3EC28CAC3125A2
:101EC0002DC517E7FFFF1307E71305EB94405247B3
:101ED00093F606108DC211073ACAD848A2473E971A
:101EE000D8C821B51397260036970607B306C70052
:101EF00085451A87A5BF2107C5B70245580897062B
:101F000000009386C6D52286A68597000000E700CC
:101F100000002AC4A2477D57E391E7FC5A241377B7
:101F20000704E31B07EAC8484DBD02455808970659
:101F300000009386C6D22286A685052AD9BF011144
:101F400026CA3283B6849045944922CC06CE2A8490
:101F5000AE8763D3C600B2862320D30003C63704FE
:101F600001C685062320D300944393F6060291C64A
:101F70008326030089062320D30083A207009383CE
:101F8000970193F2620063830206904383C637048D
:101F900013760602B336D00041EA13863704A685CD
:101FA00022851AC43EC23AC00297FD566308D50680
:101FB000924722431145944303260300CC47998A54
:101FC000014302476397A6003383C5406353030070
:101FD00001439447904B6354D600918E36938142CF
:101FE000E9076312530601451DA88502D44703265D
:101FF0000300918EE3DBD2F885461E86A6852285F6
:102000001AC83EC616C41EC23AC00297FD56024701
:102010009243A242B2474243E319D5FC7D55F240B8
:102020006244D24405618280B385D7001305000362
:10203000A381A50483C55704138616003E9689061E
:10204000A301B60499BF85463E86A685228516C69D
:102050001AC43EC23AC00297FD56E301D5FCB24213
:102060002243924785020247ADBF130141FD22D2B0
:1020700006D426D032C2902D36C42AC093069006CC
:102080002E8493823504630DD60263E2C60693065E
:102090008005630ED61863EDC6006306062293061C
:1020A0003004630CD60A930424042301C4047DA8DD
:1020B000930630066303D60A93064006E315D6FE60
:1020C0001440084313F606089305450055C2144111
:1020D0000CC363D806001307D002B306D040A30197
:1020E000E4041706000013066658294755A893060E
:1020F0000007630AD61663E5C6029306E00663018D
:10210000D61A9306F006E310D6FA0C40144313F3E4
:102110000508138546006305030608C39442B5A06D
:1021200093065007E303D6FE930680076301D61497
:1021300093063007E319D6F614431386460010C3FE
:102140008442D04181452685492619C1058D48C064
:10215000584018C8A30104045DA814439304240440
:102160001386460010C398422301E4040547D5B7FF
:1021700013F6060414410CC329DEC206C18691BFC2
:1021800093F5050408C3D9D996221307F006630115
:10219000E610170600001306664D2947A301040444
:1021A0004C400CC463C5050008406D9908C099E215
:1021B00096849DC99684BA85368516CC32CA3AC8AB
:1021C00036C6EFE0EF8952464247B24632950C21BF
:1021D000FD1436858CA0BA85EFE0CF85B246424724
:1021E0005246E24263FCE60AA146631ED70018404D
:1021F000058B11CB544018486347D70013070003E1
:10220000A38FE4FEFD14B38292402328540022479A
:10221000924602457008A2851D337D576319E50A71
:102220007D55A250125482541301C1028280A382B0
:10223000C50417060000130666430C40084313F359
:10224000050814411105630D030208C313F71500B7
:1022500001C793E505020CC04147A9F20C4093F574
:10226000F5FD0CC025BF944193E6060294C1930688
:102270008007A302D404170600001306664075BF4A
:1022800013F3050408C3E30303FCC206C1827DBF48
:10229000170600001306863D214709B7AA8621BF0D
:1022A00090411443CC491373060813854600630616
:1022B000030008C398420CC339A008C31376060470
:1022C000984275DA0EA323280400968489B714482F
:1022D00092450245A247268682977D57E302E5F4A0
:1022E0001840098B1DEB72474844E35CE5F23A85E0
:1022F0000DBF92450245A24785461A863AC81AC6BE
:102300008297FD56E30ED5F0424732430507544409
:102310007246918EE34FD7FCF9B70147130394013E
:10232000FDB7511122C22A842E8523A2018206C440
:10233000EFE0BF8BFD576317F500938741829C4305
:1023400091C31CC0A240124431018280511122C2AB
:102350002E848395E50006C47922634905007C48F4
:10236000AA977CC8A2401244310182805E247D7706
:102370007D17F98F5EA4FDB7DE25311122C626C474
:1023800006C893F70710AA842E843283B68291CBB5
:102390008395E50036C232C0894601460922924241
:1023A00002435E247D777D17F98F5EA48315E400D8
:1023B0003244C2402685A24496861A86510125A839
:1023C000511122C22E848395E50006C4C928FD5709
:1023D0005A24631AF500FD77FD17F98F5EA4A24019
:1023E0001244310182808567D98F5EA468C8C5BF59
:1023F0008395E50005A8511122C22A842E85B28555
:10240000368623A2018206C4EFE06FF9FD576317F9
:10241000F500938741829C4391C31CC0A2401244A3
:1024200031018280511122C22A842E8523A2018289
:1024300006C4C520FD576317F500938741829C436E
:1024400091C31CC0A240124431018280511122C2AA
:102450002A842E85B28523A2018206C4C920FD5795
:102460006317F500938741829C4391C31CC0A2402F
:10247000124431018280511122C22A842E8523A266
:10248000018206C45D20FD576317F50093874182E2
:102490009C4391C31CC0A24012443101828051115F
:1024A00022C22A842E85B285368623A2018206C4E2
:1024B0005920FD576317F500938741829C4391C3D0
:1024C0001CC0A24012443101828093F5F50F2A9678
:1024D0006314C500014582801C21E38EB7FE05050B
:1024E000C5BF82808280511122C22A842E85B28586
:1024F000368623A2018206C4A920FD576317F50082
:10250000938741829C4391C31CC0A2401244310175
:1025100082809307800523A2F1827D5582809307F4
:10252000800523A2F1827D5582809307800523A236
:10253000F182014582809307800523A2F1827D55B7
:1025400082809307800523A2F1827D55828000005E
:1025500053797374656D436C6B3A25640D0A000002
:102560004368697049443A253038780D0A00000004
:1025700052544320546573740D00000079656172F4
:102580002F6D6F6E74682F6461792F7765656B2F7F
:10259000686F75722F6D696E2F7365633A0D000059
:1025A00025642D25642D25642020256420202564A4
:1025B0003A25643A25640D0A000000001F1C1F1E06
:1025C0001F1E1F1F1E1F1E1F0003030601040602FD
:1025D000050003050D0A0D0A416C61726D20636CE4
:1025E0006F636B20696E746572727570740D0A0D7D
:1025F00000000000000000000000000000000000DB
:1026000000000000000000000000000000000000CA
:1026100000000000000000000000000000000000BA
:1026200000000000000000000000000000000000AA
:10263000000000000000000000000000000000009A
:10264000000000000000000000000000000000008A
:1026500000000000232D302B20000000686C4C008F
:1026600065666745464700003031323334353637CA
:10267000383941424344454600000000303132338E
:1026800034353637383961626364656600000000AE
:102690000000000000000000010203040607080912
:1026A00000D8B805B80000200204060800000000A9
:1026B00001020304010203040607080900000000E8
:1026C0001426000034260000F4250000000000005D
:1026D00000000000000000000000000000000000FA
:1026E00000000000000000000000000000000000EA
:1026F00000000000000000000000000000000000DA
:1027000000000000000000000000000000000000C9
:1027100000000000000000000000000000000000B9
:082720002C0000202C00002019
:00000001FF
