:100000006F00D05D1300000013000000130000001B
:100010001300000013000000130000001300000094
:100020001300000013000000130000001300000084
:08003000130000007300100032
:1000380000000000000000007208000076080000C0
:1000480000000000360D0000000000000000000065
:10005800380D00003A0D000000000000000000000C
:100068003C0D0000000000003E0D000000000000F4
:10007800400D0000420D0000440D0000460D000038
:10008800480D00004A0D00004C0D00004E0D000008
:10009800500D0000520D0000540D0000560D0000D8
:1000A800580D00005A0D00005C0D00005E0D0000A8
:1000B800600D0000620D0000640D0000660D000078
:1000C800680D00006A0D00006C0D00006E0D000048
:1000D800700D0000720D0000740D0000760D000018
:1000E800780D00007A0D00007C0D00007E0D0000E8
:1000F800800D0000820D0000840D0000860D0000B8
:10010800880D00008A0D00008C0D00008E0D000087
:10011800900D0000920D000000000000940D0000FA
:10012800960D0000980D00009A0D00009C0D00002F
:100138009E0D0000A00D0000A20D0000A40D0000FF
:10014800A60D0000A80D0000AA0D0000AC0D0000CF
:10015800AE0D0000B00D0000B20D0000B40D00009F
:10016800B60D0000000000000000000000000000C4
:10017800000000000000000000000000B80D0000B2
:10018800000000000000000000000000BA0D0000A0
:10019800BC0D0000BE0D0000C00D0000C20D000027
:1001A800C40D0000C60D0000C80D0000CA0D0000F7
:1001B800CC0D0000CE0D0000D00D0000D20D0000C7
:1001C800D40D0000D60D0000D80D0000DA0D000097
:1001D8000000000000000000000000000000000017
:1001E8000000000000000000000000000000000007
:0801F8000000000000000000FF
:10020000511126C022C206C4828282441244A240F6
:10021000310182802A86014593F6150091C23295FC
:1002200085810606F5F9828000000000634E050214
:1002300063C305042E86AA857D5515C2854663785D
:10024000B6006356C00006068606E36CB6FE01459E
:1002500063E4C500918D558D85820582F5FA828013
:100260008682C93F2E8582823305A04063D7050070
:10027000B305B040C1B7B305B0408682653F3305D2
:10028000A0408282868263C70500634905005D370E
:100290002E858282B305B040E35B05FE3305A040A6
:1002A000513F3305B040828200003D432A8763738B
:1002B000C3029377F700BDEFADE5937606FF3D8A65
:1002C000BA960CC34CC30CC74CC74107E36BD7FEAF
:1002D00011E28280B306C3408A0697020000969618
:1002E0006780A6002307B700A306B7002306B70060
:1002F000A305B7002305B700A304B7002304B70084
:10030000A303B7002303B700A302B7002302B7007B
:10031000A301B7002301B700A300B7002300B70073
:10032000828093F5F50F93968500D58D9396050100
:10033000D58D61B793962700970200009696868226
:10034000E78086FA9680C1171D8F3E96E374C3F846
:10035000A5B7EFF2FFEA056501118545110502C059
:1003600002C202C402C602C802CA02CC231E010095
:10037000EF00B0043714014091478D447C808A859A
:10038000C147130504803EC426C2EF00C0621305B6
:1003900004809145EF0020702147C1478A851305ED
:1003A000048078803EC426C2EF00E060130504801C
:1003B000A145EF00406EC1478A85130504807C800B
:1003C0003EC426C2EF00205F13050480C145EF0044
:1003D000806C930700027C808A85E14713050480C6
:1003E0003EC426C2EF00205D1307000478808A8592
:1003F0001147130504803AC4EF00E05B13070008BF
:10040000E1478A851305048078803EC426C2EF0048
:10041000805AB70704013EC6B70702003EC8B707B7
:10042000000285073ECA6C009D4737350140FC86B7
:1004300002CCEF00607A854537350140EF00A07DA2
:100440000561E1B3EFF2DFDB7111371401402AC01F
:10045000AE8413050480C145EF0040638247630901
:10046000F50013361500C14513050480EF00206325
:10047000A68537350140EF00A07B1304A00C894509
:1004800037350140EF00007B09E57D141374F40F4C
:100490007DF411019DBBEFF2BFD637140140A14599
:1004A00013050480EF00605F29450921A14513056C
:1004B0000480EF00405E2945D52E13050480914548
:1004C000EF00A05D85450145B53F13056009F92E94
:1004D000C5450145853F1305F00FC92E9305100250
:1004E00001458D379305A0030145A93F9545054575
:1004F000913F9305000E0145B13789450545993770
:10050000F145054581379D4505452D3FC9450545C3
:10051000153F9305700305453537930520030545C1
:100520001537930590020545313F9305D0020545E7
:10053000113F93059002054531379305500205455B
:1005400011379305B0020545F53D93059003054528
:10055000D53D81450545FD3585450545E5358D4547
:100560000545CD35C1450545F13D9305100E0145C5
:10057000D13D8D450545F935F5450545E1359D45A7
:100580000545C93599450545753D9305E002054585
:10059000553D9305C0020545753593059002054507
:1005A00055359305D0020545713D9305E00205459B
:1005B000513D9305E00205457135930570030545EE
:1005C00051359305F0030545B53D814505459D3DF4
:1005D00081450545853D89450545AD35C1450545FF
:1005E0009535930590020145B13D130540067D2CDC
:1005F000914513050480452109B9EFF27FC06111CF
:100600002E84AA849305A002014536C032C21D3D46
:1006100081450545053DA68505452D3581450545A1
:100620001535A2850545393D9305B0020145193DB3
:1006300081450545013D12460545B2852135814577
:100640000545093582460545B685ED3B210175BE58
:10065000EFF21FBB71119374F50F135485009305CE
:10066000C0020145C5338D679387072FA6850545D1
:100670003EC0C93BA2850545F1338247FD17C2073D
:10068000C183EDF7110151B6EFF29FB74111B714D5
:1006900001402E842AC691451385048032C436C297
:1006A0003AC0E52E024722461243930600FA93050C
:1006B000A006998E918D1305A40193F6F60F1A8664
:1006C00093F5F50F1375F50F0D3FB2473E8549378A
:1006D000914513850480C126410105BEEFF25FB24A
:1006E00001478146014681450145793F39BEEFF218
:1006F0003FB1ED371305803E552A41642947A9468D
:10070000154695451305F4FF41371305803E792AB8
:100710005147D1462946A94513050480B53713052D
:10072000803E69227947F9463D46BD457D45A93F52
:100730001305803EA52A13078002930680025146C6
:10074000D1451305007E89371305803E85221307A6
:100750002003930620036546E545130504FE2D3767
:100760001305803EA1221307C0039306C0037946F8
:10077000F9451305F07F093F1305803E052A13074D
:1007800060049306600413063002930530021305DB
:10079000F481DD3D1305803E112A85BCEFF25FA692
:1007A000E1287165130505209922B707002083A56C
:1007B0000700372500001305C5FA7525593E1305B6
:1007C0004006ED20C9392537FDBFB71702409843D1
:1007D000B706FFF01367170098C3D843758FD8C3C7
:1007E0009843B706F7FEFD16758F98C39843B70672
:1007F000FCFFFD16758F98C3D843B70681FFFD1621
:10080000758FD8C337079F0098C7B746024003A724
:1008100006801367070123A0E680D843B706C1FF0F
:10082000FD16D8C3D843D8C3D84313670740D8C3ED
:10083000D843758FD8C3D843B7063C00558FD8C36B
:100840009843B7060001558F98C3984393166700E5
:10085000E3DD06FED843B7160240719BD8C3D843E8
:1008600013672700D8C32147DC42B18BE39EE7FE24
:1008700082807300203001A0EFF29F98B70700201C
:1008800003A50700B7157A0093850520EFF09F9A1E
:100890001375F50F2389A18093175500898F8A0757
:1008A0003E950E052398A1806FF03F96EFF25F957D
:1008B00037F400E05C40AA85F99B5CC003D5018158
:1008C000EFF05F9508C881475CC81C4093E70701BB
:1008D0001CC01C4093E717021CC0B7F700E0D843C8
:1008E000058B75DF9843799B98C36FF01F92EFF2E9
:1008F0003F912A8411651111854511057D2C9307BF
:1009000000207C80371501408D473EC28A85E14733
:10091000130505803EC4452022C637440140B70771
:1009200008006C00130504803ECA02C8231C0100A5
:100930003926854513050480C92E71016FF0FF8C9F
:10094000EFF21F8C7111AE840144635DC402B7479E
:100950000140138707803A859305000432C0E926D9
:10096000B747014013870780024675D53387840057
:1009700083050700138507800504C205C1814D2644
:100980000246E1B7328511016FF03F88370700203A
:10099000130747001C43938681813E95636BD50006
:1009A000B78600209386068063E5A60008C33E85CF
:1009B0008280FD57EDBF9C45611122C226C013F70E
:1009C000070113F3F70001C7D8413363E300922115
:1009D0001377F60F29C7832305000147130480020C
:1009E000930480048546B395E600B376B60063921F
:1009F000D50293122700BD46B396560093C6F6FF64
:100A0000B3F37600B3125300B3E372006397870623
:100A10004CC90507A146E317D7FC2320750013072F
:100A2000F00F6378C70483234500A14613048002B6
:100A3000930480040547B312D700337756006394BC
:100A4000E202139726000117BD45B395E50093C553
:100A5000F5FFB3F375003317E300B36377006392D8
:100A60008702232A550085064147E395E6FC2322A9
:100A700075001244824421018280E39C97F80CC9DE
:100A800049BFE39297FE23285500F1BF08456D8DBD
:100A90003335A00082800CC982804CC9828019C283
:100AA0000CC982804CC98280EFF28FF53717024063
:100AB0005C439146AA84B18B6385D700A1466385C8
:100AC000D706B7177A00938707209CC037170240D4
:100AD0005C43B70600209386C6009183BD8BB69712
:100AE00088239C4033D5A700C8C05C43A1839D8B5D
:100AF000B6979C23B357F5009CC45C43AD839D8B94
:100B0000B6979C233355F500C8C45C43B98313F7EB
:100B10003700B707002093878700BA978C23EFF040
:100B20006FF188C86FF06FEE48435843C167498141
:100B3000F98F37F7FF1F0327C7703D890905931603
:100B4000170163C80600454701446312E5024945A1
:100B500039A809476309E5023D476308E5024147B3
:100B60006308E502454701446313E500414585E715
:100B7000B747024083A70780C18B8DC7B7157A009E
:100B80009385052025A00144D9B705443545C5B74F
:100B900001443D45E9BFB7170240DC431397E70026
:100BA000E35E07FCB7153D0093850590EFF08FE6F7
:100BB00088C009DC9C40858309BF99C5371702406E
:100BC0001C4F5D8D08CF8280B7170240984F1345A8
:100BD000F5FF798D88CF82801A218D67938707046E
:100BE000B6217D8F9E21D58FD621D58FF621D58F29
:100BF0009625D58FB625D58FD625D58FF625D58FB9
:100C0000D98F1EA15A2DFD779387F77FF98F5EAD9F
:100C10009E291EA982801E2189C593E707041EA173
:100C20008280C207C18393F7F7FBC207C183C5BFA8
:100C30004EA582800A256D8D3335A0008280EFF2AB
:100C40002FDC1629F577FD17F58FF621DA2521110E
:100C5000D58F1EA95625FD779387379FF58FD6210F
:100C60002A842EC0D58F9625D58FB625D58F5EA523
:100C70005E29C207C18393F7F7CF5D8F5AA9480059
:100C80002535B74701409387078082456312F406F4
:100C9000C2475A24139517003E9542070E05418717
:100CA0003E958C41635807048605EFF0AFD8930555
:100CB00040062AC0EFF00FD88247931445009305F1
:100CC00040063E85EFF0CFD95E24C207C18763D5C9
:100CD00007020E059305400613052503EFF08FD597
:100CE0001D89C98CC204C18006A461016FF0EFD1D7
:100CF000B24745B78A0555BF12059305400613054F
:100D00002503EFF02FD33D89E9BF91C55E25096723
:100D1000D98F5EA582805A25F977FD17F98FD5BF47
:100D200093F5F51F4EA182800A216D8D3335A00009
:100D3000828001A001A001A001A001A001A001A04A
:100D400001A001A001A001A001A001A001A001A09B
:100D500001A001A001A001A001A001A001A001A08B
:100D600001A001A001A001A001A001A001A001A07B
:100D700001A001A001A001A001A001A001A001A06B
:100D800001A001A001A001A001A001A001A001A05B
:100D900001A001A001A001A001A001A001A001A04B
:100DA00001A001A001A001A001A001A001A001A03B
:100DB00001A001A001A001A001A001A001A001A02B
:100DC00001A001A001A001A001A001A001A001A01B
:100DD00001A001A001A001A001A001A09701002095
:100DE000938141AA177100201301C121171500003A
:100DF0001305C52697F5FF1F9385C52013868180AF
:100E000063FAC5008322050023A055001105910552
:100E1000E3EAC5FE13858180938581816377B50000
:100E2000232005001105E36DB5FEFD42739002BC61
:100E3000AD4273904280B76200009382820873A033
:100E4000023097F2FFFF9382621F93E232007390A9
:100E50005230EFF09F979702000093826294739054
:100E60001234730020301301C1FD3ED02EC832CAA7
:100E700036CC3ACE97F7FF1F9387C72022C4804312
:100E800026C206C6AA8409C41C4C99E32285C92837
:100E90000C4414082686228536C0AD26B240224472
:100EA0009244130141028280511122C206C42A8455
:100EB0004EA572A52320050023220500232405004A
:100EC0002322050623280500232A0500232C0500DC
:100ED000214681451305C505EFF02FBD971700008A
:100EE0009387079E5CD097170000938727A01CD498
:100EF00097170000938707A45CD497170000938787
:100F000067A600D01CD8A2401244310182809715F8
:100F100000009385E5D989AA41111386F5FF22C403
:100F20001314160032940A0432940E042EC0930552
:100F3000440726C206C6412AAA8409CD8247232037
:100F400005003105232CF5FE88C41306840681456F
:100F5000EFF0AFB5B2402244268592444101828031
:100F60001C4DBDE3511106C422C2970700009387B0
:100F700047FA1CD597F7FF1F938707119C4323243B
:100F8000050423260504232805046314F50085477A
:100F90001CCD2A841D2848C02285052808C4228526
:100FA0002D2048C4484001469145FD3D0844054672
:100FB000A545DD3D48440946C945FD3585471CCC5E
:100FC000A2401244310182808280411197F7FF1FB5
:100FD0009387870B22C4804326C206C61C4CAA8472
:100FE00099E32285B53F930784048047D8437D1752
:100FF00063560700984331CF9C43C5BF8316C40096
:10100000B1E6C177850723220406232004002322AA
:101010000400232404005CC423280400232A0400C1
:10102000232C0400214681451305C405EFF0EFA7EA
:10103000232A0402232C0402232404042326040468
:101040002285B240224492444101828013048406E6
:1010500079BF914526853EC0C135824788C349FD89
:10106000B1479CC00144E9BF111122CA06CC26C871
:10107000AA862E8613048504814719E4E24052446F
:10108000C2443E8571018280044458407D176354F8
:1010900007000040DDB7CA24854563F3A502039528
:1010A000E400FD55630EB5003685A6853EC63AC4FC
:1010B00036C232C00296B247224792460246C98FD4
:1010C00093848406E1B7411126C293843500F198D8
:1010D00006C622C4A104B14763F7F404B14463E631
:1010E000B4042AC0EF00F05513878180144382476F
:1010F000368421E41387C180184301EB3E85814586
:101100003EC0412F23A6A18082473E85A6853EC0D2
:1011100049277D5782476316E506314798C33E85C8
:10112000EF00505229A0E3DC04FAB1471CC101458D
:10113000B24022449244410182801840058F634F9F
:1011400007022D466376E60018C03A9404C031A029
:1011500058406393860223A4E1803E85EF00904EC1
:101160001305B400130744006199B307E540E9D3C0
:101170003E94098F18C06DBFD8C2C5B7A286404043
:101180008DBF130435007198E30285FCB305A440BC
:101190003E853EC0FD2D7D578247E319E5FAB5BF78
:1011A0001C46FD171CC663DA0700184E63C5E7002E
:1011B000A9476394F5006F00007B1C422E851387BE
:1011C000170018C28CA38280311122C626C406C81B
:1011D000AA872E873284B304D60063149400014595
:1011E00029A80C203A863E853AC23EC0553FFD569E
:1011F000050482471247E312D5FEC2403244A2449E
:1012000051018280130181F722C1A6DE9307F1010B
:1012100006C32AC032C22E8493F487FF11C5184D2D
:1012200001E736C6353BB24617170000130747DB08
:101230006310E40E8247C0435A24218B630C070ECF
:1012400018486DCB1307000298BC1307000323AAAC
:101250000400B8AC36CA124713065002142399C2D0
:101260006398C60E92473303F740630103020245B9
:101270009A863E86A2853AC81AC6B937FD566306D5
:10128000D520D448324342479A96D4C81423638E5B
:10129000061E130317007D5723A0040023A6040095
:1012A000D8C023A40400A381040423AC0404834510
:1012B0000300154617150000130585D61AC2EF0066
:1012C000D036124394401307130049E513F6060184
:1012D00009C613060002A381C40413F6860009C6DA
:1012E0001306B002A381C404834503001306A002C1
:1012F000638FC506D4441A878145254510231303FF
:101300001700130606FD6377C50AB5C9D4C485A8BE
:10131000171700001307C7CE6315E4008247804704
:1013200021BF171700001307A7C9E317E4F082478E
:10133000C04719B70245A28536C6392FB246E30326
:1013400005F07D559A400A44F654130181088280C5
:10135000050729B717160000130686CC3306C540CB
:1013600005453315C500C98E94C03A8389B75246E6
:101370009305460010422ECA63470602D0C41023CC
:101380009306E0026311D60610339306A002631E93
:10139000D602D246090713864600944232CA63C475
:1013A0000602D4C089A03306C04093E62600D0C40C
:1013B00094C0F1B71397260036970607B306C70007
:1013C00085451A8725BFFD56E9BF050723A20400FE
:1013D000814581462545102313031700130606FD9A
:1013E0006379C506DDFD0C230D46171500001305B6
:1013F000A5C33AC2EF007023124711CD9716000023
:10140000938686C2158D93060004B396A600884085
:101410000507558D88C00C2393071700194617152B
:1014200000001305A5C03EC28CACEF0010202DC5F6
:1014300017F7FFFF130707BD05EB9440524793F6DC
:1014400006108DC211073ACAD848A2473E97D8C89D
:1014500019B51397260036970607B306C7008545CA
:101460001A8795BF2107C5B702455808970600009F
:101470009386C6D52286A68597000000E700000067
:101480002AC4A2477D57E391E7FC5A241377070447
:10149000E31907EAC8487DB50245580897060000D9
:1014A0009386C6D22286A685052AD9BF011126CAEF
:1014B0003283B6849045944922CC06CE2A84AE87E6
:1014C00063D3C600B2862320D30003C6370401C607
:1014D00085062320D300944393F6060291C6832603
:1014E000030089062320D30083A20700938397017A
:1014F00093F2620063830206904383C63704137637
:101500000602B336D00041EA13863704A685228549
:101510001AC43EC23AC00297FD566308D5069247E8
:1015200022431145944303260300CC47998A014383
:1015300002476397A6003383C5406353030001430A
:101540009447904B6354D600918E36938142E907BD
:101550006312530601451DA88502D44703260300E4
:10156000918EE3DBD2F885461E86A68522851AC8B1
:101570003EC616C41EC23AC00297FD5602479243A9
:10158000A242B2474243E319D5FC7D55F240624482
:10159000D24405618280B385D70013050003A3817F
:1015A000A50483C55704138616003E968906A30139
:1015B000B60499BF85463E86A685228516C61AC4FE
:1015C0003EC23AC00297FD56E301D5FCB242224327
:1015D000924785020247ADBF130141FD22D206D4D6
:1015E00026D032C2902D36C42AC0930690062E848F
:1015F00093823504630DD60263E2C6069306800526
:10160000630FD61863EDC600630706229306300405
:10161000630DD60A930424042301C404C1A09306D5
:1016200030066304D60A93064006E315D6FE14403E
:10163000084313F60608930545005DC214410CC328
:1016400063D806001307D002B306D040A301E40418
:10165000171600001306069E29475DA8930600078B
:10166000630BD61663E5C6029306E0066302D61A3C
:101670009306F006E310D6FA0C40144313F3050862
:10168000138546006306030608C39442BDA0930673
:101690005007E303D6FE930680076302D614930631
:1016A0003007E319D6F614431386460010C384426C
:1016B000D04181452685EF00407719C1058D48C08E
:1016C000584018C8A30104045DA8144393042404DB
:1016D0001386460010C398422301E4040547D5B79A
:1016E00013F6060414410CC321DEC206C18689BF6D
:1016F00093F5050408C3D1D996221307F0066301B8
:10170000E610171600001306E6922947A301040409
:101710004C400CC463C5050008406D9908C099E2AF
:1017200096849DC99684BA85368516CC32CA3AC845
:1017300036C6EFE0FFB252464247B24632950C2120
:10174000FD1436858CA0BA85EFE0DFAEB246424785
:101750005246E24263FCE60AA146631ED7001840E7
:10176000058B11CB544018486347D700130700037B
:10177000A38FE4FEFD14B382924023285400224735
:10178000924602457008A28515337D576319E50A14
:101790007D55A250125482541301C1028280A3824B
:1017A000C504171600001306E6880C40084313F31F
:1017B000050814411105630D030208C313F7150052
:1017C00001C793E505020CC04147A9F20C4093F50F
:1017D000F5FD0CC025BF944193E6060294C1930623
:1017E0008007A302D404171600001306E68575BF10
:1017F00013F3050408C3E30303FCC206C1827DBFE3
:101800001716000013060683214709B7AA8621BFD1
:1018100090411443CC4913730608138546006306B0
:10182000030008C398420CC339A008C3137606040A
:10183000984275DA0EA323280400968489B71448C9
:1018400092450245A247268682977D57E302E5F43A
:101850001840098B1DEB72474844E35CE5F23A857A
:101860000DBF92450245A24785461A863AC81AC658
:101870008297FD56E30ED5F04247324305075444A4
:101880007246918EE34FD7FCF9B7014713039401D9
:10189000FDB7511122C22A842E8523AA018006C4D5
:1018A000EFF0CF8EFD576317F500938741819C437E
:1018B00091C31CC0A240124431018280511122C246
:1018C0002E848395E50006C42D25634905007C48D8
:1018D000AA977CC8A2401244310182805E247D77A1
:1018E0007D17F98F5EA4FDB7DE25311122C626C40F
:1018F00006C893F70710AA842E843283B68291CB50
:101900008395E50036C232C08946014619219242CC
:1019100002435E247D777D17F98F5EA48315E40072
:101920003244C2402685A24496861A865101F5A803
:10193000511122C22E848395E50006C4D92EFD578D
:101940005A24631AF500FD77FD17F98F5EA4A240B3
:101950001244310182808567D98F5EA468C8C5BFF3
:101960008395E500E5AA311122C626C406C8AA87D8
:10197000AE84328419C5184D09E72AC0EFF04FDE56
:101980008247170700001307A7656318E406C043E2
:10199000184C18C45A24218B49C318483DCF184805
:1019A000084093F6F40F93F4F40F198D5848634AE6
:1019B000E5003E85A28536C23EC0CD2C82479246C8
:1019C0003DE1184405057D1718C41840130617009B
:1019D00010C014A358486308A7005A24058B01CBF4
:1019E00029476396E400A2853E85C9240DEDC240D7
:1019F00032442685A2445101828017070000130754
:101A000027606314E400804761B7170700001307DD
:101A1000275BE31FE4F6C047A5BF3E85A2853EC015
:101A2000252882472DDDFD54D9B7511122C22A84C1
:101A30002E85B285368623AA018006C4EFE05FF0CA
:101A4000FD576317F500938741819C4391C31CC0E8
:101A5000A240124431018280411197E7FF1F938712
:101A6000676226C2844322C406C6AA862E8481C821
:101A70009C4C91E72AC02685EFF08FCE82469707CF
:101A800000009387E7556319F402C0400317C400B0
:101A900093170701C18313F687002DEA13F6070198
:101AA00005EEA5479CC2136707045AA47D55B240B2
:101AB0002244924441018280970700009387475453
:101AC0006314F4008044D9B7970700009387474F09
:101AD000E31EF4FAC0445DBF918B8DC74C5899C981
:101AE000930744046386F500368536C0A92E8246E6
:101AF000232A04025E242322040093F7B7FD5EA488
:101B00001C481CC05E2493E787005EA41C4899EB28
:101B10005E241307002093F707286385E700A2855A
:101B20003685B52C5E2413F717001DC35C482324AB
:101B30000400B307F0401CCC1C480145ADFB8317E3
:101B4000C40013F7070825D793E707045EA4B9BFBD
:101B5000898B014791E3584818C4F9BF511122C23B
:101B60002A842E8523AA018006C41921FD576317F4
:101B7000F500938741819C4391C31CC0A24012444D
:101B800031018280D625311122C606C826C413F73A
:101B90008600AA872E8471EBD841634BE000B841E0
:101BA0006348E0000145C2403244A24451018280B2
:101BB00058546DDB84431396360123A00700635C01
:101BC000060670485A24118B19C75840198E585868
:101BD00019C33840198E58540C5081463E853EC07A
:101BE00002977D5756248247631DE5009043754751
:101BF0006368C7063707402005073357C700058BC2
:101C000025C318482322040018C0139736016358CF
:101C100007007D576314E500984311E368C84C58EA
:101C200084C3C9D1130744046384E5003E85212C95
:101C3000232A040285BF0C5001463E8585463EC0DE
:101C400002977D572A868247E31EE5F698433DDBDF
:101C5000F5466305D700D9466312D70484C399B704
:101C600093E6060456A47D553DBF984905DF84419F
:101C70008D8A98C1998C014691E2D04910C4E353F2
:101C800090F2032384020C503A863E85A6863AC21F
:101C90003EC00293824712476347A0005E2493E749
:101CA00007045EA4C9B72A97898CD1BF9C49A5C3F4
:101CB000411122C406C62A8419C51C4D89E72EC0CD
:101CC000EFF00FAA82459707000093876731639B67
:101CD000F5004C408397C50095C722852244B24049
:101CE00041014DB597070000938787316394F50054
:101CF0000C44CDB7970700009387872CE39CF5FC35
:101D00004C44C9BFB2402244014541018280014593
:101D10008280511122C22A842E85B285368623AA5A
:101D2000018006C4852CFD576317F5009387418118
:101D30009C4391C31CC0A240124431018280AE87F3
:101D40008395E5005971A6D286D6A2D4B28463DB0E
:101D50000500DE2723A0060093F7070885EB93070D
:101D600000403DA01304F1006198228636C23EC0B7
:101D70007D2282479246E34E05FC5840BD67F98FAD
:101D80007977BA9793B717009CC2D1BF9307000425
:101D9000B65026549CC00145965465618280DA2570
:101DA000211122C806CA26C6098B2E8401CF9307AB
:101DB00074041CC01CC885475CC8D2404244B2446D
:101DC0006101828034005000AA84953F92452AC068
:101DD0002685EFF04FAF19E98317C40013F70720EA
:101DE00069FFF19B93E727005EA4D1B717F7FFFFC8
:101DF0001307271298D45A2408C008C81367070885
:101E00005AA4124758C8224719CB8315E4002685E7
:101E1000252A11C55E24F19B93E717005EA45E247A
:101E20000247B364F70046A449BF93F5F50F2A961D
:101E30006314C500014582801C21E38EB7FE0505B1
:101E4000C5BF82808280CDC583A7C5FF511122C244
:101E500006C426C01384C5FF63D307003E94AA843A
:101E6000CD3797E7FF1F938767229C4389EF232293
:101E7000040097E7FF1F23AB87201244A24026856A
:101E800082443101C1B7637EF40014403307D400AB
:101E90006396E7009843DC43369718C05CC0D1BF17
:101EA000BA87D84319C3E37DE4FE94433386D70051
:101EB000631F86001040B29694C33386D700E31E9A
:101EC000C7FA10435843B29694C3D8C37DB763751D
:101ED000C400B1479CC055B71040B306C400631698
:101EE000D70014435843B29614C058C0C0C371B74A
:101EF0008280511122C22A842E85B285368623AA79
:101F0000018006C47128FD576317F500938741814E
:101F10009C4391C31CC0A2401244310182805111E4
:101F200022C22A842E85B28523AA018006C4B92044
:101F3000FD576317F500938741819C4391C31CC0F3
:101F4000A240124431018280511122C22A842E857E
:101F500023AA018006C40D28FD576317F500938757
:101F600041819C4391C31CC0A24012443101828034
:101F70009307800523AAF1807D5582809307800511
:101F800023AAF1807D5582809307800523AAF180E2
:101F9000014582809307800523AAF1807D558280C8
:101FA0009307800523AAF1807D558280537973744D
:101FB000656D436C6B3A25640D0A0000000000005B
:101FC0000000000000000000000000000000000011
:101FD0000000000000000000000000000000000001
:101FE00000000000000000000000000000000000F1
:101FF00000000000000000000000000000000000E1
:1020000000000000000000000000000000000000D0
:10201000000000000000000000000000232D302B15
:1020200020000000686C4C0065666745464700006C
:1020300030313233343536373839414243444546FE
:1020400000000000303132333435363738396162C0
:082050006364656600000000F6
:1020580000449508980000200204060800000000CB
:102068000102030401020304060708090000000036
:10207800DC1F0000FC1F0000BC1F00000000000067
:102088000000000000000000000000000000000048
:102098000000000000000000000000000000000038
:1020A8000000000000000000000000000000000028
:1020B8000000000000000000000000000000000018
:1020C8000000000000000000000000000000000008
:0820D8001C0000201C00002088
:00000001FF
