:020000041000EA
:10000000732D40F163030D0001A081400141814146
:1000100001428142014381430144814401458145BC
:10002000014681460147814701488148014981498C
:10003000014A814A014B814B014C814C014D814D5C
:10004000014E814E014F814F970100709381817B5A
:1000500017010170130101FB97020170938282FA6C
:1000600073905230176500001305C5C397050170E2
:10007000938545F91706017013064615637CB50094
:1000800063FAC5008322050023A0550011059105E0
:10009000E3EAC5FE17650000130585A49705007007
:1000A000938545F61386419C63FAC50083220500BB
:1000B00023A0550011059105E3EAC5FE9382819CBA
:1000C000138381A363D6620023A002009102DDBFE7
:1000D00017650000130505BD97050010938585F28F
:1000E00017060010130606F263FAC5008322050006
:1000F00023A0550011059105E3EAC5FE9702001003
:10010000938242F0170300101303C3EF63D662001B
:1001100023A002009102DDBF056A130A0A80330B97
:100120004141138A81A39382019423A04201330B9E
:100130004B419382819423A0620173600430EF30BD
:08014000D0411920AA8201A0A0
:10014800411106C622C40008EF00F03AEF00D04281
:10015800EF00701D17050070130545ECEF00D0295E
:10016800A9450145EF00A074EF00606E692DEF10FE
:100178008079EF10B0049387819D114798C3175772
:1001880000001307E7F093060002130600078145F5
:100198002145EF00D06F175600001306660BF14596
:1001A80013056003EF102043175500001305050BD6
:1001B800EF3050659387819D114798C3894537056E
:1001C8000840EF20007EAA8781CB014693054003B3
:1001D8000145EF10402E39A06D46930540030145B7
:1001E800EF10602DA14537050840EF20807BAA87D6
:1001F80081CB0146930500031945EF10C02B39A0A8
:100208006146930500031945EF10E02A914537052B
:100218000840EF200079AA8781CB01469305400367
:100228003145EF10402939A069469305400331450F
:10023800EF106028854537050840EF208076AA87AB
:1002480081CB0146930580031945EF10C02639A0DC
:100258006546930580031945EF10E0259387C19CF7
:1002680083C7070081CB0146A14537050F40EF2022
:10027800807639A00546A14537050F40EF20A075C7
:100288009387819C9C43938617001387819C14C392
:100298001307F00FE370F7F29387819C23A0070000
:1002A800914537050F40EF20C06FAA8781CB0146E3
:1002B800914537050F40EF200072EDBD0546914589
:1002C80037050F40EF202071F5B5011106CE22CC7D
:1002D8000010EF2000162326A4FE8327C4FE93F700
:1002E8000720A1CB8145856713850780EF2080050E
:1002F800814513050008EF20E00E1755000013058F
:1003080065F7EF303050175600001306E6F79305EF
:1003180080025145EF10202C9387D19C05472380FC
:10032800E70081450145EF00A07885450545EF00C8
:100338002078B7070640FC4793F70720A5C3EF20AE
:10034800201D2A87B7070800F98FA9CB1755000089
:10035800130585F4EF30104B175600001306C6F44A
:10036800930580025145EF100027814537050002AB
:10037800EF10507D9387D19C83C7070085C393876F
:10038800D19C2380070085450145EF0060728145B7
:100398000545EF00E071A9450145112B8327C4FEEF
:1003A800898B6385070E8545B7070002138507010A
:1003B800EF105079930704FE3E85EF1030529307F3
:1003C80004FE3E85EF10D03C834784FEBE858347FC
:1003D80094FE3E868347A4FEBE86834724FE3E875E
:1003E800834714FE3E85834704FE3E88AA87175537
:1003F8000000130565ECEF30302517560000130692
:10040800A6ED9305200313058002EF10C01C834757
:1004180084FE3E869305200313058002552817564F
:100428000000130626EC9305200313054003EF1084
:10043800801A834794FE3E86930520031305A00384
:100448004128175600001306E6E993052003130513
:100458006004EF1040188347A4FE3E8693052003EE
:100468001305C004B5209387D19C83C7070091CB9F
:1004780017550000130545E7EF30101D0545512BB2
:1004880019A0014579232945EF30B01F0100F2403A
:10049800624405618280411122C60008B7C7000284
:1004A800E1179443B74700022167369798C39387AB
:1004B800C19C83C7070093B7170093F7F70F3E87D0
:1004C8009387C19C2380E700010032444101828068
:1004D800797106D622D40018AA872E87232CC4FC4B
:1004E800A30FF4FCBA87230FF4FC032784FDA54768
:1004F80063E1E7040347E4FD8347F4FD13060003C3
:10050800BA853E85EF00307B8347F4FD990713F7E2
:10051800F70F832784FD93F7F70F9387070393F665
:10052800F70F8347E4FD3686BE853A85EF00B0783D
:10053800F1A4032784FDA54763F2E708032784FD98
:100548009307300663ECE706032784FDA947B357F2
:10055800F70293F7F70F9387070393F6F70F03470D
:10056800E4FD8347F4FD3686BA853E85EF00B07416
:100578008347F4FD990713F5F70F832784FD13F7D5
:10058800F70F832684FDA947B3D7F60293F7F70F31
:10059800BE86B6878A07B697860793F7F70FB3071D
:1005A800F74093F7F70F9387070313F7F70F83477E
:1005B800E4FD3A86BE85EF00107089A4032784FD08
:1005C8009307300663F0E70E032784FD9307703E18
:1005D80063EAE70C032784FD93074006B357F70245
:1005E800A307F4FE8347F4FE9387070393F6F70FF8
:1005F8000347E4FD8347F4FD3686BA853E85EF0060
:10060800906B0347F4FE93074006B307F7023E8753
:10061800832784FD3387E740A947B357F7022307A9
:10062800F4FE8347F4FD990713F7F70F8347E4FEB9
:100638009387070393F6F70F8347E4FD3686BE8555
:100648003A85EF005067832784FD13F7F70F834639
:10065800F4FE93074006B387F60293F7F70FB30744
:10066800F74093F6F70F0347E4FEBA878A07BA976D
:10067800860793F7F70FB387F640A306F4FE834780
:10068800F4FDB10713F7F70F8347D4FE93870703E9
:1006980093F6F70F8347E4FD3686BE853A85EF006B
:1006A8009061A9AA032784FD9307703E63F8E714B5
:1006B800032784FD89679387F77063E1E7140327AD
:1006C80084FD9307803EB357F7022306F4FE834761
:1006D800C4FE9387070393F6F70F0347E4FD8347A8
:1006E800F4FD3686BA853E85EF00F05C0347C4FE0C
:1006F8009307803EB307F7023E87832784FD33873D
:10070800E74093074006B357F702A305F4FE834773
:10071800F4FD990713F7F70F8347B4FE9387070390
:1007280093F6F70F8347E4FD3686BE853A85EF00DA
:1007380090580347C4FE9307803EB307F7023E87ED
:10074800832784FD998F8346B4FE130740063387B9
:10075800E6023387E740A947B357F7022305F4FEBB
:100768008347F4FDB10713F7F70F8347A4FE938778
:10077800070393F6F70F8347E4FD3686BE853A856F
:10078800EF007053832784FD13F7F70F8347C4FEE8
:10079800BE868A07B387F6408E0793F7F70FB3072D
:1007A800F74013F7F70F8346B4FE93074006B38765
:1007B800F60293F7F70FB307F74093F6F70F0347DF
:1007C800A4FEBA878A07BA97860793F7F70FB38705
:1007D800F640A304F4FE8347F4FDC90713F7F70FA7
:1007E800834794FE9387070393F6F70F8347E4FD47
:1007F8003686BE853A85EF00104C09A00100B2503C
:10080800225445618280411106C622C4000893879C
:10081800C1A023A007009387C1A023A20700938744
:10082800C1A0054798C79387C1A0054798CB938770
:10083800C1A023A607001386C1A0BD4537050840FF
:10084800EF10D0720100B240224441018280411170
:1008580006C622C4000897000170E7806090B707B9
:10086800000223A00700B74700029443B7470002DD
:100878002167369798C397000170E780C08D81453E
:100888000565EF20E07DB707064037B755851307A4
:1008980017AA98C3B70706409847B70706401367D3
:1008A800370098C70100B2402244410182801D717F
:1008B80086CEA2CC80102326A4FA2324B4FA930768
:1008C80044FE3E85EF109001930744FE3E85EF10ED
:1008D800206C0347E4FE832784FA93F7F70FBA974F
:1008E80093F7F70F2307F4FE0347D4FE8346E4FE8D
:1008F8009307C003B3D7F60293F7F70FBA9793F7A6
:10090800F70FA306F4FE0347E4FE9307C003B3778B
:10091800F70293F7F70F2307F4FE0347D4FE832764
:10092800C4FA93F7F70FBA9793F7F70FA306F4FEF5
:100938000347C4FE8346D4FE9307C003B3D7F60229
:1009480093F7F70FBA9793F7F70F2306F4FE0347C9
:10095800D4FE9307C003B377F70293F7F70FA30604
:10096800F4FE232E04FA232004FC232204FC23246F
:1009780004FC232604FC232804FC232A04FC232C3F
:1009880004FC232E04FC232004FE85472324F4FCC6
:100998008547232AF4FC8547232EF4FC930744FE5D
:1009A8003E85EF1040698347D4FE230CF4FC83474F
:1009B800E4FE2300F4FE8347C4FE2308F4FC8347C7
:1009C80064FEA302F4FC9307C4FBBE85130500086C
:1009D800EF107005854513050008EF10B020930748
:1009E80044FE3E85EF10C05A8347C4FE3E878347C6
:1009F800D4FE3E868347E4FEBE86BA8517550000BE
:100A080013058591EF3040440100F64066442561A6
:100A18008280011106CE22CC00102326A4FE17F7EF
:100A2800FF6F1307A75D8327C4FE8E07BA9783C796
:100A38006700B337F00093F7F70F93C7170093F7E2
:100A4800F70F858B13F7F70F97F6FF6F9386065B03
:100A58008327C4FE8E07B6972383E70017F7FF6F37
:100A68001307C7598327C4FE8E07BA97944317F70D
:100A7800FF6F1307A7588327C4FE8E07BA9783D53D
:100A8800470017F7FF6F130767578327C4FE8E07C2
:100A9800BA9783C7670093C7170093F7F70F3E8687
:100AA8003685EF1050730100F24062440561828080
:100AB800011106CE22CC00102326A4FE2324B4FE66
:100AC800832784FEB337F00013F7F70F97F6FF6F0D
:100AD8009386C6528327C4FE8E07B6972383E70002
:100AE80017F7FF6F130787518327C4FE8E07BA973E
:100AF800944317F7FF6F130767508327C4FE8E07C9
:100B0800BA9703D74700832784FE93B7170093F754
:100B1800F70F3E86BA853685EF10F06B0100F2407C
:100B2800624405618280797106D622D40018232692
:100B380004FE45A897570000938747808C43D0430D
:100B48009447D8479C4B232CB4FC232EC4FC232069
:100B5800D4FE2322E4FE2324F4FE17F7FF6F1307C5
:100B6800E7498327C4FE8E07BA97944317F7FF6FA8
:100B78001307C7488327C4FE8E07BA9783D7470051
:100B8800130784FD3A86BE853685EF10303E17F789
:100B9800FF6F1307A7468327C4FE8E07BA979443AF
:100BA80017F7FF6F130787458327C4FE8E07BA9789
:100BB80083D5470017F7FF6F130747448327C4FE01
:100BC8008E07BA9783C7670093C7170093F7F70F85
:100BD8003E863685EF1030608327C4FE85072326BE
:100BE800F4FE0327C4FE8D47E3D6E7F401000100B5
:100BF800B250225445618280197186DEA2DC000160
:100C08002326A4F8930704FB3E85EF1000308145A6
:100C18000565EF20E044054685450945EF00706A03
:100C280085472326F4FC8145B7271002138587835F
:100C3800EF104071B707200C23A00700B707000C7E
:100C48009387C702054798C3B727000C9443B72773
:100C5800000C7D771307F77F758F98C3B707200CB3
:100C680091072D4798C397F00070E7802050A1673F
:100C78002326F4FE232004FC930704FB3E85EF1093
:100C8800E0050325C4F8EF10003B0546854503251C
:100C9800C4F8EF10404A8547232EF4F885472320EF
:100CA800F4FA85472322F4FA9307C4F93E85EF1036
:100CB800007B85472320F4FC8327C4FE232AF4FC09
:100CC800930704FB3E85EF1060018545B7170002C6
:100CD80013850781EF100067B727000C9443B727E7
:100CE800000C056713070780558F98C30100F6505D
:100CF800665409618280397106DE22DC80008547EE
:100D08002326F4FCB7177A00938707202328F4FCDE
:100D18008947232AF4FC8547232CF4FC9947232E82
:100D2800F4FC91472320F4FE232204FE93070010CD
:100D38002324F4FE9307C4FC3E85EF10504D232670
:100D4800A4FE0327C4FE85476305F7000545EF2089
:100D5800907D81450D45EF2000142326A4FE03272E
:100D6800C4FE85476305F7000545EF20D07B0100E9
:100D7800F250625421618280597186D6A2D48018BB
:100D88009307C4FA3E85EF20105DF167938707202B
:100D98002328F4FA9307C4FABE8537850040EF206C
:100DA800B02D8547232CF4F88547232EF4F8854782
:100DB8002320F4FA232404FA232204FA930784F95B
:100DC8003E86854537850840EF10501A232C04F8D5
:100DD800930784F93E86894537850840EF10101936
:100DE800854537850040EF2010610100B650265434
:100DF80065618280011122CE00102326A4FE01A085
:100E08000100724405618280011122CE0010232660
:100E1800A4FE0327C4FE85476304F700DD5711A02D
:100E280081473E85724405618280011106CE22CC3D
:100E380000102326A4FE2324B4FE2322C4FE032785
:100E4800C4FE85476304F700DD5719A8032644FE4E
:100E5800832584FE37850040EF203061832744FED8
:100E68003E85F240624405618280011106CE22CCA3
:100E780000102326A4FE2324B4FE0327C4FE8547BE
:100E88006304F700DD5709A813068005814503258B
:100E980084FEEF20F07081473E85F2406244056190
:100EA8008280011106CE22CC00102326A4FE032541
:100EB800C4FE89370100F24062440561828079717D
:100EC80022D60018232EA4FC8327C4FD2326F4FE73
:100ED800938701949C430327C4FD6378F7009387A5
:100EE80001949C432326F4FE2DA0938701949843F4
:100EF800938781949C43BA970327C4FD63FBE7005B
:100F0800938701949843938781949C43BA972326A7
:100F1800F4FE8327C4FE3E85325445618280011168
:100F280006CE22CC00102326A4FE0325C4FE953F3E
:100F3800797106D622D40018232EA4FC9387019D2C
:100F48009C4381EB0145A53FAA873E879387019D76
:100F580098C39387019D9C432326F4FE8327C4FDF1
:100F68000327C4FEBA972324F4FE832784FE3E8514
:100F7800B937AA872322F4FE032744FE832784FE79
:100F8800631AF7009387019D032744FE98C38327BC
:100F9800C4FE11A0FD573E85B2502254456182809F
:100FA800011106CE22CC00102326A4FE2324B4FE71
:100FB8002322C4FE032644FE832584FE0325C4FEA3
:100FC800AD35AA873E85F2406244056182800111F1
:100FD80006CE22CC00102326A4FE0325C4FE2D3500
:100FE800AA873E85F240624405618280011106CEDF
:100FF80022CC00102326A4FE2324B4FE832584FEDD
:101008000325C4FE9D35AA873E85F24062440561EA
:101018008280011106CE22CC00102326A4FE2324B0
:10102800B4FE2322C4FEEF20B04F2A879307800521
:101038001CC3FD573E85F240624405618280011160
:1010480006CE22CC00102326A4FEEF20704D2A875E
:10105800930780051CC3FD573E85F2406244056135
:101068008280011106CE22CC00102326A4FE232460
:10107800B4FE2322C4FEEF20B04A2A8793078005D6
:101088001CC3FD573E85F240624405618280797138
:1010980006D622D40018AA87232CE4FCA30FF4FC5C
:1010A800AE87230FF4FCB287A30EF4FCB687230E99
:1010B800F4FC8347C4FD8D8393F7F70F2322F4FED6
:1010C8009387019B9C439C439D8B91C7832744FE38
:1010D80085072322F4FE232404FE95A8232604FE74
:1010E800A1A88327C4FE13F7F70F8347F4FDBA9727
:1010F80093F6F70F832784FE93F7F70F8E0713F7FE
:10110800F70F8347E4FDBA9793F5F70F0347D4FD2C
:10111800832784FE3307F7028327C4FEBA97032781
:1011280084FDBA9783C707003E8636852D28832716
:10113800C4FE85072326F4FE8347D4FD0327C4FE97
:10114800E361F7FA832784FE85072324F4FE032747
:1011580084FE832744FEE363F7F801000100B250E0
:10116800225445618280797106D622D40018AA8754
:10117800AE863287A30FF4FCB687230FF4FCBA8738
:10118800A30EF4FC8307F4FD93F7F70F9D8313F781
:10119800F70F8347E4FD93B7070493C7170093F746
:1011A800F70FD98F93F7F70F639207308347F4FD52
:1011B800998393F7F70F3E85FD298347F4FD93F74D
:1011C800F703A30FF4FC8347E4FD8D8393F7F70F30
:1011D8002326F4FE8347E4FD9D8B2324F4FE214758
:1011E800832784FEB307F7402322F4FE8327C4FE37
:1011F80093F7F70F93E787FB93F7F70F3E852123C4
:101208008347F4FD93E7070493F7F70F3E85E52935
:10121800692DAA872320F4FE8327C4FE93F7F70FCE
:1012280093E787FB93F7F70F3E85F1298347F4FD92
:1012380093E7070493F7F70F3E85F1219387819D84
:101248009C431147636FF70E1397270097470000D9
:1012580093870710BA979843974700009387470FDB
:10126800BA9782870347D4FD832784FEB317F70014
:1012780013F7F70F832704FE93F7F70FD98F93F728
:10128800F70F3E85252375A80347D4FD832784FEE1
:10129800B317F70013F7F70F832704FE93F7F70F39
:1012A800B98F93F7F70F3E85112361A88347D4FDC3
:1012B80093C7F7FF93F7F70F3E87832784FEB3178B
:1012C800F70013F7F70F832704FE93F7F70FD98F6B
:1012D80093F7F70F3E85D929ADA08347D4FD93C76F
:1012E800F7FF93F7F70F3E87832784FEB317F700BE
:1012F80013F7F70F832704FE93F7F70FB98F93F7C8
:10130800F70F3E85652135A8832744FE1307F00FA4
:10131800B357F74013F7F70F832704FE93F7F70F38
:10132800F98F13F7F70F8346D4FD832784FEB3970D
:10133800F60093F7F70FD98F93F7F70F3E85BD2186
:101348000100832784FE638407168327C4FE93F76E
:10135800F70F850793F7F70F93E787FB93F7F70FD7
:101368003E8555268347F4FD93E7070493F7F70F67
:101378003E85512E1D2BAA872320F4FE8327C4FE09
:1013880093F7F70F850793F7F70F93E787FB93F723
:10139800F70F3E858D2E8347F4FD93E7070493F7F7
:1013A800F70F3E858D269387819D9C431147636087
:1013B800F71013972700974700009387A7FABA9763
:1013C8009843974700009387E7F9BA9782870347BE
:1013D800D4FD832744FEB357F74013F7F70F83274D
:1013E80004FE93F7F70FD98F93F7F70F3E857D2EFD
:1013F8007DA80347D4FD832744FEB357F74013F76E
:10140800F70F832704FE93F7F70FB98F93F7F70FBA
:101418003E85692E69A88347D4FD93C7F7FF93F7E4
:10142800F70F3E87832744FEB357F74013F7F70FAC
:10143800832704FE93F7F70FD98F93F7F70F3E85AD
:10144800B526B5A08347D4FD93C7F7FF93F7F70FE9
:101458003E87832744FEB357F74013F7F70F8327D8
:1014680004FE93F7F70FB98F93F7F70F3E853D2EDC
:101478003DA8832784FE1307F00FB317F70013F76F
:10148800F70F832704FE93F7F70FF98F13F7F70F7A
:101498008346D4FD832744FEB3D7F64093F7F70F6E
:1014A800D98F93F7F70F3E85112611A00100B2508E
:1014B800225445618280797106D622D40018AA8701
:1014C800AE863287A30FF4FCB687230FF4FCBA87E5
:1014D800A30EF4FC9387019B9C43D8478346D4FD15
:1014E8009387019B9C43DC43B386F6029387019B59
:1014F8009C439C439D8B81CB9387019B9C439C433E
:101508008D83850731A09387019B9C439C438D83E2
:10151800B387D702BA972320F4FE9387019B9C4395
:101528009C438D832322F4FE9387019B9C439C4319
:101538009D8B91C7832744FE85072322F4FE23242D
:1015480004FEB5A8232604FEB1A88327C4FE13F71A
:10155800F70F8347F4FDBA9793F6F70F832784FEB6
:1015680093F7F70F8E0713F7F70F8347E4FDBA9742
:1015780093F5F70F9387019B9C43D843832784FEF9
:101588003307F7028327C4FEBA97032704FEBA97E6
:1015980083C707003E863685F9368327C4FE85074C
:1015A8002326F4FE9387019B9C43DC430327C4FE58
:1015B800E36DF7F8832784FE85072324F4FE0327C9
:1015C80084FE832744FEE36FF7F601000100B25062
:1015D800225445618280797106D622D40018AA87E0
:1015E8002E87232CC4FCA30FF4FCBA87230FF4FC2A
:1015F800232604FEB1A09387019B9C43DC4313F789
:10160800F70F8327C4FE93F7F70FB307F70213F713
:10161800F70F8347F4FDBA9793F6F70F032784FD76
:101628008327C4FEBA9703C707008347E4FD3A86B9
:10163800BE85368549358327C4FE85072326F4FEF3
:10164800032784FD8327C4FEBA9783C70700C5F71D
:1016580001000100B250225445618280411106C642
:1016680022C400081D290546A14537850840EF100A
:10167800803625210146A14537850840EF10A03561
:101688000100B240224441018280411106C622C4B1
:1016980000080146C14537050840EF10C033F52E54
:1016A8000546C14537050840EF10E0320100B24059
:1016B800224441018280011106CE22CC001023264B
:1016C800A4FE01469305000337850840EF10A030BB
:1016D8008327C4FEC207C1838507C207C183920757
:1016E800C207C1830546BE8537850840EF10A02E86
:1016F800B5379387419D0327C4FE98C30100F24084
:10170800624405618280797106D622D40018AA87BE
:10171800A30FF4FC0146914537850840EF10A02B34
:101728000146916537850840EF10E02AB7870840E1
:10173800D443B78708401167130707FC558FD8C3F0
:1017480037850840EF102024AA873E87F1779387D2
:10175800F703F98F2317F4FE8347F4FD9A071397CD
:10176800070141878317E4FED98FC207C187231772
:10177800F4FE8357E4FEBE8537850840EF10E01A73
:10178800F13DB7870840D443B787084071771307FE
:10179800F703758FD8C30546916537850840EF1064
:1017A80080230100B250225445618280797106D6A7
:1017B80022D40018AA87A30FF4FC05469145378563
:1017C8000840EF1040210146916537850840EF1029
:1017D8008020B7870840D443B787084011671307AC
:1017E80007FC558FD8C337850840EF10C019AA8762
:1017F8003E87F1779387F703F98F2317F4FE834722
:10180800F4FD9A071397070141878317E4FED98FE0
:10181800C207C1872317F4FE8357E4FEBE853785C8
:101828000840EF1080101D3DB7870840D443B787A4
:10183800084071771307F703758FD8C3054691657C
:1018480037850840EF1020190100B2502254456135
:101858008280011106CE22CC0010014691453785C1
:101868000840EF104017152C0546A145378508405C
:10187800EF1060161D24152437850840EF10A010BE
:10188800AA87998393F7F70F2326F4FE0146A1450B
:1018980037850840EF1020148327C4FE93F7F70F0D
:1018A8003E85F240624405618280011106CE22CC59
:1018B80000100546914537850840EF10C011F12A00
:1018C800713BE12A0546A14537850840EF10A01075
:1018D800E922E12237850840EF10E00AAA879983B8
:1018E80093F7F70F2326F4FE0146A14537850840F4
:1018F800EF10600E8327C4FE93F7F70F3E85F24082
:10190800624405618280011106CE22CC0010814517
:101918004165EF10E074814537050200EF1040740F
:10192800938701A2054798C3938701A223A20700C2
:10193800938701A2054798C7938701A223A80700A8
:10194800938701A223A60700138601A2C145370584
:101958000840EF00B0610146C14537050840EF1067
:101968008007138601A2A1679385C7FF37850840C2
:10197800EF00D05F193B1522232604FE2DA0032576
:10198800C4FE153B13050008C5201305F003A53B4D
:1019980013050002D1281305000CB5338327C4FEB4
:1019A80085072326F4FE0327C4FE8547E3F9E7FCF1
:1019B80001000100F240624405618280011106CEF7
:1019C80022CC0010232204FEB5A0032544FEE531F5
:1019D800130500085128130500043533232604FE97
:1019E80081A08327C4FE93F7F70F93E787FB93F74C
:1019F800F70F3E85093B232404FE01A801457D33EA
:101A0800832784FE85072324F4FE032784FE930797
:101A1800F003E3F5E7FE8327C4FE85072326F4FEDB
:101A28000327C4FE9D47E3FEE7FA832744FE8507A4
:101A38002322F4FE032744FE8547E3F8E7F8010074
:101A48000100F240624405618280011106CE22CC79
:101A580000100135AA872326F4FE8327C4FE3E859D
:101A6800F240624405618280797106D622D400185A
:101A7800232EA4FCD93F2326A4FE21A0F937232630
:101A8800A4FE0327C4FE8327C4FDF98FE5FB0100EC
:101A98000100B250225445618280011122CE00100B
:101AA800BD472326F4FE31A08327C4FEFD17232655
:101AB800F4FE8327C4FEEDFB0100010072440561BA
:101AC8008280397106DE22DC80002326A4FC2324D0
:101AD800B4FC2322C4FC8327C4FC81EB896723243C
:101AE800F4FE91672322F4FE25A00327C4FC854752
:101AF800631AF700930700022324F4FE8567232264
:101B0800F4FE39A085472324F4FE91472322F4FEEE
:101B1800EF00B03F832744FC91CBB70706409847B6
:101B2800B70706401367270098C701A8B7070640FC
:101B38009847B7070640759B98C7232004FE83275C
:101B480084FC89EFB70706409447832784FE13C7B0
:101B5800F7FFB7070640758F98C731A20327C4FC63
:101B680089476311F70CA30F04FC7DA0B707064053
:101B78009C47232CF4FC832784FD9D9B232CF4FC99
:101B88008347F4FD8E07032784FDD98F232CF4FCAB
:101B9800032784FD832784FED98F232CF4FCB70701
:101BA8000640032784FD98C7232604FE29A8B70703
:101BB80006409847832744FEF98F89EF8327C4FEA0
:101BC80085072326F4FE0327C4FE9307703EE3F03F
:101BD800E7FE11A001000327C4FE9307703E63E1EE
:101BE800E708032544FEEF00902C2320A4FE0327DA
:101BF80004FE85476308F706B7070640944783271E
:101C080084FE13C7F7FFB7070640758F98C7834749
:101C1800F4FD8507A30FF4FC0347F4FD8D47E3F7B4
:101C2800E7F491A0B70706409447B7070640032793
:101C380084FE558F98C7032544FEEF0050272320C4
:101C4800A4FE832704FE85E3B7070640944783274D
:101C580084FE13C7F7FFB7070640758F98C721A002
:101C6800010011A00100EF00302D832704FE3E85FE
:101C7800F250625421618280797122D60018232E95
:101C8800A4FC8327C4FD89EBB707064098479167F2
:101C9800F98F2324F4FE25A00327C4FD8547631A82
:101CA800F700B707064098478567F98F2324F4FEA5
:101CB80039A0B70706409C47918B2324F4FE83275D
:101CC80084FE89C785472326F4FE19A0232604FE2F
:101CD8008327C4FE3E85325445618280797106D6D9
:101CE80022D40018232EA4FC81450565EF10403747
:101CF8008327C4FDD84F8947631AF7008145B70782
:101D0800004013852700EF10A03531A88327C4FDB4
:101D1800D84F8D476319F7008145B70700401385F1
:101D28001700EF10E033EF00501EB7070640DC4302
:101D38002326F4FE8327C4FE93F707F82326F4FE30
:101D48008327C4FD9C4399C78327C4FE93E70704F0
:101D58002326F4FE8327C4FDDC4399C78327C4FEEA
:101D680093E707022326F4FE8327C4FD9C4799C7FF
:101D78008327C4FE93E787012326F4FE8327C4FD47
:101D8800DC4799CF8327C4FE93E747002326F4FE58
:101D98008327C4FDDC470327C4FED98F2326F4FE1E
:101DA800B70706400327C4FED8C38327C4FDDC4F0A
:101DB8000D47638CE7000D47636BF7020547638E99
:101DC800E70009476387E7001DA08D472326F4FE37
:101DD80015A089472326F4FE31A885472326F4FE5B
:101DE8008327C4FD98539387419B98C321A023263A
:101DF80004FE01008327C4FD9C4B99C78327C4FEBA
:101E080093E747002326F4FE8327C4FDDC4B89CBE8
:101E18000327C4FE856793870780D98F2326F4FE9E
:101E28008327C4FD9C4F81CB0327C4FEB70700025C
:101E3800D98F2326F4FE8327C4FD83C7C7028E07E4
:101E48003E878327C4FED98F2326F4FE8327C4FD4B
:101E58009C5B81EB0327C4FE9167D98F2326F4FE90
:101E6800B9A08327C4FD9C5B0D47638AE7020D4731
:101E7800636EF70205476386E7000947638AE70050
:101E880035A00327C4FE8D67D98F2326F4FE05A04D
:101E98000327C4FE8967D98F2326F4FE09A80327E0
:101EA800C4FE8567D98F2326F4FE11A00100B70769
:101EB80006400327C4FED8C78327C4FDD453B707F9
:101EC8000640370710007D17758F98CF8327C4FD0C
:101ED8009457B7070640370710007D17758FD8CB82
:101EE800B70706400327C4FD585B98CBB7070640E1
:101EF8000327C4FD185FD8CFEF007005EF00D003AB
:101F08000100B250225445618280011122CE001096
:101F18002326A4FE8327C4FE054798C38327C4FE4F
:101F280023A207008327C4FE23A607008327C4FE35
:101F3800054798CB8327C4FE23AA07008327C4FE3E
:101F480023AC07008327C4FE23AE07008327C4FE03
:101F5800216798D38327C4FE2167D8D38327C4FE7B
:101F6800054798D78327C4FE238607028327C4FE24
:101F780023A807028327C4FE23AA07028327C4FED7
:101F88000567130707E198DF010072440561828045
:101F9800011106CE22CC00102326A4FE8327C4FEFE
:101FA80083C707003E85512BAA873E878327C4FE37
:101FB8002380E7008327C4FE83C717003E85B52B1F
:101FC800AA873E878327C4FEA380E7008327C4FE31
:101FD80083C727003E859523AA873E878327C4FEAB
:101FE8002381E7008327C4FE83C787003E85B1238A
:101FF800AA873E878327C4FE2384E7008327C4FE7D
:1020080083C797003E85152BAA873E878327C4FE82
:10201800A384E7008327C4FE83C7A7003E85312B2E
:10202800AA873E878327C4FE2385E7000100F24084
:10203800624405618280011106CE22CC001023265D
:10204800A4FE8327C4FE83C707003E850D2BAA87FD
:102058003E878327C4FE2380E7008327C4FE83C707
:1020680017003E85292BAA873E878327C4FEA380B5
:10207800E7008327C4FE83C727003E850923AA8774
:102088003E878327C4FE2381E7008327C4FE83C7D6
:1020980087003E85ED21AA873E878327C4FE2384D7
:1020A800E7008327C4FE83C797003E85C929AA870E
:1020B8003E878327C4FEA384E7008327C4FE83C723
:1020C800A7003E856D29AA873E878327C4FE2385FE
:1020D800E7000100F240624405618280797106D60A
:1020E80022D40018232EA4FCB7070640DC5323266D
:1020F800F4FEB70706409C572324F4FEB7070640B2
:10210800DC530327C4FE630CF700B7070640DC5313
:102118002326F4FEB70706409C572324F4FE032623
:10212800C4FD8325C4FE032584FE5D210100B25051
:10213800225445618280797106D622D40018232E54
:10214800A4FC232CB4FC232AC4FC832784FD81E748
:10215800832744FDE1C7552B832784FDA5C3832727
:10216800C4FD83C70700C2072326F4FE8327C4FDE6
:1021780083C737001397D700C167FD17F98F032767
:10218800C4FED98F2326F4FE8327C4FD83C7170016
:10219800A2070327C4FED98F2326F4FE8327C4FD94
:1021A80083C727003E878327C4FED98F2326F4FEE2
:1021B800B70706400327C4FE98D7512B832744FD51
:1021C800A9CF8327C4FD83C78700C2072326F4FE4F
:1021D8008327C4FDDC4381CB0327C4FEB707400037
:1021E800D98F2326F4FE8327C4FD83C79700A2074F
:1021F8000327C4FED98F2326F4FE8327C4FD83C793
:10220800A7003E878327C4FED98F2326F4FEB7078D
:1022180006400327C4FED8D31D2B392B0100B2502A
:10222800225445618280797106D622D40018232E63
:10223800A4FC232CB4FCD129832784FD83C747023F
:102248002326F4FE832784FD9C5399E78327C4FE45
:1022580093E707082326F4FE832784FD83C7C70175
:10226800A2070327C4FED98F2326F4FE832784FD03
:102278009C4F99E70327C4FEA167D98F2326F4FE54
:10228800832784FD83C74701C2070327C4FED98F6C
:102298002326F4FE832784FD9C4B81CB0327C4FEB1
:1022A800B7074000D98F2326F4FE832784FDDC4737
:1022B80081EB0327C4FEB7078000D98F2326F4FEDD
:1022C800832784FDDC4381EF832784FD83C7970040
:1022D800E2070327C4FED98F2326F4FE15A083271F
:1022E80084FD83C78700E2070327C4FED98F23260E
:1022F800F4FE0327C4FEB7070040D98F2326F4FE57
:10230800832784FD9C4381EB0327C4FEB707008025
:10231800D98F2326F4FE0327C4FD9307000863180A
:10232800F700B70706400327C4FED8D731A0B70780
:1023380006400327C4FE98DB01210100B250225455
:1023480045618280011106CE22CC00102326A4FE0E
:102358002324B4FE5D2E0327C4FEC167FD17F98F41
:102368008DCB832784FE99CBB70706409453B707D4
:1023780006400327C4FE558F98D321A8B707064007
:1023880094538327C4FE13C7F7FFB7070640758F1A
:1023980098D38327C4FEC1832326F4FE0327C4FEF3
:1023A800C167FD17F98F8DCB832784FE99CBB707BB
:1023B8000640F447B70706400327C4FE558FF8C701
:1023C80021A8B7070640F4478327C4FE13C7F7FFC1
:1023D800B7070640758FF8C785260100F2406244AA
:1023E80005618280011106CE22CC00102326A4FEAE
:1023F8002324B4FE192E832784FE99CBB707064001
:102408009453B70706400327C4FE558F98D321A8D5
:10241800B707064094538327C4FE13C7F7FFB707CF
:102428000640758F98D3092E0100F2406244056179
:102438008280011122CE0010B70706409C53232644
:10244800F4FE0327C4FE896793877760F98F2326F4
:10245800F4FE8327C4FE3E85724405618280011123
:1024680006CE22CC00102326A4FE4524B70706403A
:10247800F847B70706401377F7FBF8C7B7070640D2
:10248800F4478327C4FE9C4713976700B7070640A5
:10249800558FF8C7B7070640F847B70706401377C0
:1024A800F7F7F8C7B7070640F4478327C4FEDC47A9
:1024B80013977700B7070640558FF8C7B707064048
:1024C800F847B70706401377F7EFF8C7B70706408E
:1024D800F4478327C4FE9C4B13978700B707064031
:1024E800558FF8C78327C4FEDC43BE853705000235
:1024F800913D212CB7070640F847B70706401367F8
:102508000702F8C7152C0100F24062440561828079
:10251800011122CE0010B7070640FC472326F4FE1F
:102528000327C4FEB7073F00F98F2326F4FE83274D
:10253800C4FE3E85724405618280797122D60018F6
:10254800AA87A30FF4FC8347F4FD918393F7F70F51
:102558003E87BA878A07BA978607A307F4FE834798
:10256800F4FDBD8B13F7F70F8347F4FEBA97A30763
:10257800F4FE8347F4FE3E853254456182807971CA
:1025880022D60018AA87A30FF4FC0347F4FDA94735
:10259800B357F70213F7F70FA947B377F702A30763
:1025A800F4FE8347F4FE9207A307F4FE0347F4FD05
:1025B800A947B377F70213F7F70F8347F4FEBA97E3
:1025C800A307F4FE8347F4FE3E85325445618280BA
:1025D800011122CE00102326A4FE2324B4FE2322B8
:1025E800C4FE8327C4FEC18313F7F70F832744FE75
:1025F8002380E7008327C4FEB58393F7F70F9D8BED
:1026080013F7F70F832744FEA381E7008327C4FE4F
:10261800A18393F7F70FFD8B13F7F70F832744FE7A
:10262800A380E7008327C4FE93F7F70F93F7F70318
:1026380013F7F70F832744FE2381E700832784FEDF
:10264800C18393F7F70F93F7F70313F7F70F832770
:1026580044FE2384E700032784FEB7074000F98F70
:1026680091C7832744FE0547D8C329A0832744FE82
:1026780023A20700832784FEA18393F7F70F93F71C
:10268800F70713F7F70F832744FEA384E700832790
:1026980084FE93F7F70F93F7F70713F7F70F8327DE
:1026A80044FE2385E7000100724405618280797148
:1026B80022D60018232EA4FC232404FE29A8B70739
:1026C800064098478327C4FDF98F89EF832784FE46
:1026D80085072324F4FE032784FE9307703EE3F066
:1026E800E7FE11A00100032784FE9307703E63F5FF
:1026F800E700232604FE21A085472326F4FE83272E
:10270800C4FE3E85325445618280411122C60008CC
:10271800B707064037B75585130717AA98C311A0FE
:102728000100B70706409C5393F70704F5FB010027
:102738000100324441018280411122C60008B707D6
:10274800064023A007000100324441018280411164
:1027580022C600080100B70706409C5393F70704F8
:10276800FDFB01000100324441018280797106D6E7
:1027780022D40018232EA4FCAE87232AC4FC231DD0
:10278800F4FC0327C4FDB70708406316F700C167C8
:102798002326F4FE1DA80327C4FDB7870840631746
:1027A800F700B70702002326F4FE05A00327C4FD9F
:1027B800B70709406317F700B70704002326F4FE9C
:1027C80029A0B70700402326F4FE81450325C4FE4F
:1027D800EF00100985472315F4FE8D472322F4FEE8
:1027E800232004FE05AA0357A4FD8357A4FEF98FEE
:1027F800C207C183638107108327C4FDDC430357E5
:10280800A4FE1347F7FF7D8F8327C4FDD8C3832712
:10281800C4FDD843832744FD9443832704FEB3971C
:10282800F6005D8F8327C4FDD8C38327C4FDDC472A
:102838000357A4FE1347F7FF7D8F8327C4FDD8C72E
:102848008327C4FDD847832744FD9447832704FE84
:10285800B397F6005D8F8327C4FDD8C78327C4FDCF
:102868009C4B0357A4FE1347F7FF7D8F8327C4FDB6
:1028780098CB8327C4FD984B832744FDD4478327EF
:1028880004FEB397F6005D8F8327C4FD98CB83279A
:10289800C4FD984F832744FE93C7F7FF7D8F832796
:1028A800C4FD98CF8327C4FD984F832744FD944BDC
:1028B800832704FE8607B397F6005D8F8327C4FD40
:1028C80098CF8327C4FD9847832744FE93C7F7FF13
:1028D8007D8F8327C4FD98C78327C4FD9847832726
:1028E80044FDD443832704FE8607B397F6005D8F23
:1028F8008327C4FD98C78357A4FE86072315F4FED3
:10290800832744FE8A072322F4FE832704FE8507D3
:102918002320F4FE032704FEBD47E3D6E7EC0100BD
:102928000100B250225445618280797122D6001884
:10293800232EA4FCAE87231DF4FC8327C4FD9C43EF
:102948002326F4FE8327C4FDDC432324F4FE8327D7
:1029580084FE93C7F7FF0327C4FEF98F2326F4FEEE
:102968000357A4FD832784FEF98F0327C4FED98F5C
:102978002326F4FE8327C4FD0327C4FE98C3010061
:10298800325445618280011122CE00102326A4FE14
:102998008327C4FE9C43C207C1833E8572440561F8
:1029A8008280797122D60018232EA4FCAE87231DBD
:1029B800F4FC232604FE8327C4FD98438357A4FD13
:1029C800F98F81C785472326F4FE8327C4FE3E85F9
:1029D800325445618280011122CE00102326A4FEC4
:1029E800AE872322C4FE2315F4FE832744FE99C72D
:1029F8000357A4FE8327C4FE98D331A00357A4FE2F
:102A08008327C4FED8D3010072440561828079719E
:102A180006D622D426D20018232EA4FC232404FE92
:102A28008327C4FDD8439387019E98C38327C4FD99
:102A38009C4389EBB70702409847B7070240799B48
:102A480098C7A5A88327C4FD98438547631AF7004C
:102A5800B70702409847B7070240759B98C709A86F
:102A6800B70702409847B70702401367270098C77F
:102A7800B70702409847B70702401367170098C77F
:102A8800232604FE19A8B70702409C43918B91EFB7
:102A98008327C4FE85072326F4FE0327C4FEE167C7
:102AA8009387F769E3F1E7FE11A001000327C4FE4D
:102AB800E1679387F76963E9E7348327C4FD9C4797
:102AC80099C78327C4FD98478547631AF7020145CC
:102AD800EFF08F9A2A878547631AF7328327C4FD58
:102AE8009C4791E7B7177A009387072029A0B71763
:102AF8003D00938707901387419E1CC305A8B7071D
:102B080002409C43918B638507308327C4FD984717
:102B180089476316F7008327C4FDDC4329A0832770
:102B2800C4FDDC4385831387419E1CC3B70702405D
:102B3800D847B7070240719BD8C7B7070240D447A8
:102B48008327C4FD9847B7070240558FD8C7B707F2
:102B58000240DC4713F7470091476313F704B707B0
:102B68000240DC43A18B95E7B7070240DC478D8B19
:102B78002322F4FE832744FE91C7032744FE85479A
:102B88006319F700B707064098478967F98F638389
:102B98000728B7070240D847B70702406D9BD8C738
:102BA800B7070240D843B70702406D9BD8C38327B5
:102BB800C4FDDC4763800710B7070240D843B70756
:102BC80002405D9BD8C38327C4FDD8478547631F50
:102BD800F70037070240B70702405843D8C3832796
:102BE800C4FDD8439387819E98C339A8B70702408C
:102BF800D843B707024013678700D8C39387419E1D
:102C080098439387819E98C38327C4FD9C4B138761
:102C180017009387819E9C433307F702B787930376
:102C28009387077063EAE71EB7070240D843B707E0
:102C380002401377F78FD8C3B7070240D4438327DE
:102C4800C4FD9C4B13978700B7070240558FD8C324
:102C5800B7070240D843B707024013674700D8C3F5
:102C6800232604FE19A8B70702409C43898B91EFDD
:102C78008327C4FE85072326F4FE0327C4FEE167E5
:102C88009387F769E3F1E7FE11A001000327C4FE6B
:102C9800E1679387F76963E3E7188327C4FD9C4BD3
:102CA800138717009387819E9C433307F702938706
:102CB800819E98C38327C4FDD84B9147631FF700B3
:102CC800B70702409C43898B638C07149387819EC6
:102CD80098439387C19E98C339A09387419E984390
:102CE8009387C19E98C3B7070240D847B7070240E9
:102CF8006D9BD8C7B7070240D4478327C4FDD84B7C
:102D0800B7070240558FD8C7B7070240D847B7075B
:102D180002401377F7F0D8C78327C4FD9C4F3E8540
:102D2800EF005023AA8793964700B7070240D84779
:102D3800B7070240558FD8C79387C19E844383271E
:102D4800C4FD9C4F3E85EF00B029AA8733D7F40213
:102D58009387C19E98C38327C4FDDC4F81EB01454F
:102D6800EFE09FF12A878547631EF70AB7070240FD
:102D7800D847B70702401377F7CFD8C7B70702403D
:102D8800D4478327C4FDD84FB7070240558FD8C70B
:102D98009387C19E98439387819B98C38327C4FDDB
:102DA800DC4F130700306388E704130700306369BA
:102DB800F70413070020638BE70213070020636101
:102DC800F70491C713070010638BE70015A89387D2
:102DD800C19B37177A001307072098C315A093875C
:102DE800C19E98439387C19B98C319A89387C19B99
:102DF800216798C331A09387C19B216798C30100BD
:102E080085472324F4FE05A0010031A8010021A86C
:102E1800010011A8010001A8010031A0010021A0B2
:102E2800010011A00100832784FEB1EF014685450A
:102E38000145EFE01FC9B7070240D847B70702406E
:102E4800719BD8C737070240B70702405847D8C711
:102E5800B7070240D847B70702406D9BD8C7370766
:102E68000240B70702405847D8C7B7070240D843BF
:102E7800B70702406D9BD8C3B70702409847B7070A
:102E88000240799B98C7832784FE3E85B25022541E
:102E9800925445618280797122D60018232EA4FCB1
:102EA800232CB4FC85472322F4FE032784FD8D4799
:102EB800630CF706032784FD8D4763E8E7080327BB
:102EC80084FD89476301F704032784FD894763EE7E
:102ED800E706832784FD99C7032784FD8547630B8D
:102EE800F700A5A0232604FE9387419E9C43232434
:102EF800F4FEA9A885472326F4FE9387019F9C43E7
:102F08002324F4FEA1A0B70702409C43898B81E7E4
:102F1800232204FE25A889472326F4FE9387819E51
:102F28009C432324F4FE1DA0B70702409C43918BC9
:102F380081E7232204FE19A88D472326F4FE9387F0
:102F4800019E9C432324F4FE11A00100032744FEA4
:102F58008547631EF70E0327C4FD8D476301F70CF1
:102F68000327C4FD8D4763E6E70E0327C4FD8947A1
:102F7800630EF7060327C4FD894763ECE70C832734
:102F8800C4FD99C70327C4FD85476309F702D1A08B
:102F9800B7070240D84BB70702404D9BD8CBB707BD
:102FA8000240D44BB70702400327C4FE558FD8CB45
:102FB8009387819F032784FE98C369A8B7070240B7
:102FC800D84BB70702404D9BD8CBB7070240D44B2C
:102FD8008327C4FE13972700B7070240558FD8CB25
:102FE8009387419F032784FE98C3ADA0B70702408B
:102FF800984BB70702401377F7CF98CBB707024033
:10300800944B8327C4FE13978700B7070240558F58
:1030180098CB9387C19F032784FE98C325A8B70739
:103028000240984BB70702404D9B98CBB707024028
:10303800944B8327C4FE13972700B7070240558F88
:1030480098CB9387C19D032784FE98C321A00100D4
:1030580011A00100832744FE3E85325445618280D9
:10306800397106DE22DC26DA80002326A4FC23241C
:10307800B4FC0327C4FC8547630EF7000327C4FC90
:10308800B70700026308F7000327C4FCB70700046A
:10309800631BF70E032584FC252D232EA4FC032790
:1030A800C4FCB7070004630AF7040327C4FCB70786
:1030B800000463E0E7060327C4FC85476309F700BB
:1030C8000327C4FCB7070002630DF70099A0232665
:1030D80004FEB70700012322F4FE85472324F4FEEB
:1030E80015A8A1472326F4FEB70700022322F4FE01
:1030F800B70700022324F4FE31A8C1472326F4FEB3
:10310800B70700042322F4FEB70700042324F4FEC3
:1031180011A00100B7070240D4578327C4FE1D47FA
:10312800B317F70013C7F7FFB7070240758FD8D753
:10313800B7070240D4578327C4FE0327C4FD3317BB
:10314800F700B7070240558FD8D7B7070240D457C2
:10315800B7070240032744FE558FD8D7B707024068
:10316800D44FB7070240032784FE558FD8CF9387E3
:10317800C19D8443032584FCA525AA87B3D7F402FF
:103188002320F4FE35AB0327C4FC89476303F70209
:103198000327C4FC9147630EF7000327C4FC930779
:1031A80000086308F7000327C4FCB7070020631171
:1031B800F712032584FC292B232EA4FC0327C4FC27
:1031C800B70700206300F7080327C4FCB7070020EF
:1031D80063E6E7080327C4FC930700086308F704BD
:1031E8000327C4FC9307000863EAE7060327C4FC27
:1031F80089476308F7000327C4FC9147630DF7006C
:10320800B1A8232604FEB70700012322F4FE89474C
:103218002324F4FEA9A0A1472326F4FEB707000241
:103228002322F4FE91472324F4FE15A8C147232640
:10323800F4FEB70700042322F4FE930700082324B2
:10324800F4FE31A8ED472326F4FEB70700402322F9
:10325800F4FEB70700202324F4FE11A00100B707ED
:10326800024094578327C4FE1D47B317F70013C7BE
:10327800F7FFB7070240758F98D7B70702409457F2
:103288008327C4FE0327C4FD3317F700B70702409E
:10329800558F98D7B70702409457B70702400327BE
:1032A80044FE558F98D7B7070240D44FB70702405E
:1032B800032784FE558FD8CF9387C19D8443032568
:1032C80084FC392BAA87B3D7F4022320F4FECDAEB1
:1032D8000327C4FC91676303F7020327C4FCA167B3
:1032E800630EF7000327C4FCB70700086308F7005C
:1032F8000327C4FCB70700106311F712032584FCE9
:10330800C12E232EA4FC0327C4FCB70700106300BA
:10331800F7080327C4FCB707001063E6E70803278C
:10332800C4FCB70700086308F7040327C4FCB70701
:10333800000863EAE7060327C4FC91676308F700FF
:103348000327C4FCA167630DF700B1A8232604FE78
:10335800B707001F2322F4FE91672324F4FEA9A0D7
:10336800A1472326F4FEB707003E2322F4FEA167F7
:103378002324F4FE15A8C1472326F4FEB707007CD2
:103388002322F4FEB70700082324F4FE31A8CD4712
:103398002326F4FEB70700F82322F4FEB70700102F
:1033A8002324F4FE11A00100B7070240D453832759
:1033B800C4FE1D47B317F70013C7F7FFB70702404E
:1033C800758FD8D3B7070240D4538327C4FE032789
:1033D800C4FD3317F700B7070240558FD8D3B70796
:1033E8000240D453B7070240032744FE558FD8D371
:1033F800B7070240D44FB7070240032784FE558F12
:10340800D8CF9387C19D8443032584FCD12EAA87F6
:10341800B3D7F4022320F4FE65A40327C4FCB7073E
:10342800004089076309F7000327C4FCB707004079
:1034380085076315F70C032584FC292E232EA4FC8D
:103448000327C4FCB707004085076301F702032779
:10345800C4FCB707004089076311F7029147232688
:10346800F4FE930700202322F4FE09A8232604FE75
:10347800930700102322F4FE11A00100B7070240B1
:10348800944F8327C4FE3D47B317F70013C7F7FFD0
:10349800B7070240758F98CFB7070240944F83272C
:1034A800C4FE0327C4FD3317F700B7070240558F42
:1034B80098CFB7070240944FB7070240032744FE4E
:1034C800558F98CFB7070240D44FB707024005671A
:1034D800558FD8CF0327C4FCB70700408907631965
:1034E800F700B7177A00938707202320F4FEC9AAAC
:1034F8009387019E9C432320F4FED9A20327C4FC92
:10350800930700106307F7000327C4FC8967631358
:10351800F70E032584FC3D2C232EA4FC0327C4FCB2
:10352800930700106308F7000327C4FC8967630E3C
:10353800F70035A0A1472326F4FE89672322F4FE6D
:10354800930700102324F4FE19A891472326F4FEBC
:1035580085672322F4FE89672324F4FE0100B70758
:103568000240D44B8327C4FE3D47B317F70013C767
:10357800F7FFB7070240758FD8CBB7070240D44B87
:103588008327C4FE0327C4FD3317F700B70702409B
:10359800558FD8CBB7070240D44BB7070240032753
:1035A80044FE558FD8CBB7070240D44FB707024027
:1035B800032784FE558FD8CF0327C4FC9307001038
:1035C800631EF7009387819F8443032584FC092C9D
:1035D800AA87B3D7F4022320F4FEDDA09387419F86
:1035E8008443032584FCED2AAA87B3D7F402232059
:1035F800F4FEF9A00327C4FC930700206318F7061C
:10360800032584FCF120232EA4FCB7070240944B29
:10361800B707024071771307F73F758F98CBB70745
:103628000240944B8327C4FD1397A700B7070240B5
:10363800558F98CBB7070240944BB70702400967EC
:10364800558F98CBB7070240D84FB707024013678A
:103658000720D8CF9387C19F8443032584FC492240
:10366800AA87B3D7F4022320F4FE99A80327C4FC41
:10367800930700026318F702B7070240984BB70791
:1036880002401367070298CBB7070240D84FB70725
:10369800024013670702D8CF9387C19B9C4323201E
:1036A800F4FE39A8B7070240D44FB70702400327F2
:1036B800C4FC558FD8CF9387C19B9C432320F4FE2D
:1036C800832704FE3E85F2506254D25421618280E1
:1036D800797122D60018232EA4FC0327C4FD9D4728
:1036E80063E1E7068327C4FD1397270097270000A7
:1036F80093878728BA979843972700009387C72707
:10370800BA978287232604FE81A085472326F4FEE4
:1037180025A889472326F4FE05A88D472326F4FE0D
:1037280025A091472326F4FE05A095472326F4FEFD
:1037380021A899472326F4FE01A89D472326F4FED5
:1037480021A0232604FE01008327C4FE3E853254AF
:1037580045618280797122D60018232EA4FC0327A4
:10376800C4FDA14763E5E7068327C4FD1397270037
:103778009727000093874722BA9798439727000016
:1037880093878721BA978287232604FEA1A0A147A1
:103798002326F4FE81A0A5472326F4FE25A8A947E1
:1037A8002326F4FE05A8AD472326F4FE25A0B1473D
:1037B8002326F4FE05A0B5472326F4FE21A8B94721
:1037C8002326F4FE01A8BD472326F4FE21A02326C4
:1037D80004FE01008327C4FE3E8532544561828081
:1037E800797122D60018232EA4FC0327C4FDA14713
:1037F80063EAE7068327C4FD13972700972700008D
:103808009387C71BBA979843972700009387071B8E
:10381800BA97828785472326F4FE89A889472326F5
:10382800F4FEA9A091472326F4FE89A0A1472326E8
:10383800F4FE2DA8C1472326F4FE0DA89307000225
:103848002326F4FE25A0930700042326F4FE39A8B6
:10385800930700082326F4FE11A8930700102326D7
:10386800F4FE29A085472326F4FE01008327C4FE21
:103878003E853254456182805D7186C6A2C4800847
:10388800232EA4FA232CB4FA0327C4FBB7870040DD
:103898006316F70089472326F4FE15A80327C4FBFF
:1038A800B70701406316F70091472326F4FE05A0E9
:1038B8000327C4FBB78703406317F7009307000883
:1038C8002326F4FE29A0B70700202326F4FE832729
:1038D80084FB9C43BE850325C4FEEFF06FF82320CC
:1038E800A4FE832784FBDC438983032704FEB357A4
:1038F800F702232EF4FC8327C4FD9983232CF4FCC0
:10390800832784FD9A070327C4FDB307F740232ABA
:10391800F4FC832704FE13972700832784FD9396DE
:103928006700832744FDB697B357F7022328F4FCB2
:10393800832784FBDC43032704FDB307F740139771
:103948007700832784FBDC43B357F7022326F4FC74
:103958000327C4FC894763F5E700232404FEEDA28E
:103968008327C4FB032784FDD8D38327C4FB0327FD
:1039780044FD98D7232204FE832784FB9C5399C7D0
:10398800832744FE93E717002322F4FE832784FB52
:103998009C4B13076008638CE70213076008636C8D
:1039A800F704130720086381E704130720086364FA
:1039B800F70409476383E70419476383E70025A8E9
:1039C800832744FE93E747002322F4FE05A88327B4
:1039D80044FE93E747002322F4FE832744FE93E73F
:1039E80007082322F4FE19A8832744FE93E7070853
:1039F8002322F4FE21A0010011A00100832784FBEB
:103A0800DC47032744FED98F2322F4FE832784FB57
:103A18009C47032744FED98F2322F4FE832784FB87
:103A2800DC4B99C7832744FE93E707012322F4FE62
:103A38008327C4FB032744FED8D7232204FE832709
:103A480084FB9C4F99C7832744FE93E707102322E2
:103A5800F4FE832784FBDC4F99C7832744FE93E752
:103A680007202322F4FE832784FBBC430547638693
:103A7800E7000947638AE70005A8832744FE93E720
:103A880027002322F4FE0DA0832744FE93E7670056
:103A98002322F4FE032704FEB7271C003357F7023E
:103AA8008327C4FB98D30100832784FBDC5399C781
:103AB800832744FE93E707082322F4FE832784FB29
:103AC8009C5799C7832744FE93E707402322F4FEB7
:103AD800832784FBDC5789CB032744FE85679387BC
:103AE8000780D98F2322F4FE832784FB9C5B99C728
:103AF800032744FE8567D98F2322F4FE832784FB9E
:103B0800DC5B99C7032744FE8967D98F2322F4FE1B
:103B1800832784FB9C5F99C7032744FE9167D98F4D
:103B28002322F4FE832784FBDC5F99C7032744FE26
:103B3800A167D98F2322F4FE8327C4FB032744FE01
:103B480098DB85472324F4FE832784FE3E85B64010
:103B5800264461618280011122CE00102326A4FE32
:103B68008327C4FE23A007008327C4FE0967130721
:103B78000758D8C38327C4FE1307000698C78327AE
:103B8800C4FE23A607008327C4FE23A807008327B3
:103B9800C4FE0547D8CB8327C4FE054798CF8327A3
:103BA800C4FE0547D8CF8327C4FE23A00702832776
:103BB800C4FE23A207028327C4FE23A40702832787
:103BC800C4FE23A607028327C4FE23A8070283276F
:103BD800C4FE23AA07028327C4FE23AC0702832757
:103BE800C4FE23AE07028327C4FE23A007040100F6
:103BF800724405618280011122CE00102326A4FEA2
:103C08002324B4FE832784FE91CB8327C4FE9C5BC8
:103C180013E717008327C4FE98DB09A88327C4FE8F
:103C28009C5B13F7E7FF8327C4FE98DB010072440F
:103C380005618280011122CE00102326A4FEAE87E2
:103C48002315F4FE11A001008327C4FE9C4F93F7AF
:103C58000702F5FB8357A4FE13F7F71F8327C4FE5B
:103C680098C30100724405618280797106D622D416
:103C78000018232EA4FC232CB4FC232AC4FC83277D
:103C8800C4FDDC5793F70710C1C789A8832784FDB3
:103C9800850783C707002317F4FE8357E4FE8607CA
:103CA8002317F4FE832784FD83C7070013970701B2
:103CB80041838357E4FEBA972317F4FE8357E4FE43
:103CC800BE850325C4FDBD37832784FD8907232CC2
:103CD800F4FC832744FDF917232AF4FC032744FD49
:103CE8008547E3E5E7FA05A8832784FD83C707002E
:103CF800C207C183BE850325C4FD2D3F832784FDEC
:103D08008507232CF4FC832744FDFD17232AF4FCA4
:103D1800832744FDF1FB0100B250225445618280A3
:103D280003A5019C8280411122C406C693070000A6
:103D38002A8491C7814597000000E70000001725F5
:103D48000000032525D91C5591C382972285EFD001
:103D58000F9D411122C426C21304000093040000E1
:103D6800818C4AC006C689840149631199021304EB
:103D7800000093040000818C89840149631D990027
:103D8800B240224492440249410182801C40050904
:103D980011048297D9BF1C40050911048297F9BF05
:103DA8003D432A876373C3029377F700BDEFADE500
:103DB800937606FF3D8ABA960CC34CC30CC74CC712
:103DC8004107E36BD7FE11E28280B306C3408A063F
:103DD8009702000096966780A6002307B700A306FF
:103DE800B7002306B700A305B7002305B700A3044F
:103DF800B7002304B700A303B7002303B700A30247
:103E0800B7002302B700A301B7002301B700A3003E
:103E1800B7002300B700828093F5F50F93968500CD
:103E2800D58D93960501D58D61B793962700970296
:103E3800000096968682E78086FA9680C1171D8FC5
:103E48003E96E374C3F8A5B75D7122D406D62A84DA
:103E58002EDA32DC36DEBAC0BEC2C2C4C6C603A57C
:103E6800019C11C51C4D81E72AC6F12332450C453A
:103E78005418228636CEEF003020B25022546161A9
:103E88008280AA8503A5019C11CD1C4D81EF0111EB
:103E980006CE2EC62AC445232245B245F240104517
:103EA800056119A01045F5BF011122CC06CE2A8460
:103EB80001C91C4D91E732C62EC4B52B3246A24526
:103EC800972700009387C7B36315F60250401C4636
:103ED800FD171CC663DF0702184E63C7E70093F798
:103EE800F50F29476397E70222856244F24005618E
:103EF80031AA972700009387A7B26314F6001044ED
:103F0800F9B7972700009387A7ADE312F6FC504452
:103F18007DBF1C4213F5F50F1387170018C22380C5
:103F2800B700F240624405618280011126CA4AC87E
:103F380006CE22CC4EC652C4AA842E8901C51C4D79
:103F480091E3D5299C4C804499E32685ED21972758
:103F580000009387E7AA631CF402C0408357C4009B
:103F6800A18BB1C71C48A1C7FD59294A1C448345E8
:103F78000900FD17B1E91CC463DE07062286A945BE
:103F880026856920FD576308F502294535A097273E
:103F980000009387E7A86314F4008044C1B797270B
:103FA80000009387E7A3E31BF4FAC04445BFA2854A
:103FB8002685292A55D97D55F2406244D244424982
:103FC800B249224A056182801CC4050963D70700EB
:103FD800184C63CBE700638945011C401387170021
:103FE80018C02380B70059B7228626850520E31F0D
:103FF80035F7D1B71C401387170018C0294723800D
:10400800E70061B7AA8503A5019C05B7011122CC79
:1040180026CA4AC806CE4EC6AA842E89328401C54D
:104028001C4D91E30929972700009387679D631921
:10403800F406C0401C4C1CC48357C400A18BC9C3E0
:104048001C48BDCF1C4808409379F90F1379F90F24
:104058001D8D5C486346F500A2852685752C2DE5E7
:104068001C440505FD171CC41C401387170018C005
:10407800238037015C486389A7008357C400858B78
:1040880081CBA9476316F900A285268571240DED19
:10409800F2406244D244B2494A854249056182806D
:1040A800972700009387C7976314F400804459B793
:1040B800972700009387C792E31EF4F6C0449DBF7C
:1040C800A285268521203DDD7D59D9B7411122C41D
:1040D80026C24AC006C683A4019C2A892E8489C4A4
:1040E8009C4C99E32685812E97270000938747915A
:1040F8006317F402C0408317C4001397070193F6AF
:1041080087004183ADEA9376070195EA2547232086
:10411800E90093E707042316F4007D5571A8972753
:1041280000009387E78F6314F4008044E9B797276A
:1041380000009387E78AE310F4FCC0446DBF118B3D
:104148000DC74C5889C9930744046384F5004A8510
:10415800B923232A04028357C4002322040093F7B7
:10416800B7FD2316F4001C481CC08357C40093E70E
:1041780087002316F4001C4881EF8357C4001307F7
:10418800002093F707286385E700A2854A859529CB
:104198008317C4001397070193F6170041839DC244
:1041A800544823240400B306D04014CC14480145D5
:1041B80081E61377070831FFB2402244924402494E
:1041C8004101828093762700014691E2504810C44D
:1041D800F1BF83D7C500011122CC26CA06CE4AC832
:1041E8004EC613F78700AA842E8475E3D841634727
:1041F800E000B8416344E000014575A858546DDFFC
:10420800856603A90400F58F23A00400A5CF68489C
:104218008357C400918B99C75C401D8D5C5899C326
:104228003C401D8D5C540C502A8681462685829719
:10423800FD570357C400631DF5009440F54763E339
:10424800D708B70740208507B3D7D700858BBDCBE4
:104258001C48232204001CC085677D8F19C7FD57A1
:104268006314F5009C4091E368C84C5823A02401CE
:10427800C1D5930744046384F50026850D21232ABC
:1042880004029DBF0C508546014626850297FD57BE
:10429800E310F5F89C40ADDF75476385E7005947A3
:1042A8006395E70023A0240181BF8357C40093E7E7
:1042B80007042316F400F2406244D2444249B2494A
:1042C80005618280136707042316E400EDB783A90C
:1042D8000501E38309F203A905008D8B23A03501AD
:1042E80033093941014791E3D84918C4E35620F10D
:1042F8001C540C50CA864E8626858297634AA000B5
:104308008357C4007D5593E707042316F40065B767
:10431800AA993309A940D9BF9C49B9CF011122CC28
:1043280006CE2A8411C51C4D81E72EC62922B24526
:10433800971700009387C76C639BF5004C408397E1
:10434800C50095C722856244F240056159B59717A3
:1043580000009387E76C6394F5000C44CDB797177A
:1043680000009387E767E39CF5FC4C44C9BFF24023
:10437800624401450561828001458280411122C461
:1043880006C62A842316B5002317C5002320050076
:1043980023220500232405002322050623280500DF
:1043A800232A0500232C0500214681451305C50550
:1043B800EFF01F9F97070000938727785CD0970737
:1043C80000009387877A1CD4970700009387C77EDD
:1043D8005CD49717000093878781B24000D01CD81F
:1043E80022444101828097050000938525F381AA24
:1043F800411126C2130680069384F5FFB384C402D4
:104408004AC02E8922C406C693854407052E2A84ED
:1044180001CD2320050023222501310508C4138678
:1044280084068145EFF0DF97B2402285224492440A
:104438000249410182801C4DBDE3411122C406C6D8
:1044480097070000938767FA1CD5232405042326C1
:104458000504232805049717000083A7A7672A8463
:104468006314F50085471CCD22851D2848C0228588
:10447800052808C422852D2048C448400146914596
:10448800F53D08440546A545D53D48440946C94576
:10449800F5358547B2401CCC224441018280828098
:1044A800411126C29714000083A4C4629C4C4AC0E0
:1044B80006C622C42A8999E32685B53F93848404D5
:1044C8008044DC40FD1763D607009C40B9CF844088
:1044D800C5BF0317C40039E7C1778507232204063F
:1044E8002320040023220400232404005CC423287E
:1044F8000400232A0400232C0400214681451305C7
:10450800C405EFF0FF89232A0402232C0402232484
:10451800040423260404B24022852244924402491A
:10452800410182801304840671BF91454A85C935CB
:1045380088C02A8449FDB1472320F900E9BF797171
:1045480022D44AD04ECE52CC5AC85EC606D626D2FF
:1045580056CA2A892E8A130485048149054BFD5BB6
:104568000444832A4400FD1A63D00A0200406DF80F
:10457800B250225492540259624AD24A424BB24B28
:104588004E85F2494561828083D7C400637BFB0076
:104598008397E40063877701A6854A85029AB3E981
:1045A800A90093848406C1B75971CAD02E8983950E
:1045B800E500A2D4A6D286D63284B68463DC050090
:1045C8008317C90023A0040093F707088DE3930716
:1045D800004005A03000BD25E34405FE3247BD6715
:1045E800F98F7977BA9793B717009CC0CDB793071F
:1045F8000004B6501CC026549654065901456561FE
:10460800828083D7C500011122CC06CE26CA4AC8AB
:10461800898B2E8489CF930774041CC01CC88547D6
:104628005CC8F2406244D244424905618280740009
:1046380030002A89953FA245AA844A85012201EDC6
:104648008317C40013F7072069FFF19B93E727003E
:104658002316F400C9B797070000938707D92324C6
:10466800F9028357C40008C008C893E7070823164F
:10467800F400A2475CC8B24789CF8315E4004A8595
:10468800FD2301C98357C400F19B93E71700231644
:10469800F4000355C400C98C2316940059B7D1CD32
:1046A80083A7C5FF011122CC06CE1384C5FF63D3AF
:1046B80007003E942AC61D25138701A01C433245D6
:1046C80081EB2322040000C36244F240056101AD7E
:1046D800637DF4001040B306C4006396D70094438A
:1046E800DC43B29614C05CC0F9BF3E87DC4399C373
:1046F800E37DF4FE14433306D700631F86001040A1
:10470800B29614C33306D700E390C7FC9043DC434A
:10471800B29614C35CC34DBF6375C400B1471CC1D6
:1047280065B71040B306C4006396D7009443DC43D2
:10473800B29614C05CC040C341BF8280011126CA32
:1047480093843500F1984AC806CE22CC4EC6A104FF
:10475800B1472A8963F0F404B14463EFB4024A858F
:10476800B52B938601A098423A8431E0138441A086
:104778001C4089E781454A85592E08C0A6854A8587
:104788007926FD5963183507B1472320F9004A8572
:10479800B92331A0E3D304FCB1472320F900014534
:1047A800F2406244D2444249B249056182801C40C9
:1047B800858F63CE07022D466376F6001CC03E94B3
:1047C80004C029A05C40631287029CC24A85012B61
:1047D8001305B4009307440061993307F540E301DA
:1047E800F5FC3A94898F1CC065BF5CC3C5B72287A6
:1047F8004040A5BF130435007198E30385FCB30559
:10480800A4404A852926E31D35FBBDBF1C46FD177C
:104818001CC663DA0700184E63C5E700A94763940E
:10482800F5006FF0AFFE1C422E851387170018C2E3
:104838002380B7008280011122CC26CA4AC84EC6FE
:1048480052C406CE2A89AE893284B304D6007D5A72
:1048580063149400014509A8834504004E864A85DF
:1048680075370504E31645FFF2406244D2444249D5
:10487800B249224A05618280357122CD26CB4AC9C8
:104888004EC706CF52C556C35AC1DEDEE2DCE6DAB1
:10489800AA89AE843289368409C51C4D99E3EFF0A4
:1048A8009FB9971700009387A715639BF40C83A4FF
:1048B800490083D7C400A18BF5C79C48E5C7930777
:1048C8000002A304F1029307000302D22305F102B8
:1048D80022C6930B5002971A0000938A6A16054C59
:1048E800294B4A848347040099C36390770FB30C1C
:1048F8002441630D2401E6864A86A6854E85253F18
:10490800FD576304F51E9257E6973ED2834704008D
:10491800638D071CFD571309140002C802CE3ECA56
:1049280002CCA309010482D48345090015465685A3
:10493800492EC2471304190059E913F7070109C79B
:1049480013070002A309E10413F7870009C7130737
:10495800B002A309E104834609001307A00263809B
:10496800E608F2474A848146254603470400930532
:104978001400130707FD6379E60AB5CA3ECE85A879
:10498800971700009387C7096395F40083A48900EB
:104998000DB7971700009387A704E39CF4F083A44E
:1049A800C90001BFA6854E85EFF04FF209D97D55A4
:1049B800FA406A44DA444A49BA492A4A9A4A0A4BA6
:1049C800F65B665CD65C0D618280050421BF330509
:1049D80055413315AC00C98F3EC82289B1B732475B
:1049E80093064700184336C6634907023ACE034781
:1049F80004009307E002631FF704034714009307BA
:104A0800A002631BF702B2470904138747009C43BF
:104A18003AC663C107023ECA35A83307E04093E7A8
:104A280027003ACE3EC8E1B7B38767032E84854690
:104A3800BA9725BFFD57C5B7050402CA8146814705
:104A480025460347040093051400130707FD637404
:104A5800E606F1F2834504000D461715000013051C
:104A6800A5FE852411CD971700009387E7FD1D8DBE
:104A780093070004B397A700424505045D8D2AC833
:104A880083450400194617150000130525FC130972
:104A980014002304B10235242DC19307000095E7C3
:104AA8004247B2471377071009CF91073EC692577E
:104AB800D2973ED23DB5B38767032E848546BA9711
:104AC80049B79D07E19BA107D5B778009706000075
:104AD8009386A6D626860C084E8597000000E70028
:104AE8000000FD572A8AE314F5FC83D7C40093F726
:104AF8000704E39E07EA125565BD78009706000093
:104B08009386A6D326860C084E85CD24D9BF41119D
:104B180022C42A842E8523A401A006C6EFC04FC153
:104B2800FD576316F50083A781A091C31CC0B2404E
:104B3800224441018280411122C42E848395E500DC
:104B480006C6392B634905007C48AA977CC8B24041
:104B58002244410182808357C4007D777D17F98FF5
:104B68002316F400EDB783D7C500011122CC26CA5D
:104B78004AC84EC606CE93F70710AA842E843289F7
:104B8800B68991C78395E50089460146292283574E
:104B9800C4007D777D17F98F8315E4002316F40090
:104BA8006244F240CE864A86B24942492685D244BA
:104BB80005613DA8411122C42E848395E50006C6EF
:104BC800D928FD570357C400631BF500FD77FD176F
:104BD800F98F2316F400B240224441018280856790
:104BE800D98F2316F40068C8FDB78395E5003DA06A
:104BF800411122C42A842E85B285368623A401A0B9
:104C080006C6EFC0EFB9FD576316F50083A781A06C
:104C180091C31CC0B240224441018280411122C488
:104C28002A842E8523A401A006C6EFC04FBAFD57DB
:104C38006316F50083A781A091C31CC0B24022442B
:104C480041018280411122C42A842E85B28523A481
:104C580001A006C6EFC08FB9FD576316F50083A7FC
:104C680081A091C31CC0B2402244410182804111FD
:104C780022C42A842E8523A401A006C6EFC02FBC17
:104C8800FD576316F50083A781A091C31CC0B240ED
:104C9800224441018280411122C42A842E85B28592
:104CA800368623A401A006C6EFC0AFBBFD57631626
:104CB800F50083A781A091C31CC0B24022444101E2
:104CC800828093F5F50F2A966314C500014582800A
:104CD80083470500E38DB7FE0505FDB78280828016
:104CE800797152CC9C493A8A984522D426D24ECE24
:104CF80056CA06D64AD05AC85EC6AA892E84B28435
:104D0800B68A63D3E700BA879CC00347340419C343
:104D180085079CC01C4093F7070281C79C40890700
:104D28009CC00329040013796900631A0900130B56
:104D38009401FD5B5C449840998F634CF904834768
:104D48003404B336F0001C4093F70702A5EB1306B2
:104D58003404D6854E85029AFD576303F5041C403A
:104D680011469840998B544481446397C700B38493
:104D7800E64063D3040081441C4418486354F70098
:104D8800998FBE94014969047D5B639824050145A8
:104D980009A885465A86D6854E85029A631E7501EE
:104DA8007D55B250225492540259F249624AD24A6D
:104DB800424BB24B456182800509ADBF3307D40031
:104DC80013060003A301C70403475404938716007E
:104DD800A2978906A381E7049DBF85462286D685CA
:104DE8004E85029AE30E65FB050945B7797122D411
:104DF80026D24AD04ECE06D652CC56CA5AC803C876
:104E0800850193078007AA842E843289B68963EEC8
:104E18000701930720069386350463ED07016306AF
:104E2800081C93078005630BF812930A24042301D6
:104E3800040515A89307D8F993F7F70F5546E366C5
:104E4800F6FE17160000130666C38A07B2979C433E
:104E5800B29782871C43938A2504938647009C4314
:104E680014C32381F50485476DA29C41084313F6BA
:104E78000708930545000DC21C410CC363D8070001
:104E88001307D002B307F040A301E404171600008B
:104E9800130646BC2948A1A013F607041C410CC3FD
:104EA80071DEC207C187D9BF90411C43137506083C
:104EB8009385470001C50CC39C4339A013760604AB
:104EC8000CC37DDA83D707001307F0061716000016
:104ED800130646B86305E80E2948A30104045840A0
:104EE80018C4634507000C40ED990CC099E3B68AD5
:104EF80019CFB68A33F70703FD1A3297034707001D
:104F08002380EA003E87B3D70703E37507FFA1476D
:104F1800631EF8001C40858B91CB58401C4863C722
:104F2800E70093070003A38FFAFEFD1AB3865641E4
:104F380014C84E87CA867000A2852685EFF05FDA0E
:104F48007D5A631C450D7D55B25022549254025926
:104F5800F249624AD24A424B45618280A3820505E2
:104F680017160000130606AF0C40084313F805088F
:104F78001C411105630D080208C313F7150001C78A
:104F880093E505020CC04148A9FB18401377F7FDCB
:104F980018C0A1B79C4193E707029CC193078007FB
:104FA800A302F40417160000130606AC75BF13F825
:104FB800050408C3E30308FCC207C1837DBF214879
:104FC80029BF90411C43CC49137806081385470034
:104FD8006306080008C39C438CC301A808C3137662
:104FE80006049C4375DA2390B70023280400B68A88
:104FF80089B71C43D04181459386470014C383AACF
:1050080007005685EFF0FFCB01C53305554148C071
:105018005C401CC8A301040429BF14485686CA85ED
:1050280026858299E30145F31C40898B8DE7B247B9
:105038004844E35BF5F03E8501BF85465686CA8540
:1050480026858299E30165F1050A5C443247998F08
:10505800E345FAFEE9BF014A930A94017D5BF5B77F
:10506800411122C42A842E85B285368623A401A044
:1050780006C6EFB01FFAFD576316F50083A781A097
:0C50880091C31CC0B24022444101828050
:1050940000000000FFFFFF0F07C7E7E7E7E7E7E7C8
:1050A40067272767E7E7E7E767272767E7E7C7078C
:1050B4000FFFFFFF000000F880C060C080F800F818
:1050C40080C060C080F800F880C060C080F8000034
:1050D40000F8306030F800F800F800000000E0B894
:1050E40088B8E000F83060C0F800F80898F000F8DC
:1050F40048C8B0000000F848C8B000F8800000F8C4
:10510400606060607F7F7F00003F1F8FC7E3F1F81E
:10511400FCFEF800010F83E0F0FCFCC0010F7F00EF
:10512400007F7F7F606060600100E0E0E1C080801C
:10513400C1E0E0E00100E0E0010080C0E1E0000146
:105144000081C0E06061E0E100010101C1E0E1C073
:1051540000000100E1E000000100E1E101000001C4
:1051640080C0E1E0E1E0010000E1E06061E1C181D3
:105174006666666666666600006667676767676791
:1051840067676766666767676767676766666660B7
:10519400006666666666666600007F7F0001070734
:1051A40001007F7F00007F7F0E0703017F7F0000E7
:1051B4007F7F010000007F7F0000787F0731313F4F
:1051C4007F7800007F7F000606067F7F0000606F07
:1051D4006F6360607F7F6000007F7F000C0E0703B9
:1051E40000000000FEFEFEF0E0E2E6E6E6E6E6E6AB
:1051F400E6E6E6E6E6E6E6E6E6E6E6E6E6E6E2E055
:10520400F0FEFEFE000000000000000000000000B0
:10521400000000000000000000000000000000008A
:10522400000000000000000000000000000000007A
:10523400000000000000000000000000000000006A
:10524400000000000000000000000000000000005A
:105254004B31393836424B30323500004B31393816
:1052640036424B30323520496E697420656E6421B4
:1052740000000000202121212057414B452055509A
:1052840020212121200000002121212057414B45CC
:105294002055502021212100427574746F6E2070B6
:1052A4007265737365640000202020202020202074
:1052B4002020202020202000252E32753A252E3251
:1052C400753A252E327520252E32752E252E3275EF
:1052D4002E3230252E327500202020202020202040
:1052E400202000003A000000202E2E2E20706C6535
:1052F4006173652077616B6520757020616E642031
:1053040070726573732074686520627574746F6E4F
:10531400202E2E2E00000000416C61726D207365FA
:105324007420746F202D2D3E20252E32753A252EA3
:1053340032753A252E32750A000000000100000083
:105344000000000001000000000000000100000057
:1053540018BFFFFF3CBFFFFF60BFFFFF8EBFFFFF13
:10536400BCBFFFFF6EC0FFFF92C0FFFFB6C0FFFFD0
:10537400E4C0FFFF12C1FFFF000000000000003E78
:105384004551453E003E6B6F6B3E001C3E7C3E1C0F
:1053940000183C7E3C180030367F363000185C7EA6
:1053A4005C18000018180000FFFFE7E7FFFF003C4F
:1053B40024243C00FFC3DBDBC3FF0030484A360E25
:1053C4000006297929060060703F020400607E0A05
:1053D400353F002A1C361C2A00007F3E1C080008AA
:1053E4001C3E7F000014367F361400005F005F000F
:1053F4000006097F017F00224D555922006060603C
:1054040060000014B6FFB6140004067F0604001002
:10541400307F30100008083E1C0800081C3E0808B5
:1054240000784040404000083E083E0800303C3FC1
:105434003C3000030F3F0F03000000000000000099
:10544400065F060000070300070300247E247E2471
:1054540000242B6A12000063130864630036495663
:10546400205000000703000000003E41000000003F
:10547400413E000000083E1C3E080008083E0808A3
:105484000000E060000000080808080800006060F0
:105494000000002010080402003E4141413E00008B
:1054A400427F400000625149494600224949493639
:1054B400001814127F10002F49494931003C4A4911
:1054C400493000017109050300364949493600068F
:1054D4004949291E00006C6C00000000EC6C0000BF
:1054E4000008142241000024242424240000412222
:1054F4001408000201590906003E415D551E007E54
:105504001111117E007F49494936003E4141412233
:10551400007F4141413E007F49494941007F0909DB
:105524000901003E4149497A007F0808087F0000CC
:10553400417F410000304040403F007F0814224139
:10554400007F40404040007F0204027F007F02044D
:10555400087F003E4141413E007F09090906003EA3
:105564004151215E007F09091966002649494932E3
:105574000001017F0101003F4040403F001F2040E7
:10558400201F003F403C403F0063140814630007A1
:105594000870080700714945430000007F4141003D
:1055A400000204081020000041417F0000040201B1
:1055B40002048080808080800000030700000020B7
:1055C40054545478007F44444438003844444428B4
:1055D40000384444447F00385454540800087E0979
:1055E40009000018A4A4A47C007F0404780000002F
:1055F400007D4000004080847D00007F102844002E
:105604000000007F4000007C04180478007C04043F
:10561400780000384444443800FC4444443800389A
:10562400444444FC0044784404080008545454207E
:1056340000043E442400003C40207C00001C204028
:10564400201C003C6030603C006C10106C00009C1E
:10565400A0603C00006454544C0000083E414100EA
:10566400000000770000000041413E0800020102F2
:105674000100003C2623263C441144114411AA5540
:10568400AA55AA55BBEEBBEEBBEE000000FF00001E
:10569400080808FF00000A0A0AFF000008FF00FFCC
:1056A400000008F808F800000A0A0AFE00000AFBD5
:1056B40000FF000000FF00FF00000AFA02FE0000E5
:1056C4000A0B080F0000080F080F00000A0A0A0F4F
:1056D4000000080808F800000000000F0808080887
:1056E400080F0808080808F80808000000FF080860
:1056F400080808080808080808FF0808000000FF50
:105704000A0A00FF00FF0808000F080B0A0A00FE3F
:1057140002FA0A0A0A0B080B0A0A0AFA02FA0A0A25
:1057240000FF00FB0A0A0A0A0A0A0A0A0AFB00FB2B
:105734000A0A0A0A0A0B0A0A080F080F08080A0AC2
:105744000AFA0A0A08F808F80808000F080F0808F7
:105754000000000F0A0A000000FE0A0A00F808F818
:10576400080808FF08FF0808007E4B4A4B420A0A53
:105774000AFF0A0A0808080F0000000000F80808D9
:10578400FFFFFFFFFFFFF0F0F0F0F0F0FFFFFF007E
:105794000000000000FFFFFF0F0F0F0F0F0F003E70
:1057A400494941220038545444280001407E4001B4
:1057B4000000017C41000027484B483F009DA26245
:1057C4003D0000060909060000385554550800003C
:1057D400181800000000080000000030403E0202DB
:1057E4007F06187F13132A3E14143E2A003C3C3CC7
:1057F4003C00000000000000007E1111117E007FBB
:1058040049494931007F49494936007F0101010175
:10581400C07E41417FC0007F494949410077087FEC
:105824000877224949493600007F2010087F007E0E
:105834002111097E007F0814224100407E01017F6E
:10584400007F0204027F007F0808087F003E414178
:10585400413E007F0101017F007F09090906003EE6
:10586400414141220001017F010100274848483F8E
:10587400000E117F110E006314081463007F404072
:105884007FC000070808087F007F407F407F007FBB
:10589400407F40FF03017F484830007F4848307F05
:1058A400007F4848483000224149493E007F083E75
:1058B400413E00661909097F002054545478003C85
:1058C4004A4A4A31007C54545428007C04040C0095
:1058D400C07844447CC0003854545408006C107C94
:1058E400106C002844545428007C2010087C007C50
:1058F40020120A7C007C10284400403804047C00F8
:10590400007C0810087C007C1010107C0038444493
:105914004438007C0404047C00FC444444380038CB
:10592400444444280004047C0404009CA0603C001B
:105934000018247C2418006C10106C00007C40407B
:105944007CC0000C1010107C007C407C407C007CEF
:10595400407C40FC0C047C505020007C5050207C47
:10596400007C50505020002844545438007C103897
:10597400443800483414147C90DDFFFF96DDFFFFAB
:105984009EDDFFFFA6DDFFFFAEDDFFFFB6DDFFFFFF
:10599400BEDDFFFFC6DDFFFFF4DDFFFFFADDFFFF25
:1059A40002DEFFFF0ADEFFFF12DEFFFF1ADEFFFF4B
:1059B40022DEFFFF2ADEFFFF32DEFFFF5CDEFFFF99
:1059C40064DEFFFF6CDEFFFF74DEFFFF7CDEFFFFA3
:1059D40084DEFFFF8EDEFFFF98DEFFFFA2DEFFFF07
:1059E40000000000000000000000000000000000B3
:1059F40000000000000000000000000000000000A3
:105A04000000000000000000000000000000000092
:105A14000000000000000000000000000000000082
:105A24000000000000000000000000000000000072
:105A34000000000000000000000000000000000062
:105A4400232D302B20000000686C4C0065666745F0
:105A54004647000030313233343536373839414225
:105A64004344454600000000303132333435363784
:105A7400383961626364656600000000DCF3FFFF8F
:105A8400F2F3FFFFB2F3FFFFB2F3FFFFB2F3FFFF46
:105A9400B2F3FFFFF2F3FFFFB2F3FFFFB2F3FFFF36
:105AA400B2F3FFFFB2F3FFFF4AF5FFFF30F4FFFF4D
:105AB4001CF5FFFFB2F3FFFFB2F3FFFF7AF5FFFF20
:105AC400B2F3FFFF30F4FFFFB2F3FFFFB2F3FFFFC7
:085AD40024F5FFFF50010080E2
