:020000040800F2
:08000000008000200900000847
:1000080080B500AF00F020F80C4B1B680B4A83F05A
:1000180002031360094B1B68084A83F0040313604A
:10002800074B1B68064A83F004031360054B1B88C3
:10003800184600F05DF800BFE6E700BF00000B407F
:1000480000800B402801000880B400AF1F4B1B68DC
:100058001E4A43F4400313601D4B1B681C4A43F0BF
:10006800060313601B4B1B681A4A43F00603136010
:10007800194B1B68184A43F014031360174B1B688D
:10008800164A43F004031360154B1B68144A43F0E7
:1000980004031360134B1B68124A43F010031360E8
:1000A800114B1B68104A43F0020313600E4B1B6888
:1000B8000D4A23F0040313600C4B1B680B4A43F0F2
:1000C8000403136000BFBD4680BC70471C0002409B
:1000D8000C000B4004000B4018000B400C800B4038
:1000E80004800B4018800B4000000B4000800B4040
:1000F80080B485B000AF0346FB800023FB6003E0BB
:1001080000BFFB680133FB60FB885B02FA689A4218
:10011800F6D300BF00BF1437BD4680BC704700BF90
:02012800640071
:0400000508000008E7
:00000001FF
