:100000006F008022130000001300000013000000A6
:100010001300000013000000130000001300000094
:100020001300000013000000130000001300000084
:08003000130000007300100032
:100038000000000000000000BC010000BE0100003C
:1000480000000000C00100000000000000000000E7
:10005800C2010000C4010000000000000000000010
:10006800C601000000000000C801000000000000F8
:10007800CA010000CC010000CE010000D001000040
:10008800D2010000D4010000D6010000D801000010
:10009800DA010000DC010000DE010000E0010000E0
:1000A800E2010000E4010000E6010000E8010000B0
:1000B800EA010000EC010000EE010000F001000080
:1000C800F2010000F4010000F6010000F801000050
:1000D800FA010000FC010000FE010000000200001F
:1000E80002020000040200000602000008020000EC
:1000F8000A0200000C0200000E02000010020000BC
:10010800120200001402000016020000180200008B
:100118001A0200001C0200001E020000200200005B
:100128002202000024020000260200000000000055
:080138000000000000000000BF
:10014000511126C022C206C4828282441244A240B7
:10015000310182808280371702401C4FB716014060
:1001600093E787001CCF83A706C0371700FF7D17D2
:10017000F98F37373300D98F23A0F6C082802A0544
:1001800081476313F500828001008507DDBFEFF230
:100190003FFBD137371701408327C7C093C70701FB
:1001A0002326F7C0371701408327C7C01305400631
:1001B00093C787032326F7C0D937EDB701A001A065
:1001C00001A001A001A001A001A001A001A001A027
:1001D00001A001A001A001A001A001A001A001A017
:1001E00001A001A001A001A001A001A001A001A007
:1001F00001A001A001A001A001A001A001A001A0F7
:1002000001A001A001A001A001A001A001A001A0E6
:1002100001A001A001A001A001A001A001A001A0D6
:1002200001A001A001A001A0970100209381815DA0
:1002300017510020130101DD1305802B97050020C5
:10024000938545DC170600201306C6DB63FAC5005C
:100250008322050023A0550011059105E3EAC5FEA0
:1002600017050020130505DA97050020938585D929
:100270006377B500232005001105E36DB5FEFD424F
:10028000739002BC8D42739042809302800873A0E9
:10029000023097020000938262DA93E23200739098
:1002A0005230EFF03FEB97020000938282EE7390A2
:0802B00012347300203000003D
:00000001FF
