:100000006F00501D130000001300000013000000DB
:100010001300000013000000130000001300000094
:100020001300000013000000130000001300000084
:08003000130000007300100032
:100038000000000000000000680900006A090000D4
:10004800000000006C090000000000000000000033
:100058006E090000700900000000000000000000A8
:100068007209000000000000740900000000000090
:1000780076090000780900007A0900007C09000070
:100088007E09000080090000820900008409000040
:1000980086090000880900008A0900008C09000010
:1000A8008E090000900900009209000094090000E0
:1000B80096090000980900009A0900009C090000B0
:1000C8009E090000A0090000A2090000A409000080
:1000D800A6090000A8090000AA090000AC09000050
:1000E800AE090000B0090000B2090000B409000020
:1000F800B6090000B8090000BA090000BC090000F0
:10010800BE090000C0090000C2090000C4090000BF
:10011800C6090000C8090000CA090000CC0900008F
:10012800CE090000D0090000D2090000000000003C
:080138000000000000000000BF
:10014000511126C022C206C4828282441244A240B7
:10015000310182802A86014593F6150091C23295BD
:1001600085810606F5F9828000000000634E0502D5
:1001700063C305042E86AA857D5515C2854663781E
:10018000B6006356C00006068606E36CB6FE01455F
:1001900063E4C500918D558D85820582F5FA8280D4
:1001A0008682C93F2E8582823305A04063D7050031
:1001B000B305B040C1B7B305B0408682653F330593
:1001C000A0408282868263C70500634905005D37CF
:1001D0002E858282B305B040E35B05FE3305A04067
:1001E000513F3305B040828200003D432A8763734C
:1001F000C3029377F700BDEFADE5937606FF3D8A26
:10020000BA960CC34CC30CC74CC74107E36BD7FE6F
:1002100011E28280B306C3408A06970200009696D8
:100220006780A6002307B700A306B7002306B70020
:10023000A305B7002305B700A304B7002304B70044
:10024000A303B7002303B700A302B7002302B7003C
:10025000A301B7002301B700A300B7002300B70034
:10026000828093F5F50F93968500D58D93960501C1
:10027000D58D61B7939627009702000096968682E7
:10028000E78086FA9680C1171D8F3E96E374C3F807
:10029000A5B7EFF2FFEAAA840565130141FD2E849C
:1002A00013054580854532C002C802CA02CC02CE81
:1002B00002D002D202D402C202C423160100BD2120
:1002C00093070010FC8037150140E1473ECC0C0835
:1002D0008D47130505803ECA59246082373401409A
:1002E0004C00130504C0648423150100231301008E
:1002F000A9290246C167938707076C08130504C044
:100300003ECE2311C102231201026D21130504C048
:1003100085451523130504C08145B123130504C089
:1003200085452D238545130504C0D5291301C10238
:1003300029BDEFF2FFE0DD28716513050520B12A24
:10034000B707002083A5070037250000130505BA6D
:100350002927854401441316040141829305F002C4
:10036000130540063D3799C8050493074006630905
:10037000F40011E085442945D520F1BF7D14F5B77F
:100380008144D5BFB71702409843B706FFF81367FB
:10039000170098C3D843758FD8C39843B706F7FEA4
:1003A000FD16758F98C39843B706FCFFFD16758F31
:1003B00098C3D843B70681FFFD16758FD8C337079A
:1003C0009F0098C7B746024003A70680136707013E
:1003D00023A0E680D843B706C1FFFD16D8C3D84393
:1003E000D8C3D84313670740D8C3D843758FD8C341
:1003F000D843B7061000558FD8C39843B7060001FD
:10040000558F98C3984393166700E3DD06FED843E3
:10041000B7160240719BD8C3D84313672700D8C3CF
:100420002147DC42B18BE39EE7FE8280EFF25FD191
:10043000B707002003A50700B7157A0093850520AC
:10044000153B1375F50F2389A18093175500898FEC
:100450008A073E950E052398A180C5B9EFF25FCEBD
:1004600037F400E05C40AA85F99B5CC003D50181AC
:10047000D53108C881475CC81C4093E707011CC000
:100480001C4093E717021CC0B7F700E0D843058B68
:1004900075DF9843799B98C34DB9EFF27FCA2A84E0
:1004A00011651111854511055124930700207C80A9
:1004B000371501408D473EC28A85E1471305058007
:1004C0003EC4712822C637440140B70708006C00BB
:1004D000130504803ECA02C8231C0100612E854515
:1004E00013050480B12971018DB1EFF27FC571113F
:1004F000AE840144635DC402B7470140138707809F
:100500003A859305000432C09929B7470140138703
:100510000780024675D5338784008305070013855D
:1005200007800504C205C1813D210246E1B732853D
:10053000110121B937070020130747001C43938698
:1005400081813E95636BD500B75600209386068067
:1005500063E5A60008C33E858280FD57EDBF9C453C
:10056000611122C226C013F7070113F3F70001C778
:10057000D8413363E30037270240145B3707000F8D
:10058000758F69E38546A389D180371701406315CC
:10059000E5009A2135839AA192211377F60F29C796
:1005A00083230500014713048002930480048546D9
:1005B000B395E600B376B6006392D5029312270096
:1005C000BD46B396560093C6F6FFB3F37600B3125A
:1005D0005300B3E37200639F87064CC90507A14629
:1005E000E317D7FC232075001307F00F6378C704C7
:1005F00083234500A1461304800293048004054729
:10060000B312D700337756006394E20213972600A3
:100610000117BD45B395E50093C5F5FFB3F375002C
:100620003317E300B3637700639A8702232A5500E8
:1006300085064147E395E6FC232275001244824477
:100640002101828037170140E318E5F403C73181A7
:1006500021D781B7E39497F80CC949B7E39A97FC7F
:1006600023285500F1B7EFF2BFAD371702405C43C6
:1006700091462A84B18B6385D700A1466383D70650
:10068000B7177A00938707201CC0371702405C43D6
:10069000B70600209386C6009183BD8BB69788234A
:1006A0001C4033D5A70048C05C43A1839D8BB697FF
:1006B0009C23B357F5001CC45C43AD839D8BB69758
:1006C0009C233355F50048C45C43B98313F73700C6
:1006D000B707002093878700BA978C23613C08C82E
:1006E000ADB448435C43416749813D89F98F0905B1
:1006F00045476313E500494581EFB747024083A7AB
:100700000780C18B89CFB7157A009385052021A872
:10071000B7170240DC431397E700E35607FEB7150F
:100720003D00938505903D3408C085B799C53717BE
:1007300002401C4F5D8D08CF8280B7170240984F52
:100740001345F5FF798D88CF82801E213737014010
:10075000130707C0C207C1836304E50237070040DF
:100760006300E50213070740630CE50037170040FC
:10077000930607806306D500130707C06316E500DC
:10078000BA2193F7F7F8D98FFA2193F7F7CFC20779
:10079000C183D98F1EA1DE215EB59E211EB5B7375C
:1007A0000140938707C06314F5009C251EB9854757
:1007B0005EA982801E31922103D32500C207C18326
:1007C000F99BC207C1831EB11E3156211A2DC207E3
:1007D000C183420741831377C7F8518F9225F59B58
:1007E000C20633666600D18F37360140130606C055
:1007F000C1826310C502B225DD9B03D3E500D18F12
:10080000D221ED9B93F6F6CFD18FD22533666600C9
:10081000D18E56A11AADFA215AB91EB182801E217D
:1008200089C593E717001EA18280C207C183F99B87
:10083000C207C183CDBF8357450491C52167D98FB6
:100840002312F5048280C607C583DDBF1E2189C53A
:1008500093E707081EA18280C207C18393F7F7F7C9
:10086000C207C183C5BF1E2DC207C183DD9BDD8DBD
:100870000EAD8280EFF2DF8C1629F577FD17F58F2C
:10088000F621DA252111D58F1EA95625FD779387EC
:10089000379FF58FD6212A842EC0D58F9625D58FE8
:1008A000B625D58F5EA55E29C207C18393F7F7CF22
:1008B0005D8F5AA94800453BB747014093870780A1
:1008C00082456312F406C2475A24139517003E95D9
:1008D00042070E0541873E958C4163580704860503
:1008E000EFF05F89930540062AC0EFF0BF8882478A
:1008F00093144500930540063E85EFF07F8A5E2401
:10090000C207C18763D507020E059305400613058C
:100910002503EFF03F861D89C98CC204C18006A45F
:1009200061016FF09F82B24745B78A0555BF120536
:100930009305400613052503EFF0DF833D89E9BFEA
:1009400091C55E250967D98F5EA582805A25F97702
:10095000FD17F98FD5BF93F5F51F4EA182800A21AF
:100960006D8D3335A000828001A001A001A001A0FF
:1009700001A001A001A001A001A001A001A001A06F
:1009800001A001A001A001A001A001A001A001A05F
:1009900001A001A001A001A001A001A001A001A04F
:1009A00001A001A001A001A001A001A001A001A03F
:1009B00001A001A001A001A001A001A001A001A02F
:1009C00001A001A001A001A001A001A001A001A01F
:1009D00001A001A0970100209381C1EA17410020E6
:1009E00013014162171500001305852697F5FF1FB7
:1009F000938545611386818063FAC50083220500D3
:100A000023A0550011059105E3EAC5FE13858180F9
:100A1000938581816377B500232005001105E36D7F
:100A2000B5FEFD42739002BC8D42739042809302EA
:100A3000800873A0023097F2FFFF9382226093E256
:100A4000320073905230EFF0FF93970200009382D0
:100A5000828E73901234730020301301C1FD3ED09A
:100A60002EC832CA36CC3ACE97F7FF1F93878761DC
:100A700022C4804326C206C6AA8409C41C4C99E33A
:100A80002285C9280C4414082686228536C0AD2646
:100A9000B24022449244130141028280511122C289
:100AA00006C42A844EA572A5232005002322050032
:100AB000232405002322050623280500232A0500F8
:100AC000232C0500214681451305C505EFF0EFF104
:100AD000971700009387079E5CD0971700009387B5
:100AE00027A01CD497170000938707A45CD49717FE
:100AF0000000938767A600D01CD8A24012443101A1
:100B00008280971500009385E5D989AA4111138643
:100B1000F5FF22C41314160032940A0432940E0412
:100B20002EC09305440726C206C6412AAA8409CDD1
:100B30008247232005003105232CF5FE88C41306C7
:100B400084068145EFF06FEAB24022442685924444
:100B5000410182801C4DBDE3511106C422C297079A
:100B60000000938747FA1CD597F7FF1F9387C7515B
:100B70009C43232405042326050423280504631429
:100B8000F50085471CCD2A841D2848C022850528EC
:100B900008C422852D2048C4484001469145FD3DAA
:100BA00008440546A545DD3D48440946C945FD358F
:100BB00085471CCCA24012443101828082804111C1
:100BC00097F7FF1F9387474C22C4804326C206C66F
:100BD0001C4CAA8499E32285B53F9307840480477F
:100BE000D8437D1763560700984331CF9C43C5BF58
:100BF0008316C400B1E6C1778507232204062320AB
:100C0000040023220400232404005CC423280400DD
:100C1000232A0400232C0400214681451305C40522
:100C2000EFF0AFDC232A0402232C04022324040463
:100C3000232604042285B24022449244410182804A
:100C40001304840679BF914526853EC0C13582478D
:100C500088C349FDB1479CC00144E9BF111122CAB4
:100C600006CC26C8AA862E8613048504814719E47B
:100C7000E2405244C2443E8571018280044458409F
:100C80007D17635407000040DDB7CA24854563F330
:100C9000A5020395E400FD55630EB5003685A685D3
:100CA0003EC63AC436C232C00296B2472247924686
:100CB0000246C98F93848406E1B7411126C293840A
:100CC0003500F19806C622C4A104B14763F7F404C5
:100CD000B14463E6B4042AC0EF00F0551387818065
:100CE00014438247368421E41387C180184301EB03
:100CF0003E8581453EC0412F23A6A18082473E8587
:100D0000A6853EC049277D5782476316E5063147D1
:100D100098C33E85EF00505229A0E3DC04FAB147A6
:100D20001CC10145B24022449244410182801840D6
:100D3000058F634F07022D466376E60018C03A948C
:100D400004C031A058406393860223A4E1803E850D
:100D5000EF00904E1305B400130744006199B307E8
:100D6000E540E9D33E94098F18C06DBFD8C2C5B71E
:100D7000A28640408DBF130435007198E30285FCC4
:100D8000B305A4403E853EC0FD2D7D578247E31943
:100D9000E5FAB5BF1C46FD171CC663DA0700184EFE
:100DA00063C5E700A9476394F5006F00007B1C4210
:100DB0002E851387170018C28CA38280311122C69A
:100DC00026C406C8AA872E873284B304D6006314CB
:100DD0009400014529A80C203A863E853AC23EC0BF
:100DE000553FFD56050482471247E312D5FEC24027
:100DF0003244A24451018280130181F722C1A6DE50
:100E00009307F10106C32AC032C22E8493F487FFF0
:100E100011C5184D01E736C6353BB246171700001D
:100E2000130747DB6310E40E8247C0435A24218B2B
:100E3000630C070E18486DCB1307000298BC13070C
:100E4000000323AA0400B8AC36CA124713065002A6
:100E5000142399C26398C60E92473303F740630187
:100E6000030202459A863E86A2853AC81AC6B93759
:100E7000FD566306D520D448324342479A96D4C8DB
:100E80001423638E061E130317007D5723A004004E
:100E900023A60400D8C023A40400A381040423AC27
:100EA000040483450300154617150000130585D675
:100EB0001AC2EF00D036124394401307130049E5DD
:100EC00013F6060109C613060002A381C40413F633
:100ED000860009C61306B002A381C404834503003B
:100EE0001306A002638FC506D4441A8781452545A1
:100EF000102313031700130606FD6377C50AB5C94F
:100F0000D4C485A8171700001307C7CE6315E400E3
:100F10008247804721BF171700001307A7C9E317AF
:100F2000E4F08247C04719B70245A28536C6392F7B
:100F3000B246E30305F07D559A400A44F654130186
:100F400081088280050729B717160000130686CC92
:100F50003306C54005453315C500C98E94C03A8394
:100F600089B752469305460010422ECA63470602CF
:100F7000D0C410239306E0026311D6061033930603
:100F8000A002631ED602D246090713864600944289
:100F900032CA63C40602D4C089A03306C04093E6B7
:100FA0002600D0C494C0F1B71397260036970607E1
:100FB000B306C70085451A8725BFFD56E9BF05075B
:100FC00023A2040081458146254510231303170001
:100FD000130606FD6379C506DDFD0C230D461715C6
:100FE00000001305A5C33AC2EF007023124711CDCC
:100FF00097160000938686C2158D93060004B3965B
:10100000A60088400507558D88C00C23930717005C
:101010001946171500001305A5C03EC28CACEF00A1
:1010200010202DC517F7FFFF1307C7FD05EB9440F0
:10103000524793F606108DC211073ACAD848A24704
:101040003E97D8C819B51397260036970607B306FA
:10105000C70085451A8795BF2107C5B702455808BF
:10106000970600009386C6D52286A68597000000C5
:10107000E70000002AC4A2477D57E391E7FC5A2409
:1010800013770704E31907EAC8487DB502455808F5
:10109000970600009386C6D22286A685052AD9BF68
:1010A000011126CA3283B6849045944922CC06CEDB
:1010B0002A84AE8763D3C600B2862320D30003C63A
:1010C000370401C685062320D300944393F6060215
:1010D00091C68326030089062320D30083A207003C
:1010E0009383970193F2620063830206904383C661
:1010F000370413760602B336D00041EA138637046C
:10110000A68522851AC43EC23AC00297FD566308DE
:10111000D506924722431145944303260300CC474A
:10112000998A014302476397A6003383C5406353FE
:10113000030001439447904B6354D600918E36933D
:101140008142E9076312530601451DA88502D44771
:1011500003260300918EE3DBD2F885461E86A68522
:1011600022851AC83EC616C41EC23AC00297FD5652
:1011700002479243A242B2474243E319D5FC7D5550
:10118000F2406244D24405618280B385D7001305E2
:101190000003A381A50483C55704138616003E9659
:1011A0008906A301B60499BF85463E86A685228599
:1011B00016C61AC43EC23AC00297FD56E301D5FCDA
:1011C000B2422243924785020247ADBF130141FD5F
:1011D00022D206D426D032C2902D36C42AC093061D
:1011E00090062E8493823504630DD60263E2C60610
:1011F00093068005630FD61863EDC60063070622C9
:1012000093063004630DD60A930424042301C40416
:10121000C1A0930630066304D60A93064006E31580
:10122000D6FE1440084313F60608930545005DC238
:1012300014410CC363D806001307D002B306D04094
:10124000A301E404171600001306069E29475DA8B3
:1012500093060007630BD61663E5C6029306E00605
:101260006302D61A9306F006E310D6FA0C40144334
:1012700013F30508138546006306030608C394426A
:10128000BDA093065007E303D6FE930680076302D2
:10129000D61493063007E319D6F614431386460096
:1012A00010C38442D04181452685EF00407719C1A3
:1012B000058D48C0584018C8A30104045DA8144314
:1012C000930424041386460010C398422301E404C7
:1012D0000547D5B713F6060414410CC321DEC20638
:1012E000C18689BF93F5050408C3D1D99622130797
:1012F000F0066301E610171600001306E692294770
:10130000A30104044C400CC463C5050008406D995A
:1013100008C099E296849DC99684BA85368516CC14
:1013200032CA3AC836C6EFE0BFE752464247B24635
:1013300032950C21FD1436858CA0BA85EFE09FE331
:10134000B24642475246E24263FCE60AA146631EA9
:10135000D7001840058B11CB544018486347D7007D
:1013600013070003A38FE4FEFD14B38292402328E9
:1013700054002247924602457008A28515337D57D6
:101380006319E50A7D55A250125482541301C1021B
:101390008280A382C504171600001306E6880C405D
:1013A000084313F3050814411105630D030208C334
:1013B00013F7150001C793E505020CC04147A9F2D8
:1013C0000C4093F5F5FD0CC025BF944193E6060251
:1013D00094C193068007A302D404171600001306D5
:1013E000E68575BF13F3050408C3E30303FCC206D7
:1013F000C1827DBF1716000013060683214709B777
:10140000AA8621BF90411443CC4913730608138563
:1014100046006306030008C398420CC339A008C302
:1014200013760604984275DA0EA3232804009684E6
:1014300089B7144892450245A247268682977D5770
:10144000E302E5F41840098B1DEB72474844E35C66
:10145000E5F23A850DBF92450245A24785461A86B8
:101460003AC81AC68297FD56E30ED5F0424732437A
:10147000050754447246918EE34FD7FCF9B70147F4
:1014800013039401FDB7511122C22A842E8523AA89
:10149000018006C4EFF00F8AFD576317F5009387AC
:1014A00041819C4391C31CC0A240124431018280FF
:1014B000511122C22E848395E50006C42D2563496F
:1014C00005007C48AA977CC8A24012443101828062
:1014D0005E247D777D17F98F5EA4FDB7DE2531117F
:1014E00022C626C406C893F70710AA842E84328326
:1014F000B68291CB8395E50036C232C0894601465B
:101500001921924202435E247D777D17F98F5EA4F4
:101510008315E4003244C2402685A24496861A868A
:101520005101F5A8511122C22E848395E50006C40D
:10153000D92EFD575A24631AF500FD77FD17F98F50
:101540005EA4A2401244310182808567D98F5EA4D7
:1015500068C8C5BF8395E500E5AA311122C626C437
:1015600006C8AA87AE84328419C5184D09E72AC077
:10157000EFF04FDE8247170700001307A7656318D7
:10158000E406C043184C18C45A24218B49C3184898
:101590003DCF1848084093F6F40F93F4F40F198DDB
:1015A0005848634AE5003E85A28536C23EC0CD2C30
:1015B000824792463DE1184405057D1718C418403E
:1015C0001306170010C014A358486308A7005A2434
:1015D000058B01CB29476396E400A2853E85C9248B
:1015E0000DEDC24032442685A24451018280170786
:1015F0000000130727606314E400804761B71707F2
:1016000000001307275BE31FE4F6C047A5BF3E8534
:10161000A2853EC0252882472DDDFD54D9B7511142
:1016200022C22A842E85B285368623AA018006C46A
:10163000EFE0BFEBFD576317F500938741819C43B3
:1016400091C31CC0A240124431018280411197F71E
:10165000FF1F938727A326C2844322C406C6AA86F7
:101660002E8481C89C4C91E72AC02685EFF08FCE4E
:101670008246970700009387E7556319F402C0403C
:101680000317C40093170701C18313F687002DEADF
:1016900013F6070105EEA5479CC2136707045AA479
:1016A0007D55B24022449244410182809707000058
:1016B000938747546314F4008044D9B79707000018
:1016C0009387474FE31EF4FAC0445DBF918B8DC7EB
:1016D0004C5899C9930744046386F500368536C093
:1016E000A92E8246232A04025E242322040093F7B3
:1016F000B7FD5EA41C481CC05E2493E787005EA46F
:101700001C4899EB5E241307002093F70728638594
:10171000E700A2853685B52C5E2413F717001DC39C
:101720005C4823240400B307F0401CCC1C4801454E
:10173000ADFB8317C40013F7070825D793E7070409
:101740005EA4B9BF898B014791E3584818C4F9BF1B
:10175000511122C22A842E8523AA018006C4192190
:10176000FD576317F500938741819C4391C31CC0CB
:10177000A240124431018280D625311122C606C80A
:1017800026C413F78600AA872E8471EBD841634BD9
:10179000E000B8416348E0000145C2403244A24441
:1017A0005101828058546DDB84431396360123A087
:1017B0000700635C060670485A24118B19C758400D
:1017C000198E585819C33840198E58540C508146F8
:1017D0003E853EC002977D5756248247631DE50033
:1017E000904375476368C70637074020050733579E
:1017F000C700058B25C318482322040018C013977F
:101800003601635807007D576314E500984311E3E0
:1018100068C84C5884C3C9D1130744046384E500E5
:101820003E85212C232A040285BF0C5001463E85AB
:1018300085463EC002977D572A868247E31EE5F61D
:1018400098433DDBF5466305D700D9466312D704BC
:1018500084C399B793E6060456A47D553DBF9849C5
:1018600005DF84418D8A98C1998C014691E2D04967
:1018700010C4E35390F2032384020C503A863E8551
:10188000A6863AC23EC00293824712476347A00031
:101890005E2493E707045EA4C9B72A97898CD1BF59
:1018A0009C49A5C3411122C406C62A8419C51C4DF2
:1018B00089E72EC0EFF00FAA8245970700009387B3
:1018C0006731639BF5004C408397C50095C722851F
:1018D0002244B24041014DB59707000093878731FC
:1018E0006394F5000C44CDB7970700009387872CCD
:1018F000E39CF5FC4C44C9BFB24022440145410180
:10190000828001458280511122C22A842E85B285AF
:10191000368623AA018006C4852CFD576317F5007F
:10192000938741819C4391C31CC0A2401244310162
:101930008280AE878395E5005971A6D286D6A2D45F
:10194000B28463DB0500DE2723A0060093F70708B7
:1019500085EB930700403DA01304F10061982286B7
:1019600036C23EC07D2282479246E34E05FC584077
:10197000BD67F98F7977BA9793B717009CC2D1BF2B
:1019800093070004B65026549CC0014596546561E7
:101990008280DA25211122C806CA26C6098B2E8428
:1019A00001CF930774041CC01CC885475CC8D24093
:1019B0004244B2446101828034005000AA84953FC1
:1019C00092452AC02685EFF04FAF19E98317C4006E
:1019D00013F7072069FFF19B93E727005EA4D1B7B7
:1019E00017F7FFFF1307271298D45A2408C008C816
:1019F000136707085AA4124758C8224719CB831502
:101A0000E4002685252A11C55E24F19B93E7170083
:101A10005EA45E240247B364F70046A449BF93F571
:101A2000F50F2A966314C500014582801C21E38EC0
:101A3000B7FE0505C5BF82808280CDC583A7C5FFDF
:101A4000511122C206C426C01384C5FF63D3070008
:101A50003E94AA84CD3797E7FF1F938727639C4363
:101A600089EF2322040097E7FF1F23A18762124416
:101A7000A240268582443101C1B7637EF400144040
:101A80003307D4006396E7009843DC43369718C0C9
:101A90005CC0D1BFBA87D84319C3E37DE4FE944349
:101AA0003386D700631F86001040B29694C33386F6
:101AB000D700E31EC7FA10435843B29694C3D8C365
:101AC0007DB76375C400B1479CC055B71040B306DD
:101AD000C4006316D70014435843B29614C058C0CC
:101AE000C0C371B78280511122C22A842E85B2856B
:101AF000368623AA018006C47128FD576317F500B6
:101B0000938741819C4391C31CC0A2401244310180
:101B10008280511122C22A842E85B28523AA018097
:101B200006C4B920FD576317F500938741819C4394
:101B300091C31CC0A240124431018280511122C2C3
:101B40002A842E8523AA018006C40D28FD57631719
:101B5000F500938741819C4391C31CC0A24012446D
:101B6000310182809307800523AAF1807D55828010
:101B70009307800523AAF1807D5582809307800515
:101B800023AAF180014582809307800523AAF18072
:101B90007D5582809307800523AAF1807D55828040
:101BA00053797374656D436C6B3A25640D0A0000BC
:101BB0000000000000000000000000000000000025
:101BC0000000000000000000000000000000000015
:101BD0000000000000000000000000000000000005
:101BE00000000000000000000000000000000000F5
:101BF00000000000000000000000000000000000E5
:101C000000000000000000000000000000000000D4
:101C1000232D302B20000000686C4C006566674562
:101C20004647000030313233343536373839414297
:101C300043444546000000003031323334353637F6
:0C1C4000383961626364656600000000D2
:101C4C00006CDC0298000020020406080000000072
:101C5C000102030401020304060708090000000046
:101C6C00D01B0000F01B0000B01B000000000000A7
:101C7C000000000000000000000000000000000058
:101C8C000000000000000000000000000000000048
:101C9C000000000000000000000000000000000038
:101CAC000000000000000000000000000000000028
:101CBC000000000000000000000000000000000018
:081CCC001C0000201C00002098
:00000001FF
