:100000006F00A07400000000140700001607000035
:1000100000000000000000000000000000000000E0
:1000200000000000000000000000000000000000D0
:1000300018070000000000001A0700000000000080
:100040001C0700001E070000200700002207000018
:100050002407000026070000280700002A070000E8
:100060002C0700002E0700003007000032070000B8
:100070003407000036070000380700003A07000088
:100080003C0700003E070000400700004207000058
:100090004407000046070000480700000000000079
:1000A000511126C022C206C4828282441244A24058
:1000B000310182802A86014593F6150091C232955E
:1000C00085810606F5F9828000000000634E050276
:1000D00063C305042E86AA857D5515C285466378BF
:1000E000B6006356C00006068606E36CB6FE014500
:1000F00063E4C500918D558D85820582F5FA828075
:100100008682C93F2E8582823305A04063D70500D1
:10011000B305B040C1B7B305B0408682653F330533
:10012000A0408282868263C70500634905005D376F
:100130002E858282B305B040E35B05FE3305A04007
:10014000513F3305B040828200003D432A876373EC
:10015000C3029377F700BDEFADE5937606FF3D8AC6
:10016000BA960CC34CC30CC74CC74107E36BD7FE10
:1001700011E28280B306C3408A0697020000969679
:100180006780A6002307B700A306B7002306B700C1
:10019000A305B7002305B700A304B7002304B700E5
:1001A000A303B7002303B700A302B7002302B700DD
:1001B000A301B7002301B700A300B7002300B700D5
:1001C000828093F5F50F93968500D58D9396050162
:1001D000D58D61B793962700970200009696868288
:1001E000E78086FA9680C1171D8F3E96E374C3F8A8
:1001F000A5B7EFF2FFEA5111854513050002012969
:1002000085477C8037150140C1473EC48A858D47AC
:10021000130505403EC223110100BD2C310171B50B
:10022000EFF21FE80945892EA1227165130505200B
:100230005D22B707002083A50700372500001305BE
:10024000459E5123372500001305459F61255537ED
:1002500001441305401FA92211C801460144371566
:1002600001408545130505401926E5B705460544B7
:10027000FDB7B71702409843B706FFFC611113673B
:10028000170098C3D8432166758FD8C39843B70623
:10029000F7FEFD16758F98C39843B706FCFFFD1651
:1002A000758F98C3D843C176FD16758FD8C33707AD
:1002B0009F0098C702C002C2984FB706014013675B
:1002C000170098CFD842518FD8C29843C1663706DD
:1002D0000200558F98C3B716024009679C42F18F00
:1002E0003EC2824785073EC0924781E78247E39737
:1002F000E7FEB71702409C431397E70063580706D1
:1003000085473EC2124785476310F706B72702406C
:100310009843C176FD16719B98C3984313671700E5
:1003200098C3B7170240D843D8C3D843758FD8C3F2
:10033000D843C166558FD8C39843B7060001558F7F
:1003400098C3984393166700E3DD06FED843B716BB
:100350000240719BD8C3D84313672700D8C32147F5
:10036000DC42B18BE39EE7FE2101828002C259BFCD
:10037000EFF21FD3B707002003A50700B7157A00D7
:1003800093850520813B1375F50F2389A180931771
:100390005500898F8A073E950E052398A18031B3B9
:1003A000EFF21FD037F400E05C40AA85F99B5CC0F7
:1003B00003D50181013308C8232404001C4093E7BE
:1003C00017021CC0B7F700E0D843058B75DF9843D0
:1003D000799B98C3D9B9EFF2BFCC2A84116511116A
:1003E0008545130505022524930700027C803715F7
:1003F00001408D473EC28A85E147130505403EC452
:10040000612822C637440140B70708006C00130575
:1004100004803ECA02C8231C0100092C854513052F
:100420000480E924710151B1EFF29FC77111AE84CC
:100430000144635DC402B7470140138707803A85D2
:100440009305000432C0D124B747014013870780C9
:10045000024675D53387840083050700138507801E
:100460000504C205C181712C0246E1B73285110134
:100470002DB937070020130747001C43938681815D
:100480003E956369D500938601D763E5A60008C34E
:100490003E858280FD57EDBF9C45611122C226C07A
:1004A00013F7070113F3F70001C7D8413363E300E3
:1004B00092211377F60F29C7832305000147130400
:1004C0008002930480048546B395E600B376B600B7
:1004D0006392D50293122700BD46B396560093C689
:1004E000F6FFB3F37600B3125300B3E372006397E1
:1004F00087064CC90507A146E317D7FC23207500E2
:100500001307F00F6378C70483234500A146130443
:100510008002930480040547B312D7003377560056
:100520006394E202139726000117BD45B395E500D9
:1005300093C5F5FFB3F375003317E300B36377009A
:1005400063928702232A550085064147E395E6FC1E
:10055000232275001244824421018280E39C97F893
:100560000CC949BFE39297FE23285500F1BF19C279
:100570000CC982804CC98280B707002023A4A70041
:100580008280EFF2FFB1371702405C4391462A8424
:10059000B18B6385D700A1466385D706B7376E0157
:1005A000938707601CC0B7160240DC42918313F7A3
:1005B000F700B707002093870702BA978C23DC4225
:1005C000184093F5F50F93F707083355B70099E3F3
:1005D0003A85093648C008C448C4B7170240DC430E
:1005E0008D46AD8313F7F701CD8B63F3F6005117FA
:1005F000B70700209387C700BA978C23E13C08C84F
:100600006DB45C43B777DC02938707C061BF99C5BF
:10061000371702401C4F5D8D08CF8280B71702400C
:10062000984F1345F5FF798D88CF8280EFF25FA751
:100630001629F577FD17F58FF621DA252111D58FCB
:100640001EA95625FD779387379FF58FD6212A84DB
:100650002EC0D58F9625D58FB625D58F5EA55E2960
:10066000C207C18393F7F7CF5D8F5AA94800113FA6
:10067000B7470140938707808245631DF404C24752
:100680005A24139517003E9542070E0541873E9563
:100690008C41635307048605353C930540062AC008
:1006A000153C824793144500930540063E85893CDE
:1006B0005E24C207C18763D307020E059305400677
:1006C00013052503013C1D89C98CC204C18006A401
:1006D0006101E1BAB2476DB78A057DBF1205930586
:1006E000400613052503FD323D89F9BF91C55E25FE
:1006F0000967D98F5EA582805A25F977FD17F98F92
:10070000D5BF93F5F51F4EA182800A216D8D33353B
:10071000A000828001A001A001A001A001A001A071
:1007200001A001A001A001A001A001A001A001A0C1
:1007300001A001A001A001A001A001A001A001A0B1
:1007400001A001A001A001A001A0970100209381B8
:100750006114138101F7171500001305E53497059F
:1007600000209385258A1386818063FAC500832241
:10077000050023A0550011059105E3EAC5FE138588
:100780008180938581816377B50023200500110561
:10079000E36DB5FE93020008739002308D427390B2
:1007A0004280970200009382E28593E232007390C8
:1007B0005230EFF01FAC970200009382A2A6739014
:1007C0001234730020301301C1FD3ED02EC832CA4E
:1007D00036CC3ACE970700209387C78B22C480433C
:1007E00026C206C6AA8409C41C4C99E32285F529B1
:1007F0000C4414082686228536C0EF003013B24020
:1008000022449244130141028280411126C206C64D
:1008100022C42EC0AA8401C5184D11E3F921984CB9
:10082000804419E32685D1211717000013070720FC
:100830006312E402C0405A24218B19C3184821EFE7
:10084000A2852685852221C97D55B2402244924445
:1008500041018280171700001307471F6314E4004B
:100860008044D1BF171700001307471AE315E4FCB3
:10087000C044D1B7824718C485073EC063580700FB
:10088000144C634BD70229476388E502184093064E
:10089000170014C00CA3824718448C237D17F9F964
:1008A00018C4635207022286A94526851D28FD57D4
:1008B000E30CF5F8294551BF228626851D207D577A
:1008C000E31BE5FC51B71C401387170018C02947EC
:1008D00098A3CDB797F7FF1F9387C77BAA85884357
:1008E0002DB7311122C626C406C8AA87AE84328429
:1008F00011C5184D01E72AC0CD2E824717170000F9
:100900001307C7126318E406C043184C18C45A24CE
:10091000218B49C318483DCF1848084093F6F40F7F
:1009200093F4F40F198D5848634AE5003E85A2857B
:1009300036C23EC0692C824792463DE11844050507
:100940007D1718C418401306170010C014A3584888
:100950006308A7005A24058B01CB29476396E4005E
:10096000A2853E85AD240DEDC24032442685A244C9
:1009700051018280171700001307470D6314E4002C
:10098000804761B71717000013074708E31FE4F615
:10099000C047A5BF3E85A2853EC0292082472DDDE8
:1009A000FD54D9B7411197F7FF1F9387A76E26C251
:1009B000844322C406C6AA862E8499C49C4C89E727
:1009C0002AC026851D2682469717000093870706B2
:1009D0006319F402C0400317C40093170701C183D1
:1009E00013F687002DEA13F6070105EEA5479CC212
:1009F000136707045AA47D55B24022449244410132
:100A0000828097170000938767046314F400804482
:100A1000D9B797170000938767FFE31EF4FAC04425
:100A20005DBF918B8DC74C5899C993074404638669
:100A3000F500368536C021238246232A04025E242F
:100A40002322040093F7B7FD5EA41C481CC05E245B
:100A500093E787005EA41C4899EB5E2413070020EF
:100A600093F707286385E700A285368599215E24E0
:100A700013F717001DC35C4823240400B307F0409C
:100A80001CCC1C480145ADFB8317C40013F70708B5
:100A900025D793E707045EA4B9BF898B014791E38B
:100AA000584818C4F9BFD625311122C606C826C435
:100AB00013F78600AA872E8471EBD841634BE000C0
:100AC000B8416348E0000145C2403244A2445101AC
:100AD000828058546DDB84431396360123A00700AF
:100AE000635C060670485A24118B19C75840198E4A
:100AF000585819C33840198E58540C5081463E85B9
:100B00003EC002977D5756248247631DE5009043FF
:100B100075476368C7063707402005073357C70086
:100B2000058B25C318482322040018C013973601EB
:100B3000635807007D576314E500984311E368C8C4
:100B40004C5884C3C9D1130744046384E5003E852F
:100B5000FD26232A040285BF0C5001463E858546AA
:100B60003EC002977D572A868247E31EE5F69843EA
:100B70003DDBF5466305D700D9466312D70484C32D
:100B800099B793E6060456A47D553DBF984905DF05
:100B900084418D8A98C1998C014691E2D04910C454
:100BA000E35390F2032384020C503A863E85A686D6
:100BB0003AC23EC00293824712476347A0005E24B8
:100BC00093E707045EA4C9B72A97898CD1BF9C49D3
:100BD000B9CF411122C406C62A8411C51C4D81E734
:100BE0002EC02122824597170000938727E4639B3C
:100BF000F5004C408397C50095C722852244B2403A
:100C0000410155B597170000938747E46394F500B9
:100C10000C44CDB797170000938747DFE39CF5FCA2
:100C20004C44C9BFB2402244014541018280014584
:100C30008280511122C206C42A844EA572A52320A7
:100C4000050023220500232405002322050623286E
:100C50000500232A0500232C0500214681451305A4
:100C6000C505EFF08FCE971700009387A7B75CD02C
:100C7000971700009387C7B91CD497170000938774
:100C8000A7BD5CD497170000938707C000D01CD87D
:100C9000A24012443101828097050000938565F3DC
:100CA00089AA41111386F5FF22C413141600329449
:100CB0000A0432940E042EC09305440726C206C6C9
:100CC0003D26AA8409CD8247232005003105232C27
:100CD000F5FE88C4130684068145EFF00FC7B240C5
:100CE000224426859244410182801C4DBDE351116E
:100CF00006C422C297070000938747FA1CD597F7CE
:100D0000FF1F938767399C4323240504232605048A
:100D1000232805046314F50085471CCD2A841D286B
:100D200048C02285052808C422852D2048C4484093
:100D300001469145FD3D08440546A545DD3D484435
:100D40000946C945FD3585471CCCA24012443101F6
:100D500082808280411197F7FF1F9387E73322C477
:100D6000804326C206C61C4CAA8499E32285B53F5F
:100D7000930784048047D8437D1763560700984340
:100D800031CF9C43C5BF8316C400B1E6C177850748
:100D90002322040623200400232204002324040029
:100DA0005CC423280400232A0400232C04002146C9
:100DB00081451305C405EFF04FB9232A0402232C03
:100DC000040223240404232604042285B24022447E
:100DD0009244410182801304840679BF914526859F
:100DE0003EC0C135824788C349FDB1479CC001441C
:100DF000E9BF111122CA06CC26C8AA862E86130482
:100E00008504814719E4E2405244C2443E857101A1
:100E10008280044458407D17635407000040DDB7CA
:100E2000CA24854563F3A5020395E400FD55630ECE
:100E3000B5003685A6853EC63AC436C232C0029693
:100E4000B247224792460246C98F93848406E1B78F
:100E5000AE878395E5005971A6D286D6A2D4B28416
:100E600063DB0500DE2723A0060093F707088DEB60
:100E70009307004005A81304F1006198228636C24A
:100E80003EC0EF00F02582479246E34D05FC5840F6
:100E9000BD67F98F7977BA9793B717009CC2C9BF1E
:100EA00093070004B65026549CC0014596546561D2
:100EB0008280DA25211122C806CA26C6098B2E8413
:100EC00001CF930774041CC01CC885475CC8D2407E
:100ED0004244B2446101828034005000AA848D3FB4
:100EE00092452AC02685212219E98317C40013F7E9
:100EF000072071FFF19B93E727005EA4D9B717077E
:100F000000001307A7D998D45A2408C008C813674B
:100F100007085AA4124758C8224701CF8315E40096
:100F20002685EF00901E11C55E24F19B93E7170004
:100F30005EA45E240247B364F70046A449BFDDC542
:100F400083A7C5FF511122C206C426C01384C5FF62
:100F500063D307003E94AA84EF00F02197F7FF1FA8
:100F60009387C7139C4391EF2322040097F7FF1F39
:100F700023A687121244A2402685824431016F00C5
:100F8000B01F637EF40014403307D4006396E7007B
:100F90009843DC43369718C05CC0C9BFBA87D843B2
:100FA00019C3E37DE4FE94433386D700631F8600B4
:100FB0001040B29694C33386D700E31DC7FA10439E
:100FC0005843B29694C3D8C375B76375C400B1478C
:100FD0009CC04DB71040B306C4006316D70014433D
:100FE0005843B29614C058C0C0C369B7828041113B
:100FF00026C293843500F19806C622C4A104B147E5
:1010000063F7F404B14463E6B4042AC0EF00B016F9
:101010001387818014438247368421E41387C1807B
:10102000184301EB3E8581453EC0712723A6A18070
:1010300082473E85A6853EC0BD2F7D5782476316F9
:10104000E506314798C33E85EF00101329A0E3DC85
:1010500004FAB1471CC10145B24022449244410107
:1010600082801840058F634F07022D466376E600A5
:1010700018C03A9404C031A058406393860223A458
:10108000E1803E85EF00500F1305B40013074400C4
:101090006199B307E540E9D33E94098F18C06DBF4D
:1010A000D8C2C5B7A28640408DBF130435007198E1
:1010B000E30285FCB305A4403E853EC0ED2D7D577F
:1010C0008247E319E5FAB5BF1C46FD171CC663DA73
:1010D0000700184E63C5E700A9476394F5006FF059
:1010E0005F801C422E851387170018C28CA3828054
:1010F000311122C626C406C8AA872E873284B304BB
:10110000D60063149400014529A80C203A863E8538
:101110003AC23EC0553FFD56050482471247E312CE
:10112000D5FEC2403244A24451018280130181F7AE
:1011300022C1A6DE9307F10106C32AC032C22E8463
:1011400093F487FF11C5184D01E736C6793EB246C4
:10115000171700001307878D6310E40E8247C04302
:101160005A24218B630C070E18486DCB130700021D
:1011700098BC1307000323AA0400B8AC36CA124770
:1011800013065002142399C26399C60E9247330383
:10119000F7406301030202459A863E86A2853AC85B
:1011A0001AC6B937FD566305D520D44832434247A5
:1011B0009A96D4C81423638D061E130317007D5717
:1011C00023A0040023A60400D8C023A40400A38104
:1011D000040423AC040483450300154617150000DE
:1011E0001305C5881AC2EF00807712439440130795
:1011F000130051E513F6060109C613060002A38188
:10120000C40413F6860009C61306B002A381C40401
:10121000834503001306A0026380C508D4441A87DF
:1012200081452545102313031700130606FD637837
:10123000C50ABDC9D4C48DA81717000013070781BC
:101240006315E4008247804721BF1707000013079A
:10125000E77BE317E4F08247C04719B70245A28550
:1012600036C6EFF02FF4B246E30205F07D559A4002
:101270000A44F654130181088280050721B7170636
:1012800000001306A67E3306C54005453315C5008C
:10129000C98E94C03A8381B75246930546001042E6
:1012A0002ECA63470602D0C410239306E0026311DE
:1012B000D60610339306A002631ED602D246090753
:1012C00013864600944232CA63C40602D4C089A081
:1012D0003306C04093E62600D0C494C0F1B71397FC
:1012E000260036970607B306C70085451A871DBF37
:1012F000FD56E9BF050723A2040081458146254527
:10130000102313031700130606FD6377C506DDFDE2
:101310000C230D46170500001305C5753AC281253B
:10132000124711CD970600009386C674158D93065B
:101330000004B396A60088400507558D88C00C238D
:10134000930717001946170500001305E5723EC202
:101350008CAC31252DC517F7FFFF1307A7CA05EB86
:101360009440524793F606108DC211073ACAD848E6
:10137000A2473E97D8C821B513972600369706078F
:10138000B306C70085451A87A5BF2107C5B7024523
:101390005808970600009386E6D52286A685970012
:1013A0000000E70000002AC4A2477D57E391E7FC54
:1013B0005A2413770704E31B07EAC8484DBD0245CA
:1013C0005808970600009386E6D22286A685052A4D
:1013D000D9BF011126CA3283B6849045944922CCE4
:1013E00006CE2A84AE8763D3C600B2862320D300FC
:1013F00003C6370401C685062320D300944393F621
:10140000060291C68326030089062320D30083A207
:1014100007009383970193F262006383020690436F
:1014200083C6370413760602B336D00041EA13862A
:101430003704A68522851AC43EC23AC00297FD56DB
:101440006308D506924722431145944303260300BF
:10145000CC47998A014302476397A6003383C5406E
:101460006353030001439447904B6354D600918E1D
:1014700036938142E9076312530601451DA8850290
:10148000D44703260300918EE3DBD2F885461E86FF
:10149000A68522851AC83EC616C41EC23AC0029747
:1014A000FD5602479243A242B2474243E319D5FC9C
:1014B0007D55F2406244D24405618280B385D700F5
:1014C00013050003A381A50483C5570413861600E2
:1014D0003E968906A301B60499BF85463E86A68539
:1014E000228516C61AC43EC23AC00297FD56E301D1
:1014F000D5FCB2422243924785020247ADBF130199
:1015000041FD22D206D426D032C2902D36C42AC044
:10151000930690062E8493823504630DD60263E20F
:10152000C60693068005630ED61863EDC6006306F3
:10153000062293063004630CD60A93042404230184
:10154000C4047DA8930630066303D60A93064006BA
:10155000E315D6FE1440084313F60608930545002C
:1015600055C214410CC363D806001307D002B3065A
:10157000D040A301E4041706000013066650294773
:1015800055A893060007630AD61663E5C6029306BC
:10159000E0066301D61A9306F006E310D6FA0C4073
:1015A000144313F30508138546006305030608C3B7
:1015B0009442B5A093065007E303D6FE9306800736
:1015C0006301D61493063007E319D6F61443138645
:1015D000460010C38442D04181452685492619C161
:1015E000058D48C0584018C8A30104045DA81443E1
:1015F000930424041386460010C398422301E40494
:101600000547D5B713F6060414410CC329DEC206FC
:10161000C18691BF93F5050408C3D9D99622130753
:10162000F0066301E6101706000013066645294719
:10163000A30104044C400CC463C5050008406D9927
:1016400008C099E296849DC99684BA85368516CCE1
:1016500032CA3AC836C6EFE0BFAA52464247B2463F
:1016600032950C21FD1436858CA0BA85EFE09FA63B
:10167000B24642475246E24263FCE60AA146631E76
:10168000D7001840058B11CB544018486347D7004A
:1016900013070003A38FE4FEFD14B38292402328B6
:1016A00054002247924602457008A2851D337D579B
:1016B0006319E50A7D55A250125482541301C102E8
:1016C0008280A382C504170600001306663B0C4007
:1016D000084313F3050814411105630D030208C301
:1016E00013F7150001C793E505020CC04147A9F2A5
:1016F0000C4093F5F5FD0CC025BF944193E606021E
:1017000094C193068007A302D404170600001306B1
:10171000663875BF13F3050408C3E30303FCC20670
:10172000C1827DBF1706000013068635214709B721
:10173000AA8621BF90411443CC4913730608138530
:1017400046006306030008C398420CC339A008C3CF
:1017500013760604984275DA0EA3232804009684B3
:1017600089B7144892450245A247268682977D573D
:10177000E302E5F41840098B1DEB72474844E35C33
:10178000E5F23A850DBF92450245A24785461A8685
:101790003AC81AC68297FD56E30ED5F04247324347
:1017A000050754447246918EE34FD7FCF9B70147C1
:1017B00013039401FDB7511122C22A842E8523AA56
:1017C000018006C4EFE0FFCAFD576317F500938759
:1017D00041819C4391C31CC0A240124431018280CC
:1017E000511122C22E848395E50006C479226349F3
:1017F00005007C48AA977CC8A2401244310182802F
:101800005E247D777D17F98F5EA4FDB7DE2531114B
:1018100022C626C406C893F70710AA842E843283F2
:10182000B68291CB8395E50036C232C08946014627
:101830000922924202435E247D777D17F98F5EA4D0
:101840008315E4003244C2402685A24496861A8657
:10185000510125A8511122C22E848395E50006C4AA
:10186000C928FD575A24631AF500FD77FD17F98F33
:101870005EA4A2401244310182808567D98F5EA4A4
:1018800068C8C5BF8395E50005A8511122C22A8406
:101890002E85B285368623AA018006C4EFE0DFB824
:1018A000FD576317F500938741819C4391C31CC08A
:1018B000A240124431018280511122C22A842E8515
:1018C00023AA018006C4C520FD576317F50093873E
:1018D00041819C4391C31CC0A240124431018280CB
:1018E000511122C22A842E85B28523AA018006C402
:1018F000C920FD576317F500938741819C4391C32D
:101900001CC0A240124431018280511122C22A849B
:101910002E8523AA018006C45D20FD576317F500BC
:10192000938741819C4391C31CC0A2401244310162
:101930008280511122C22A842E85B285368623AA3E
:10194000018006C45920FD576317F5009387418134
:101950009C4391C31CC0A24012443101828093F584
:10196000F50F2A966314C500014582801C21E38E81
:10197000B7FE0505C5BF82808280511122C22A842C
:101980002E85B285368623AA018006C4A920FD577C
:101990006317F500938741819C4391C31CC0A2400B
:1019A0001244310182809307800523AAF1807D557E
:1019B00082809307800523AAF1807D55828093075A
:1019C000800523AAF180014582809307800523AA20
:1019D000F1807D5582809307800523AAF1807D5593
:1019E0008280000053797374656D436C6B3A256493
:1019F0000D0A00004750494F20546F67676C6520FF
:101A0000544553540D000000000000000000000089
:101A100000000000000000000000000000000000C6
:101A200000000000000000000000000000000000B6
:101A300000000000000000000000000000000000A6
:101A40000000000000000000000000000000000096
:101A50000000000000000000000000000000000086
:101A60000000000000000000232D302B20000000AB
:101A7000686C4C006566674546470000303132337C
:101A8000343536373839414243444546000000007A
:101A900030313233343536373839616263646566E4
:041AA0000000000042
:101AA400006CDC02A800002002000000020406080A
:101AB40004080C10081018201020304020406080CA
:101AC40001020304050607080102030405060708CA
:101AD40000000000281A0000481A0000081A00003C
:101AE40000000000000000000000000000000000F2
:101AF40000000000000000000000000000000000E2
:101B040000000000000000000000000000000000D1
:101B140000000000000000000000000000000000C1
:101B240000000000000000000000000000000000B1
:081B3400300000203000002009
:00000001FF
