:0820000000800020092000000F
:1020080080B500AF00F003F8C046BD4680BD80B57E
:1020180000AF0A4B1A68094B802189020A431A60EB
:10202800074B1A68064B802189020A431A60054B40
:102038001B88180000F008F8F2E7C0460844004181
:102048001C4400418420000080B584B000AF020029
:10205800BB1D1A800023FB6003E0C046FB68013308
:10206800FB60BB1D1B88DB011A00FB689342F4D39D
:0C207800C046C046BD4604B080BDC04656
:022084006400F6
:0400000300002008D1
:00000001FF
