:100000006F00105A130000001300000013000000DE
:100010001300000013000000130000001300000094
:100020001300000013000000130000001300000084
:08003000130000007300100032
:100038000000000000000000340D0000360D000034
:1000480000000000380D0000000000000000000063
:100058003A0D00003C0D0000000000000000000008
:100068003E0D000000000000400D000000000000F0
:10007800420D0000440D0000460D0000480D000030
:100088004A0D00004C0D00004E0D0000500D000000
:10009800520D0000540D0000560D0000580D0000D0
:1000A8005A0D00005C0D00005E0D0000600D0000A0
:1000B800620D0000640D0000660D0000680D000070
:1000C8006A0D00006C0D00006E0D0000700D000040
:1000D800720D0000740D0000760D0000780D000010
:1000E8007A0D00007C0D00007E0D0000800D0000E0
:1000F800820D0000840D0000860D0000880D0000B0
:100108008A0D00008C0D00008E0D0000900D00007F
:10011800920D0000940D0000960D0000980D00004F
:100128009A0D00009C0D00009E0D000000000000CC
:080138000000000000000000BF
:10014000511126C022C206C4828282441244A240B7
:10015000310182802A86014593F6150091C23295BD
:1001600085810606F5F9828000000000634E0502D5
:1001700063C305042E86AA857D5515C2854663781E
:10018000B6006356C00006068606E36CB6FE01455F
:1001900063E4C500918D558D85820582F5FA8280D4
:1001A0008682C93F2E8582823305A04063D7050031
:1001B000B305B040C1B7B305B0408682653F330593
:1001C000A0408282868263C70500634905005D37CF
:1001D0002E858282B305B040E35B05FE3305A04067
:1001E000513F3305B040828200003D432A8763734C
:1001F000C3029377F700BDEFADE5937606FF3D8A26
:10020000BA960CC34CC30CC74CC74107E36BD7FE6F
:1002100011E28280B306C3408A06970200009696D8
:100220006780A6002307B700A306B7002306B70020
:10023000A305B7002305B700A304B7002304B70044
:10024000A303B7002303B700A302B7002302B7003C
:10025000A301B7002301B700A300B7002300B70034
:10026000828093F5F50F93968500D58D93960501C1
:10027000D58D61B7939627009702000096968682E7
:10028000E78086FA9680C1171D8F3E96E374C3F807
:10029000A5B7EFF2FFEAAA841304900C894537351D
:1002A0000140EF0050190DC5A68537350140EF001C
:1002B00010181304900C854537350140EF00B01736
:1002C00011CD37350140EF00D0161375F50F31A071
:1002D0007D141374F40F79F0014585BD7D141374FA
:1002E000F40F71F8D5BFEFF2BFE505650111854543
:1002F000110502C002C202C402C602C802CA02CC70
:10030000231E0100EF00500B3714014091478D442C
:100310007C808A85C147130504803EC426C2EF0055
:100320008068130504809145EF00E0789307000290
:100330007C808A85E147130504803EC426C2EF0015
:1003400080661307000478808A85114713050480AE
:100350003AC4EF00406513070008E1478A8513059A
:10036000048078803EC426C2EF00E063B707040132
:100370003EC6B70702003EC8B707000285073ECA5F
:10038000A1473ECC6C009D4737350140FC86EF000D
:100390009004854537350140EF00D007056175B3FE
:1003A000EFF21FDA3714014001469145130504802E
:1003B000EF00E0711545F13D1305F00FD93DAA841A
:1003C0000546130504809145EF0060702685B5BB96
:1003D000EFF21FD7F137058975FD85BBEFF25FD6C8
:1003E000371401400146914513050480EF00206E4B
:1003F000194545350546914513050480EF00206DEC
:10040000A9B3EFF2FFD3B71401400146914513851C
:100410000480EF00C06B13050009A53D0145953D23
:100420000145853D0145B5351305F00F9D35220584
:10043000131405011305F00FA93D4180498C0546B1
:1004400013850480914542044180EF004068228575
:10045000EDB9EFF2FFCE1314C500B7140140BD3F54
:10046000853F0146914513850480EF0040661305E2
:1004700000020535135504011375F50F193D135589
:1004800084001375050F3135014521350546914529
:10049000138504802D2D2D3F4DB9EFF27FCA7111C8
:1004A0002A8437150140AE8432C0914501461305B8
:1004B0000580312D0D45F13B13D504011375F50F62
:1004C000C93B13D584001375F50FE13313F5F40F11
:1004D000C9338247B304F400631B9400371501400D
:1004E0000546914513050580DD231101B9B91305B2
:1004F000F00F453308A00504C5B7EFF27FC47111B2
:10050000AE842A8432C0D93D371501400146914559
:10051000130505806D2B0945AD3B13D504011375FB
:10052000F50F853B13D584001375F50F9D3313F537
:10053000F40F85338247B304F400631C940037152D
:1005400001400546914513050580512351351101A0
:10055000EDBE08200504353BCDB7EFF27FBEB28477
:100560009307001013F6F50F918F3E84C207C183E5
:100570006111AA862E8763F3F40026844204418029
:100580002286BA8536853AC236C0853F63838402A7
:100590008246124793070010A29622973384844024
:1005A00093140401C1802684E3FA97FC130400101D
:1005B000F1B7210159BEEFF2BFB8939645013284DD
:1005C000D1820566311193D7C500158E3EC2B28720
:1005D00042062AC42EC041826373C400A28793944A
:1005E00007019247056636C8B2073EC6BE85B70703
:1005F0000020138507095535C246B7070020C18082
:100600000146138507091303F00F93150601C181F5
:1006100063E6950026868245224581A80506B385B6
:10062000C600AA9583C5F5FFE38165FE124536C86D
:100630000D35C246B7070020014613850709A247BA
:10064000B385C70003C30500B385C600AA95050698
:100650002380650093150601C181E3E295FEB24552
:10066000B7070020056613850709C53D6307940297
:100670009247330794401314070185073EC2A247EF
:1006800041800566A6973EC482478146A6973EC034
:10069000A287E37686F4856799B751017DB4EFF2BE
:1006A0003FAA1111552A7165130505203D24B7078E
:1006B000002083A50700372500001305450CEF0037
:1006C000C07615313D3B85679387D70E3E95420531
:1006D0004181914763E9A70C8967938747090A0518
:1006E0003E951C418287372500001305450DEF001C
:1006F000B004372500001305C511EF00F0030145D4
:10070000893B3725000013054513EF00F002130560
:10071000401F4922B72400001385C414EF00D00104
:10072000694681450A85953B372400008A85130573
:100730004416E52D1305401FB12A37250000130587
:10074000C516EF00607F0965694681451305850A76
:100750009D353725000013054518EF00E07D130592
:10076000401F0D2A1385C414EF00007D81450A85C2
:10077000694625338A8513054416452D01A0372582
:1007800000001305050EA5B7372500001305C50E9B
:10079000B9BF372500001305850F91BF372500002D
:1007A00013054510A9B7372500001305451181B77A
:1007B000B71702409843B706FFF81367170098C3AE
:1007C000D843758FD8C39843B706F7FEFD16758FCB
:1007D00098C39843B706FCFFFD16758F98C3D8439E
:1007E000B70681FFFD16758FD8C337079F0098C7DE
:1007F000B746024003A706801367070123A0E680DF
:10080000D843B706C1FFFD16D8C3D843D8C3D843D1
:1008100013670740D8C3D843758FD8C3D843B706EA
:100820002800558FD8C39843B7060001558F98C349
:10083000984393166700E3DD06FED843B7160240DF
:10084000719BD8C3D84313672700D8C32147DC4224
:10085000B18BE39EE7FE8280EFF29F8EB707002008
:1008600003A50700B7157A0093850520EFF09F9048
:100870001375F50FB71700202389A70893175500A4
:10088000898F8A073E950E05B71700202398A70881
:100890006FF0BF8BEFF2DF8A37F400E05C40AA858F
:1008A000F99B5CC0B717002003D50709EFF09F8ABA
:1008B00008C881475CC81C4093E707011CC01C4066
:1008C00093E717021CC0B7F700E0D843058B75DF2C
:1008D0009843799B98C36FF05F87EFF27F862A84F5
:1008E0001165111185451105C12C930700207C80ED
:1008F000371501408D473EC28A85E14713050580C3
:100900003EC4552022C637440140B70708006C009A
:10091000130504803ECA02C8231C01001526854524
:1009200013050480E52671016FF03F82EFF25F81CD
:100930007111AE840144635DC402B747014013875F
:1009400007803A859305000432C0C526B7470140A9
:1009500013870780024675D5338784008305070017
:10096000138507800504C205C181652E0246E1B7E3
:10097000328511016FF06FFD370700201307470024
:100980001C43B7160020938686093E95636BD500FD
:10099000B75600209386068063E5A60008C33E850F
:1009A0008280FD57EDBF9C45611122C226C013F71E
:1009B000070113F3F70001C7D8413363E30037277A
:1009C0000240145B3707000F758F79E3371700205B
:1009D0008546A309D708371701406315E5009A211A
:1009E00035839AA192211377F60F29C78323050037
:1009F000014713048002930480048546B395E60002
:100A0000B376B6006392D50293122700BD46B39623
:100A1000560093C6F6FFB3F37600B3125300B3E368
:100A20007200639187084CC90507A146E317D7FCFC
:100A3000232075001307F00F6378C7048323450054
:100A4000A14613048002930480040547B312D70023
:100A5000337756006394E202139726000117BD45D1
:100A6000B395E50093C5F5FFB3F375003317E300C5
:100A7000B3637700639C8702232A550085064147AC
:100A8000E395E6FC23227500124482442101828012
:100A900037170140E318E5F43717002003473709FB
:100AA00031D335BFE39297F80CC9BDBFE39897FCEB
:100AB00023285500E1B7B71701406318F500B717B1
:100AC000002083C7370991C3B5810CC98280B7174D
:100AD00001406318F500B717002083C7370991C399
:100AE000B58119C20CC982804CC98280EFF24FE5F2
:100AF000371702405C4391462A84B18B6385D70047
:100B0000A1466385D706B7177A00938707201CC0D4
:100B1000371702405C43B70600209386C6009183D6
:100B2000BD8BB69788231C4033D5A70048C05C43D3
:100B3000A1839D8BB6979C23B357F5001CC45C43DF
:100B4000AD839D8BB6979C233355F50048C45C4319
:100B5000B98313F73700B707002093878700BA9748
:100B60008C23EFF02FE108C86FF02FDE48435C4381
:100B7000416749813D89F98F090545476313E500C0
:100B8000494581EFB747024083A70780C18B89CFD2
:100B9000B7157A009385052021A8B7170240DC43DA
:100BA0001397E700E35607FEB7153D0093850590C0
:100BB000EFF04FDA08C0A9BF99C5371702401C4FA4
:100BC0005D8D08CF8280B7170240984F1345F5FF1F
:100BD000798D88CF82801A218D6793870704B6218B
:100BE0007D8F9E21D58FD621D58FF621D58F962545
:100BF000D58FB625D58FD625D58FF625D58FD98F0C
:100C00001EA15A2DFD779387F77FF98F5EAD9E2940
:100C10001EA982801E2189C593E707041EA1828038
:100C2000C207C18393F7F7FBC207C183C5BF4EA5B7
:100C300082804A2582800A256D8D3335A00082800E
:100C4000EFF20FD01629F577FD17F58FF621DA258B
:100C50002111D58F1EA95625FD779387379FF58FD4
:100C6000D6212A842EC0D58F9625D58FB625D58F2F
:100C70005EA55E29C207C18393F7F7CF5D8F5AA99E
:100C80004800AD35B747014093870780824563121E
:100C9000F406C2475A24139517003E9542070E05E5
:100CA00041873E958C41635807048605EFF08FCC51
:100CB000930540062AC0EFF0EFCB8247931445001E
:100CC000930540063E85EFF0AFCD5E24C207C18795
:100CD00063D507020E059305400613052503EFF0C3
:100CE0006FC91D89C98CC204C18006A461016FF05F
:100CF000CFC5B24745B78A0555BF120593054006D3
:100D000013052503EFF00FC73D89E9BF91C55E25A7
:100D10000967D98F5EA582805A25F977FD17F98F6B
:100D2000D5BF93F5F51F4EA182800A216D8D333515
:100D3000A000828001A001A001A001A001A001A04B
:100D400001A001A001A001A001A001A001A001A09B
:100D500001A001A001A001A001A001A001A001A08B
:100D600001A001A001A001A001A001A001A001A07B
:100D700001A001A001A001A001A001A001A001A06B
:100D800001A001A001A001A001A001A001A001A05B
:100D900001A001A001A001A001A001A001A001A04B
:100DA00097010020938101AE174100201301812596
:100DB000171500001305854897F5FF1F93858524B7
:100DC0001386818063FAC5008322050023A05500A5
:100DD00011059105E3EAC5FE138581809705002082
:100DE0009385C52B6377B500232005001105E36DBE
:100DF000B5FEFD42739002BC8D4273904280930217
:100E0000800873A0023097F2FFFF9382222393E2BF
:100E1000320073905230EFF0BF9997020000938236
:100E2000428873901234730020301301C1FD3ED00C
:100E30002EC832CA36CC3ACE97F7FF1F9387872445
:100E400022C4804326C206C6AA8409C41C4C99E366
:100E50002285F5290C4414082686228536C0EF0029
:100E60003013B24022449244130141028280411166
:100E700026C206C622C42EC0AA8401C5184D11E39D
:100E8000F921984C804419E32685D12117170000D9
:100E9000130707336312E402C0405A24218B19C39D
:100EA000184821EFA2852685852221C97D55B240AB
:100EB00022449244410182801717000013074732F1
:100EC0006314E4008044D1BF171700001307472DB7
:100ED000E315E4FCC044D1B7824718C485073EC07F
:100EE00063580700144C634BD70229476388E50217
:100EF00018409306170014C00CA3824718448C2393
:100F00007D17F9F918C4635207022286A945268580
:100F10001D28FD57E30CF5F8294551BF228626858B
:100F20001D207D57E31BE5FC51B71C4013871700BC
:100F300018C0294798A3CDB797F7FF1F9387871449
:100F4000AA8588432DB7311122C626C406C8AA87B0
:100F5000AE84328411C5184D01E72AC0CD2E8247D8
:100F6000171700001307C7256318E406C043184C81
:100F700018C45A24218B49C318483DCF184808404B
:100F800093F6F40F93F4F40F198D5848634AE50073
:100F90003E85A28536C23EC0692C824792463DE11D
:100FA000184405057D1718C418401306170010C013
:100FB00014A358486308A7005A24058B01CB29477E
:100FC0006396E400A2853E85AD240DEDC240324417
:100FD0002685A2445101828017170000130747207D
:100FE0006314E400804761B7171700001307471B1D
:100FF000E31FE4F6C047A5BF3E85A2853EC0292079
:1010000082472DDDFD54D9B7411197F7FF1F938714
:10101000670726C2844322C406C6AA862E8499C4C2
:101020009C4C89E72AC026851D268246971700001A
:10103000938707196319F402C0400317C40093177C
:101040000701C18313F687002DEA13F6070105EEA9
:10105000A5479CC2136707045AA47D55B240224499
:1010600092444101828097170000938767176314A9
:10107000F4008044D9B79717000093876712E31EE6
:10108000F4FAC0445DBF918B8DC74C5899C9930742
:1010900044046386F500368536C021238246232A20
:1010A00004025E242322040093F7B7FD5EA41C48CB
:1010B0001CC05E2493E787005EA41C4899EB5E2465
:1010C0001307002093F707286385E700A28536857C
:1010D00099215E2413F717001DC35C4823240400E4
:1010E000B307F0401CCC1C480145ADFB8317C4007E
:1010F00013F7070825D793E707045EA4B9BF898BC8
:10110000014791E3584818C4F9BFD625311122C6CA
:1011100006C826C413F78600AA872E8471EBD8412F
:10112000634BE000B8416348E0000145C2403244EF
:10113000A2445101828058546DDB844313963601DA
:1011400023A00700635C060670485A24118B19C758
:101150005840198E585819C33840198E58540C509D
:1011600081463E853EC002977D5756248247631DC7
:10117000E500904375476368C706370740200507B9
:101180003357C700058B25C318482322040018C015
:1011900013973601635807007D576314E5009843A1
:1011A00011E368C84C5884C3C9D11307440463844D
:1011B000E5003E85FD26232A040285BF0C5001462A
:1011C0003E8585463EC002977D572A868247E31EAC
:1011D000E5F698433DDBF5466305D700D946631233
:1011E000D70484C399B793E6060456A47D553DBF42
:1011F000984905DF84418D8A98C1998C014691E216
:10120000D04910C4E35390F2032384020C503A8671
:101210003E85A6863AC23EC0029382471247634784
:10122000A0005E2493E707045EA4C9B72A97898CBF
:10123000D1BF9C49B9CF411122C406C62A8411C529
:101240001C4D81E72EC0212282459717000093870D
:1012500027F7639BF5004C408397C50095C722850F
:101260002244B240410155B597170000938747F7D4
:101270006394F5000C44CDB797170000938747F2AD
:10128000E39CF5FC4C44C9BFB240224401454101F6
:10129000828001458280511122C206C42A844EA553
:1012A00072A5232005002322050023240500232204
:1012B000050623280500232A0500232C05002146C6
:1012C00081451305C505EFE05FF29717000093878E
:1012D00027B85CD097170000938747BA1CD497179C
:1012E0000000938727BE5CD497170000938787C0C0
:1012F00000D01CD8A2401244310182809705000022
:10130000938565F389AA41111386F5FF22C413144E
:10131000160032940A0432940E042EC0930544073A
:1013200026C206C63D26AA8409CD82472320050091
:101330003105232CF5FE88C4130684068145EFE0B1
:10134000DFEAB240224426859244410182801C4D4E
:10135000BDE3511106C422C297070000938747FAE4
:101360001CD597F7FF1F938727D29C43232405049E
:1013700023260504232805046314F50085471CCDA6
:101380002A841D2848C02285052808C422852D20CE
:1013900048C4484001469145FD3D08440546A545E1
:1013A000DD3D48440946C945FD3585471CCCA24072
:1013B0001244310182808280411197F7FF1F938789
:1013C000A7CC22C4804326C206C61C4CAA8499E33B
:1013D0002285B53F930784048047D8437D17635621
:1013E0000700984331CF9C43C5BF8316C400B1E6C4
:1013F000C17785072322040623200400232204004A
:10140000232404005CC423280400232A0400232C82
:101410000400214681451305C405EFE01FDD232AA2
:101420000402232C0402232404042326040422851A
:10143000B24022449244410182801304840679BF61
:10144000914526853EC0C135824788C349FDB147D5
:101450009CC00144E9BF111122CA06CC26C8AA8645
:101460002E8613048504814719E4E2405244C244A5
:101470003E8571018280044458407D176354070003
:101480000040DDB7CA24854563F3A5020395E40057
:10149000FD55630EB5003685A6853EC63AC436C2F4
:1014A00032C00296B247224792460246C98F9384C1
:1014B0008406E1B7AE878395E5005971A6D286D63A
:1014C000A2D4B28463DB0500DE2723A0060093F7D5
:1014D00007088DEB9307004005A81304F1006198FD
:1014E000228636C23EC0EF00702782479246E34D07
:1014F00005FC5840BD67F98F7977BA9793B7170005
:101500009CC2C9BF93070004B65026549CC0014535
:10151000965465618280DA25211122C806CA26C642
:10152000098B2E8401CF930774041CC01CC8854707
:101530005CC8D2404244B244610182803400500011
:10154000AA848D3F92452AC02685212219E9831756
:10155000C40013F7072071FFF19B93E727005EA4F7
:10156000D9B7170700001307A7D998D45A2408C081
:1015700008C8136707085AA4124758C8224701CF62
:101580008315E4002685EF00902011C55E24F19BB1
:1015900093E717005EA45E240247B364F70046A4F5
:1015A00049BFDDC583A7C5FF511122C206C426C0AD
:1015B0001384C5FF63D307003E94AA84EF00F02490
:1015C00097F7FF1F938787AC9C4391EF232204007A
:1015D00097F7FF1F23AC87AA1244A24026858244B6
:1015E00031016F00B022637EF40014403307D40051
:1015F0006396E7009843DC43369718C05CC0C9BFC8
:10160000BA87D84319C3E37DE4FE94433386D700F9
:10161000631F86001040B29694C33386D700E31D43
:10162000C7FA10435843B29694C3D8C375B76375CD
:10163000C400B1479CC04DB71040B306C400631648
:10164000D70014435843B29614C058C0C0C369B7FA
:101650008280411126C293843500F19806C622C4C7
:10166000A104B14763F7F404B14463E6B4042AC0AB
:10167000EF00B0191387818014438247368421E438
:101680001387C180184301EB3E8581453EC0712719
:1016900023A6A18082473E85A6853EC0BD2F7D57EB
:1016A00082476316E506314798C33E85EF00101662
:1016B00029A0E3DC04FAB1471CC10145B240224431
:1016C0009244410182801840058F634F07022D46E6
:1016D0006376E60018C03A9404C031A05840639382
:1016E000860223A4E1803E85EF0050121305B4006A
:1016F000130744006199B307E540E9D33E94098F8D
:1017000018C06DBFD8C2C5B7A28640408DBF1304B4
:1017100035007198E30285FCB305A4403E853EC0C8
:10172000ED2D7D578247E319E5FAB5BF1C46FD173D
:101730001CC663DA0700184E63C5E700A947639427
:10174000F5006FF05F801C422E851387170018C2CA
:101750008CA38280311122C626C406C8AA872E8790
:101760003284B304D60063149400014529A80C20E8
:101770003A863E853AC23EC0553FFD560504824733
:101780001247E312D5FEC2403244A2445101828086
:10179000130181F722C1A6DE9307F10106C32AC017
:1017A00032C22E8493F487FF11C5184D01E736C667
:1017B000793EB24617170000130787A06310E40EA6
:1017C0008247C0435A24218B630C070E18486DCB07
:1017D0001307000298BC1307000323AA0400B8AC47
:1017E00036CA124713065002142399C26399C60ED3
:1017F00092473303F7406301030202459A863E860F
:10180000A2853AC81AC6B937FD566305D520D44813
:10181000324342479A96D4C81423638D061E13039D
:1018200017007D5723A0040023A60400D8C023A4DA
:101830000400A381040423AC04048345030015467B
:10184000171500001305C59B1AC2EF00807A1243DA
:1018500094401307130051E513F6060109C6130659
:101860000002A381C40413F6860009C61306B00261
:10187000A381C404834503001306A0026380C50846
:10188000D4441A87814525451023130317001306F6
:1018900006FD6378C50ABDC9D4C48DA8171700001A
:1018A000130707946315E4008247804721BF171789
:1018B00000001307E78EE317E4F08247C04719B72B
:1018C0000245A28536C6EFF02FF4B246E30205F0DA
:1018D0007D559A400A44F654130181088280050719
:1018E00021B7171600001306A6913306C54005451B
:1018F0003315C500C98E94C03A8381B7524693050B
:10190000460010422ECA63470602D0C41023930635
:10191000E0026311D60610339306A002631ED602BE
:10192000D246090713864600944232CA63C40602AF
:10193000D4C089A03306C04093E62600D0C494C02A
:10194000F1B71397260036970607B306C7008545FB
:101950001A871DBFFD56E9BF050723A20400814574
:1019600081462545102313031700130606FD6377F0
:10197000C506DDFD0C230D46171500001305C588AF
:101980003AC2852D124711CD971600009386C6875F
:10199000158D93060004B396A60088400507558D63
:1019A00088C00C239307170019461715000013056C
:1019B000E5853EC28CAC352D2DC517E7FFFF13071B
:1019C000676405EB9440524793F606108DC21107E9
:1019D0003ACAD848A2473E97D8C821B513972600DF
:1019E00036970607B306C70085451A87A5BF2107A6
:1019F000C5B702455808970600009386E6D52286AB
:101A0000A68597000000E70000002AC4A2477D5782
:101A1000E391E7FC5A2413770704E31B07EAC8485D
:101A20004DBD02455808970600009386E6D22286EF
:101A3000A685052AD9BF011126CA3283B6849045EE
:101A4000944922CC06CE2A84AE8763D3C600B286E0
:101A50002320D30003C6370401C685062320D30004
:101A6000944393F6060291C6832603008906232039
:101A7000D30083A207009383970193F262006383EC
:101A80000206904383C6370413760602B336D000AD
:101A900041EA13863704A68522851AC43EC23AC09D
:101AA0000297FD566308D506924722431145944399
:101AB00003260300CC47998A014302476397A60097
:101AC0003383C5406353030001439447904B6354F1
:101AD000D600918E36938142E90763125306014581
:101AE0001DA88502D44703260300918EE3DBD2F8BC
:101AF00085461E86A68522851AC83EC616C41EC205
:101B00003AC00297FD5602479243A242B24742436F
:101B1000E319D5FC7D55F2406244D24405618280D0
:101B2000B385D70013050003A381A50483C557041B
:101B3000138616003E968906A301B60499BF854612
:101B40003E86A685228516C61AC43EC23AC00297B2
:101B5000FD56E301D5FCB24222439247850202477B
:101B6000ADBF130141FD22D206D426D032C2902D42
:101B700036C42AC0930690062E8493823504630DE2
:101B8000D60263E2C60693068005630ED61863ED9F
:101B9000C6006306062293063004630CD60A93043B
:101BA00024042301C4047DA8930630066303D60AE7
:101BB00093064006E315D6FE1440084313F60608C4
:101BC0009305450055C214410CC363D806001307A2
:101BD000D002B306D040A301E404170600001306A8
:101BE0006663294755A893060007630AD61663E57E
:101BF000C6029306E0066301D61A9306F006E310C8
:101C0000D6FA0C40144313F3050813854600630508
:101C1000030608C39442B5A093065007E303D6FE1B
:101C2000930680076301D61493063007E319D6F6AE
:101C300014431386460010C38442D0418145268553
:101C40004D2E19C1058D48C0584018C8A301040481
:101C50005DA81443930424041386460010C39842DD
:101C60002301E4040547D5B713F6060414410CC359
:101C700029DEC206C18691BF93F5050408C3D9D9F0
:101C800096221307F0066301E610170600001306FC
:101C900066582947A30104044C400CC463C50500E1
:101CA00008406D9908C099E296849DC99684BA85CA
:101CB000368516CC32CA3AC836C6EFE06FCE5246E9
:101CC0004247B24632950C21FD1436858CA0BA8568
:101CD000EFE04FCAB24642475246E24263FCE60A90
:101CE000A146631ED7001840058B11CB54401848FD
:101CF0006347D70013070003A38FE4FEFD14B382EC
:101D00009240232854002247924602457008A2853B
:101D10001D337D576319E50A7D55A2501254825434
:101D20001301C1028280A382C504170600001306B6
:101D3000664E0C40084313F3050814411105630D6A
:101D4000030208C313F7150001C793E505020CC091
:101D50004147A9F20C4093F5F5FD0CC025BF944115
:101D600093E6060294C193068007A302D4041706E3
:101D700000001306664B75BF13F3050408C3E303A5
:101D800003FCC206C1827DBF170600001306864809
:101D9000214709B7AA8621BF90411443CC49137348
:101DA0000608138546006306030008C398420CC367
:101DB00039A008C313760604984275DA0EA32328C7
:101DC0000400968489B7144892450245A2472686A6
:101DD00082977D57E302E5F41840098B1DEB7247AB
:101DE0004844E35CE5F23A850DBF92450245A247BF
:101DF00085461A863AC81AC68297FD56E30ED5F074
:101E000042473243050754447246918EE34FD7FC54
:101E1000F9B7014713039401FDB7511122C22A8477
:101E20002E8597F7FF1F23A9072606C4EFE0DFB42E
:101E3000FD576319F50097F7FF1F9387E7259C432C
:101E400091C31CC0A240124431018280511122C2B0
:101E50002E848395E50006C45D2A634905007C480D
:101E6000AA977CC8A2401244310182805E247D770B
:101E70007D17F98F5EA4FDB7DE25311122C626C479
:101E800006C893F70710AA842E843283B68291CBBA
:101E90008395E50036C232C0894601460D22924242
:101EA00002435E247D777D17F98F5EA48315E400DD
:101EB0003244C2402685A24496861A86510125A83E
:101EC000511122C22E848395E50006C4CD28FD570A
:101ED0005A24631AF500FD77FD17F98F5EA4A2401E
:101EE0001244310182808567D98F5EA468C8C5BF5E
:101EF0008395E50025A8511122C22A842E85B2853A
:101F0000368697F7FF1F23A9071806C4EFE01FA224
:101F1000FD576319F50097F7FF1F9387E7179C4359
:101F200091C31CC0A240124431018280511122C2CF
:101F30002A842E8597F7FF1F23A0071606C41122B7
:101F4000FD576319F50097F7FF1F9387E7149C432C
:101F500091C31CC0A240124431018280511122C29F
:101F60002A842E85B28597F7FF1F23A7071206C480
:101F7000CD20FD576319F50097F7FF1F9387C71111
:101F80009C4391C31CC0A240124431018280511174
:101F900022C22A842E8597F7FF1F23AF070E06C49F
:101FA000C920FD576319F50097F7FF1F9387C70EE8
:101FB0009C4391C31CC0A240124431018280511144
:101FC00022C22A842E85B285368697F7FF1F23A565
:101FD000070C06C47928FD576319F50097F7FF1F12
:101FE0009387870B9C4391C31CC0A24012443101CC
:101FF000828093F5F50F2A966314C500014582800F
:102000001C21E38EB7FE0505C5BF82808280511179
:1020100022C22A842E85B285368697F7FF1F23AD0C
:10202000070606C4B928FD576319F50097F7FF1F87
:10203000938787069C4391C31CC0A2401244310180
:1020400082809307800517F7FF1F2327F7047D552C
:1020500082809307800517F7FF1F232FF7027D5516
:1020600082809307800517F7FF1F2327F70201459A
:1020700082809307800517F7FF1F232FF7007D55F8
:1020800082809307800517F7FF1F2327F7007D55F0
:1020900082800000E60600007E070000880700003E
:1020A000920700009C070000434833325632303319
:1020B0002053504920464C415348205732355178DF
:1020C0007800000053797374656D436C6B3A256436
:1020D0000D0A0000573235513830204F4B210D008A
:1020E000573235513136204F4B210D005732355183
:1020F0003332204F4B210D00573235513634204FAB
:102100004B210D0057323551313238204F4B210DC4
:10211000000000004661696C210D0000537461727B
:1021200074204572617365205732355178782E2EB0
:102130002E2E0D0057323551787820457261736527
:102140002046696E6973686564210D00537461727D
:10215000742052656164205732355178782E2E2EC6
:102160002E0D000025730D0A0000000053746172EB
:1021700074205772697465205732355178782E2E45
:102180002E2E0D00573235517878205772697465BC
:102190002046696E6973686564210D0000000000C7
:1021A000000000000000000000000000000000002F
:1021B000000000000000000000000000000000001F
:1021C000000000000000000000000000000000000F
:1021D00000000000000000000000000000000000FF
:1021E00000000000000000000000000000000000EF
:1021F000000000000000000000000000232D302B34
:1022000020000000686C4C0065666745464700008A
:10221000303132333435363738394142434445461C
:1022200000000000303132333435363738396162DE
:08223000636465660000000014
:1022380000D8B80598100020020406080000000025
:102248000102030401020304060708090000000054
:10225800BC210000DC2100009C21000000000000DF
:102268000000000000000000000000000000000066
:102278000000000000000000000000000000000056
:102288000000000000000000000000000000000046
:102298000000000000000000000000000000000036
:1022A8000000000000000000000000000000000026
:0822B8001C0000201C000020A6
:00000001FF
